{
  "contractName": "Bank",
  "abi": [
    {
      "constant": true,
      "inputs": [
        {
          "name": "",
          "type": "address"
        }
      ],
      "name": "etherBalanceOf",
      "outputs": [
        {
          "name": "",
          "type": "uint256"
        }
      ],
      "payable": false,
      "stateMutability": "view",
      "type": "function"
    },
    {
      "constant": true,
      "inputs": [
        {
          "name": "",
          "type": "address"
        },
        {
          "name": "",
          "type": "address"
        }
      ],
      "name": "tokenBalanceOf",
      "outputs": [
        {
          "name": "",
          "type": "uint256"
        }
      ],
      "payable": false,
      "stateMutability": "view",
      "type": "function"
    },
    {
      "constant": true,
      "inputs": [
        {
          "name": "",
          "type": "address"
        },
        {
          "name": "",
          "type": "address"
        }
      ],
      "name": "allocatedTokensOf",
      "outputs": [
        {
          "name": "",
          "type": "uint256"
        }
      ],
      "payable": false,
      "stateMutability": "view",
      "type": "function"
    },
    {
      "constant": true,
      "inputs": [],
      "name": "registry",
      "outputs": [
        {
          "name": "",
          "type": "address"
        }
      ],
      "payable": false,
      "stateMutability": "view",
      "type": "function"
    },
    {
      "constant": true,
      "inputs": [
        {
          "name": "",
          "type": "address"
        }
      ],
      "name": "allocatedEtherOf",
      "outputs": [
        {
          "name": "",
          "type": "uint256"
        }
      ],
      "payable": false,
      "stateMutability": "view",
      "type": "function"
    },
    {
      "inputs": [
        {
          "name": "_registryAddress",
          "type": "address"
        }
      ],
      "payable": false,
      "stateMutability": "nonpayable",
      "type": "constructor"
    },
    {
      "anonymous": false,
      "inputs": [
        {
          "indexed": true,
          "name": "depositer",
          "type": "address"
        },
        {
          "indexed": false,
          "name": "tokenAddress",
          "type": "address"
        },
        {
          "indexed": false,
          "name": "value",
          "type": "uint256"
        }
      ],
      "name": "FundsDeposited",
      "type": "event"
    },
    {
      "anonymous": false,
      "inputs": [
        {
          "indexed": true,
          "name": "fundsOwner",
          "type": "address"
        },
        {
          "indexed": false,
          "name": "tokenAddress",
          "type": "address"
        },
        {
          "indexed": false,
          "name": "value",
          "type": "uint256"
        }
      ],
      "name": "FundsAllocated",
      "type": "event"
    },
    {
      "anonymous": false,
      "inputs": [
        {
          "indexed": true,
          "name": "fundsOwner",
          "type": "address"
        },
        {
          "indexed": false,
          "name": "tokenAddress",
          "type": "address"
        },
        {
          "indexed": false,
          "name": "value",
          "type": "uint256"
        }
      ],
      "name": "FundsDeAllocated",
      "type": "event"
    },
    {
      "anonymous": false,
      "inputs": [
        {
          "indexed": true,
          "name": "from",
          "type": "address"
        },
        {
          "indexed": true,
          "name": "to",
          "type": "address"
        },
        {
          "indexed": false,
          "name": "tokenAddress",
          "type": "address"
        },
        {
          "indexed": false,
          "name": "value",
          "type": "uint256"
        }
      ],
      "name": "FundsTransferred",
      "type": "event"
    },
    {
      "anonymous": false,
      "inputs": [
        {
          "indexed": true,
          "name": "fundsOwner",
          "type": "address"
        },
        {
          "indexed": false,
          "name": "tokenAddress",
          "type": "address"
        },
        {
          "indexed": false,
          "name": "value",
          "type": "uint256"
        }
      ],
      "name": "FundsWithdrawn",
      "type": "event"
    },
    {
      "constant": false,
      "inputs": [
        {
          "name": "_fundsOwner",
          "type": "address"
        },
        {
          "name": "_value",
          "type": "uint256"
        }
      ],
      "name": "allocateEtherOf",
      "outputs": [],
      "payable": false,
      "stateMutability": "nonpayable",
      "type": "function"
    },
    {
      "constant": false,
      "inputs": [
        {
          "name": "_fundsOwner",
          "type": "address"
        },
        {
          "name": "_tokenAddress",
          "type": "address"
        },
        {
          "name": "_value",
          "type": "uint256"
        }
      ],
      "name": "allocateTokensOf",
      "outputs": [],
      "payable": false,
      "stateMutability": "nonpayable",
      "type": "function"
    },
    {
      "constant": false,
      "inputs": [
        {
          "name": "_fundsOwner",
          "type": "address"
        },
        {
          "name": "_value",
          "type": "uint256"
        }
      ],
      "name": "deAllocateEtherOf",
      "outputs": [],
      "payable": false,
      "stateMutability": "nonpayable",
      "type": "function"
    },
    {
      "constant": false,
      "inputs": [
        {
          "name": "_fundsOwner",
          "type": "address"
        },
        {
          "name": "_tokenAddress",
          "type": "address"
        },
        {
          "name": "_value",
          "type": "uint256"
        }
      ],
      "name": "deAllocateTokensOf",
      "outputs": [],
      "payable": false,
      "stateMutability": "nonpayable",
      "type": "function"
    },
    {
      "constant": false,
      "inputs": [
        {
          "name": "_fundsOwner",
          "type": "address"
        },
        {
          "name": "_recipient",
          "type": "address"
        },
        {
          "name": "_value",
          "type": "uint256"
        }
      ],
      "name": "transferAllocatedEtherOf",
      "outputs": [],
      "payable": false,
      "stateMutability": "nonpayable",
      "type": "function"
    },
    {
      "constant": false,
      "inputs": [
        {
          "name": "_fundsOwner",
          "type": "address"
        },
        {
          "name": "_tokenAddress",
          "type": "address"
        },
        {
          "name": "_recipient",
          "type": "address"
        },
        {
          "name": "_value",
          "type": "uint256"
        }
      ],
      "name": "transferAllocatedTokensOf",
      "outputs": [],
      "payable": false,
      "stateMutability": "nonpayable",
      "type": "function"
    },
    {
      "constant": false,
      "inputs": [],
      "name": "depositEther",
      "outputs": [],
      "payable": true,
      "stateMutability": "payable",
      "type": "function"
    },
    {
      "constant": false,
      "inputs": [
        {
          "name": "_value",
          "type": "uint256"
        }
      ],
      "name": "withdrawEther",
      "outputs": [],
      "payable": false,
      "stateMutability": "nonpayable",
      "type": "function"
    },
    {
      "constant": false,
      "inputs": [
        {
          "name": "_tokenAddress",
          "type": "address"
        },
        {
          "name": "_value",
          "type": "uint256"
        }
      ],
      "name": "depositTokens",
      "outputs": [],
      "payable": false,
      "stateMutability": "nonpayable",
      "type": "function"
    },
    {
      "constant": false,
      "inputs": [
        {
          "name": "_tokenAddress",
          "type": "address"
        },
        {
          "name": "_value",
          "type": "uint256"
        }
      ],
      "name": "withdrawTokens",
      "outputs": [],
      "payable": false,
      "stateMutability": "nonpayable",
      "type": "function"
    }
  ],
  "bytecode": "0x608060405234801561001057600080fd5b506040516020806124218339810180604052810190808051906020019092919050505061004b8161009c640100000000026401000000009004565b151561005657600080fd5b806000806101000a81548173ffffffffffffffffffffffffffffffffffffffff021916908373ffffffffffffffffffffffffffffffffffffffff160217905550506100af565b600080823b905060008111915050919050565b612363806100be6000396000f3006080604052600436106100db576000357c0100000000000000000000000000000000000000000000000000000000900463ffffffff16806306b091f9146100e0578063179fc99f1461012d5780631bea8006146101845780633bed33ce146101fb57806353eda2c11461022857806366168bd71461029f5780636fa8cbc0146102ec57806377b9ded5146103795780637b103999146103c657806393cf99e61461041d57806398ea5fca1461048a578063aa7edf7c14610494578063b0437069146104eb578063d86b8f5214610558578063db47b454146105a5575b600080fd5b3480156100ec57600080fd5b5061012b600480360381019080803573ffffffffffffffffffffffffffffffffffffffff16906020019092919080359060200190929190505050610612565b005b34801561013957600080fd5b5061016e600480360381019080803573ffffffffffffffffffffffffffffffffffffffff169060200190929190505050610895565b6040518082815260200191505060405180910390f35b34801561019057600080fd5b506101e5600480360381019080803573ffffffffffffffffffffffffffffffffffffffff169060200190929190803573ffffffffffffffffffffffffffffffffffffffff1690602001909291905050506108ad565b6040518082815260200191505060405180910390f35b34801561020757600080fd5b50610226600480360381019080803590602001909291905050506108d2565b005b34801561023457600080fd5b50610289600480360381019080803573ffffffffffffffffffffffffffffffffffffffff169060200190929190803573ffffffffffffffffffffffffffffffffffffffff169060200190929190505050610a43565b6040518082815260200191505060405180910390f35b3480156102ab57600080fd5b506102ea600480360381019080803573ffffffffffffffffffffffffffffffffffffffff16906020019092919080359060200190929190505050610a68565b005b3480156102f857600080fd5b50610377600480360381019080803573ffffffffffffffffffffffffffffffffffffffff169060200190929190803573ffffffffffffffffffffffffffffffffffffffff169060200190929190803573ffffffffffffffffffffffffffffffffffffffff16906020019092919080359060200190929190505050610d1f565b005b34801561038557600080fd5b506103c4600480360381019080803573ffffffffffffffffffffffffffffffffffffffff16906020019092919080359060200190929190505050611111565b005b3480156103d257600080fd5b506103db6113f7565b604051808273ffffffffffffffffffffffffffffffffffffffff1673ffffffffffffffffffffffffffffffffffffffff16815260200191505060405180910390f35b34801561042957600080fd5b50610488600480360381019080803573ffffffffffffffffffffffffffffffffffffffff169060200190929190803573ffffffffffffffffffffffffffffffffffffffff1690602001909291908035906020019092919050505061141c565b005b6104926117f6565b005b3480156104a057600080fd5b506104d5600480360381019080803573ffffffffffffffffffffffffffffffffffffffff16906020019092919050505061191f565b6040518082815260200191505060405180910390f35b3480156104f757600080fd5b50610556600480360381019080803573ffffffffffffffffffffffffffffffffffffffff169060200190929190803573ffffffffffffffffffffffffffffffffffffffff16906020019092919080359060200190929190505050611937565b005b34801561056457600080fd5b506105a3600480360381019080803573ffffffffffffffffffffffffffffffffffffffff16906020019092919080359060200190929190505050611c35565b005b3480156105b157600080fd5b50610610600480360381019080803573ffffffffffffffffffffffffffffffffffffffff169060200190929190803573ffffffffffffffffffffffffffffffffffffffff16906020019092919080359060200190929190505050611f1b565b005b60008111151561062157600080fd5b6106b081600360003373ffffffffffffffffffffffffffffffffffffffff1673ffffffffffffffffffffffffffffffffffffffff16815260200190815260200160002060008573ffffffffffffffffffffffffffffffffffffffff1673ffffffffffffffffffffffffffffffffffffffff168152602001908152602001600020546122f590919063ffffffff16565b600360003373ffffffffffffffffffffffffffffffffffffffff1673ffffffffffffffffffffffffffffffffffffffff16815260200190815260200160002060008473ffffffffffffffffffffffffffffffffffffffff1673ffffffffffffffffffffffffffffffffffffffff168152602001908152602001600020819055508173ffffffffffffffffffffffffffffffffffffffff1663a9059cbb33836040518363ffffffff167c0100000000000000000000000000000000000000000000000000000000028152600401808373ffffffffffffffffffffffffffffffffffffffff1673ffffffffffffffffffffffffffffffffffffffff16815260200182815260200192505050602060405180830381600087803b1580156107d357600080fd5b505af11580156107e7573d6000803e3d6000fd5b505050506040513d60208110156107fd57600080fd5b8101908080519060200190929190505050503373ffffffffffffffffffffffffffffffffffffffff167fa92ff919b850e4909ab2261d907ef955f11bc1716733a6cbece38d163a69af8a8383604051808373ffffffffffffffffffffffffffffffffffffffff1673ffffffffffffffffffffffffffffffffffffffff1681526020018281526020019250505060405180910390a25050565b60016020528060005260406000206000915090505481565b6003602052816000526040600020602052806000526040600020600091509150505481565b6000811115156108e157600080fd5b61093381600160003373ffffffffffffffffffffffffffffffffffffffff1673ffffffffffffffffffffffffffffffffffffffff168152602001908152602001600020546122f590919063ffffffff16565b600160003373ffffffffffffffffffffffffffffffffffffffff1673ffffffffffffffffffffffffffffffffffffffff168152602001908152602001600020819055503373ffffffffffffffffffffffffffffffffffffffff166108fc829081150290604051600060405180830381858888f193505050501580156109bc573d6000803e3d6000fd5b503373ffffffffffffffffffffffffffffffffffffffff167fa92ff919b850e4909ab2261d907ef955f11bc1716733a6cbece38d163a69af8a600083604051808373ffffffffffffffffffffffffffffffffffffffff1673ffffffffffffffffffffffffffffffffffffffff1681526020018281526020019250505060405180910390a250565b6004602052816000526040600020602052806000526040600020600091509150505481565b600081111515610a7757600080fd5b610b0681600360003373ffffffffffffffffffffffffffffffffffffffff1673ffffffffffffffffffffffffffffffffffffffff16815260200190815260200160002060008573ffffffffffffffffffffffffffffffffffffffff1673ffffffffffffffffffffffffffffffffffffffff1681526020019081526020016000205461231690919063ffffffff16565b600360003373ffffffffffffffffffffffffffffffffffffffff1673ffffffffffffffffffffffffffffffffffffffff16815260200190815260200160002060008473ffffffffffffffffffffffffffffffffffffffff1673ffffffffffffffffffffffffffffffffffffffff168152602001908152602001600020819055508173ffffffffffffffffffffffffffffffffffffffff166323b872dd3330846040518463ffffffff167c0100000000000000000000000000000000000000000000000000000000028152600401808473ffffffffffffffffffffffffffffffffffffffff1673ffffffffffffffffffffffffffffffffffffffff1681526020018373ffffffffffffffffffffffffffffffffffffffff1673ffffffffffffffffffffffffffffffffffffffff1681526020018281526020019350505050602060405180830381600087803b158015610c5d57600080fd5b505af1158015610c71573d6000803e3d6000fd5b505050506040513d6020811015610c8757600080fd5b8101908080519060200190929190505050503373ffffffffffffffffffffffffffffffffffffffff167ff0d0e99cae184d0187b093b48894117462462379674a6e11d89c3fbb618e96b08383604051808373ffffffffffffffffffffffffffffffffffffffff1673ffffffffffffffffffffffffffffffffffffffff1681526020018281526020019250505060405180910390a25050565b6000809054906101000a900473ffffffffffffffffffffffffffffffffffffffff1673ffffffffffffffffffffffffffffffffffffffff1663b319c9e46040518163ffffffff167c01000000000000000000000000000000000000000000000000000000000281526004018080602001828103825260118152602001807f526f636b506170657253636973736f7273000000000000000000000000000000815250602001915050602060405180830381600087803b158015610de057600080fd5b505af1158015610df4573d6000803e3d6000fd5b505050506040513d6020811015610e0a57600080fd5b810190808051906020019092919050505073ffffffffffffffffffffffffffffffffffffffff163373ffffffffffffffffffffffffffffffffffffffff16141515610e5457600080fd5b610ee381600460008773ffffffffffffffffffffffffffffffffffffffff1673ffffffffffffffffffffffffffffffffffffffff16815260200190815260200160002060008673ffffffffffffffffffffffffffffffffffffffff1673ffffffffffffffffffffffffffffffffffffffff168152602001908152602001600020546122f590919063ffffffff16565b600460008673ffffffffffffffffffffffffffffffffffffffff1673ffffffffffffffffffffffffffffffffffffffff16815260200190815260200160002060008573ffffffffffffffffffffffffffffffffffffffff1673ffffffffffffffffffffffffffffffffffffffff16815260200190815260200160002081905550610ff281600360008573ffffffffffffffffffffffffffffffffffffffff1673ffffffffffffffffffffffffffffffffffffffff16815260200190815260200160002060008673ffffffffffffffffffffffffffffffffffffffff1673ffffffffffffffffffffffffffffffffffffffff1681526020019081526020016000205461231690919063ffffffff16565b600360008473ffffffffffffffffffffffffffffffffffffffff1673ffffffffffffffffffffffffffffffffffffffff16815260200190815260200160002060008573ffffffffffffffffffffffffffffffffffffffff1673ffffffffffffffffffffffffffffffffffffffff168152602001908152602001600020819055508173ffffffffffffffffffffffffffffffffffffffff168473ffffffffffffffffffffffffffffffffffffffff167fe0f4ea6a918e93adb89b0f0bb9c18ee364aa4248b64ef5c401eea8742d6a63078584604051808373ffffffffffffffffffffffffffffffffffffffff1673ffffffffffffffffffffffffffffffffffffffff1681526020018281526020019250505060405180910390a350505050565b6000809054906101000a900473ffffffffffffffffffffffffffffffffffffffff1673ffffffffffffffffffffffffffffffffffffffff1663b319c9e46040518163ffffffff167c01000000000000000000000000000000000000000000000000000000000281526004018080602001828103825260118152602001807f526f636b506170657253636973736f7273000000000000000000000000000000815250602001915050602060405180830381600087803b1580156111d257600080fd5b505af11580156111e6573d6000803e3d6000fd5b505050506040513d60208110156111fc57600080fd5b810190808051906020019092919050505073ffffffffffffffffffffffffffffffffffffffff163373ffffffffffffffffffffffffffffffffffffffff1614151561124657600080fd5b61129881600260008573ffffffffffffffffffffffffffffffffffffffff1673ffffffffffffffffffffffffffffffffffffffff168152602001908152602001600020546122f590919063ffffffff16565b600260008473ffffffffffffffffffffffffffffffffffffffff1673ffffffffffffffffffffffffffffffffffffffff1681526020019081526020016000208190555061132d81600160008573ffffffffffffffffffffffffffffffffffffffff1673ffffffffffffffffffffffffffffffffffffffff1681526020019081526020016000205461231690919063ffffffff16565b600160008473ffffffffffffffffffffffffffffffffffffffff1673ffffffffffffffffffffffffffffffffffffffff168152602001908152602001600020819055508173ffffffffffffffffffffffffffffffffffffffff167fc877600320253fb6b4b587ac8152001a2d225c8bcc3737923e85ff6b2e01c0db600083604051808373ffffffffffffffffffffffffffffffffffffffff1673ffffffffffffffffffffffffffffffffffffffff1681526020018281526020019250505060405180910390a25050565b6000809054906101000a900473ffffffffffffffffffffffffffffffffffffffff1681565b6000809054906101000a900473ffffffffffffffffffffffffffffffffffffffff1673ffffffffffffffffffffffffffffffffffffffff1663b319c9e46040518163ffffffff167c01000000000000000000000000000000000000000000000000000000000281526004018080602001828103825260118152602001807f526f636b506170657253636973736f7273000000000000000000000000000000815250602001915050602060405180830381600087803b1580156114dd57600080fd5b505af11580156114f1573d6000803e3d6000fd5b505050506040513d602081101561150757600080fd5b810190808051906020019092919050505073ffffffffffffffffffffffffffffffffffffffff163373ffffffffffffffffffffffffffffffffffffffff1614151561155157600080fd5b6115e081600360008673ffffffffffffffffffffffffffffffffffffffff1673ffffffffffffffffffffffffffffffffffffffff16815260200190815260200160002060008573ffffffffffffffffffffffffffffffffffffffff1673ffffffffffffffffffffffffffffffffffffffff168152602001908152602001600020546122f590919063ffffffff16565b600360008573ffffffffffffffffffffffffffffffffffffffff1673ffffffffffffffffffffffffffffffffffffffff16815260200190815260200160002060008473ffffffffffffffffffffffffffffffffffffffff1673ffffffffffffffffffffffffffffffffffffffff168152602001908152602001600020819055506116ef81600460008673ffffffffffffffffffffffffffffffffffffffff1673ffffffffffffffffffffffffffffffffffffffff16815260200190815260200160002060008573ffffffffffffffffffffffffffffffffffffffff1673ffffffffffffffffffffffffffffffffffffffff1681526020019081526020016000205461231690919063ffffffff16565b600460008573ffffffffffffffffffffffffffffffffffffffff1673ffffffffffffffffffffffffffffffffffffffff16815260200190815260200160002060008473ffffffffffffffffffffffffffffffffffffffff1673ffffffffffffffffffffffffffffffffffffffff168152602001908152602001600020819055508273ffffffffffffffffffffffffffffffffffffffff167f5aabe59a94326cbf612b52ddc5ffd665415ed13728203f670d72f07d6dd5db948383604051808373ffffffffffffffffffffffffffffffffffffffff1673ffffffffffffffffffffffffffffffffffffffff1681526020018281526020019250505060405180910390a2505050565b60003411151561180557600080fd5b61185734600160003373ffffffffffffffffffffffffffffffffffffffff1673ffffffffffffffffffffffffffffffffffffffff1681526020019081526020016000205461231690919063ffffffff16565b600160003373ffffffffffffffffffffffffffffffffffffffff1673ffffffffffffffffffffffffffffffffffffffff168152602001908152602001600020819055503373ffffffffffffffffffffffffffffffffffffffff167ff0d0e99cae184d0187b093b48894117462462379674a6e11d89c3fbb618e96b0600034604051808373ffffffffffffffffffffffffffffffffffffffff1673ffffffffffffffffffffffffffffffffffffffff1681526020018281526020019250505060405180910390a2565b60026020528060005260406000206000915090505481565b6000809054906101000a900473ffffffffffffffffffffffffffffffffffffffff1673ffffffffffffffffffffffffffffffffffffffff1663b319c9e46040518163ffffffff167c01000000000000000000000000000000000000000000000000000000000281526004018080602001828103825260118152602001807f526f636b506170657253636973736f7273000000000000000000000000000000815250602001915050602060405180830381600087803b1580156119f857600080fd5b505af1158015611a0c573d6000803e3d6000fd5b505050506040513d6020811015611a2257600080fd5b810190808051906020019092919050505073ffffffffffffffffffffffffffffffffffffffff163373ffffffffffffffffffffffffffffffffffffffff16141515611a6c57600080fd5b611abe81600260008673ffffffffffffffffffffffffffffffffffffffff1673ffffffffffffffffffffffffffffffffffffffff168152602001908152602001600020546122f590919063ffffffff16565b600260008573ffffffffffffffffffffffffffffffffffffffff1673ffffffffffffffffffffffffffffffffffffffff16815260200190815260200160002081905550611b5381600160008573ffffffffffffffffffffffffffffffffffffffff1673ffffffffffffffffffffffffffffffffffffffff1681526020019081526020016000205461231690919063ffffffff16565b600160008473ffffffffffffffffffffffffffffffffffffffff1673ffffffffffffffffffffffffffffffffffffffff168152602001908152602001600020819055508173ffffffffffffffffffffffffffffffffffffffff168373ffffffffffffffffffffffffffffffffffffffff167fe0f4ea6a918e93adb89b0f0bb9c18ee364aa4248b64ef5c401eea8742d6a6307600084604051808373ffffffffffffffffffffffffffffffffffffffff1673ffffffffffffffffffffffffffffffffffffffff1681526020018281526020019250505060405180910390a3505050565b6000809054906101000a900473ffffffffffffffffffffffffffffffffffffffff1673ffffffffffffffffffffffffffffffffffffffff1663b319c9e46040518163ffffffff167c01000000000000000000000000000000000000000000000000000000000281526004018080602001828103825260118152602001807f526f636b506170657253636973736f7273000000000000000000000000000000815250602001915050602060405180830381600087803b158015611cf657600080fd5b505af1158015611d0a573d6000803e3d6000fd5b505050506040513d6020811015611d2057600080fd5b810190808051906020019092919050505073ffffffffffffffffffffffffffffffffffffffff163373ffffffffffffffffffffffffffffffffffffffff16141515611d6a57600080fd5b611dbc81600160008573ffffffffffffffffffffffffffffffffffffffff1673ffffffffffffffffffffffffffffffffffffffff168152602001908152602001600020546122f590919063ffffffff16565b600160008473ffffffffffffffffffffffffffffffffffffffff1673ffffffffffffffffffffffffffffffffffffffff16815260200190815260200160002081905550611e5181600260008573ffffffffffffffffffffffffffffffffffffffff1673ffffffffffffffffffffffffffffffffffffffff1681526020019081526020016000205461231690919063ffffffff16565b600260008473ffffffffffffffffffffffffffffffffffffffff1673ffffffffffffffffffffffffffffffffffffffff168152602001908152602001600020819055508173ffffffffffffffffffffffffffffffffffffffff167f5aabe59a94326cbf612b52ddc5ffd665415ed13728203f670d72f07d6dd5db94600083604051808373ffffffffffffffffffffffffffffffffffffffff1673ffffffffffffffffffffffffffffffffffffffff1681526020018281526020019250505060405180910390a25050565b6000809054906101000a900473ffffffffffffffffffffffffffffffffffffffff1673ffffffffffffffffffffffffffffffffffffffff1663b319c9e46040518163ffffffff167c01000000000000000000000000000000000000000000000000000000000281526004018080602001828103825260118152602001807f526f636b506170657253636973736f7273000000000000000000000000000000815250602001915050602060405180830381600087803b158015611fdc57600080fd5b505af1158015611ff0573d6000803e3d6000fd5b505050506040513d602081101561200657600080fd5b810190808051906020019092919050505073ffffffffffffffffffffffffffffffffffffffff163373ffffffffffffffffffffffffffffffffffffffff1614151561205057600080fd5b6120df81600460008673ffffffffffffffffffffffffffffffffffffffff1673ffffffffffffffffffffffffffffffffffffffff16815260200190815260200160002060008573ffffffffffffffffffffffffffffffffffffffff1673ffffffffffffffffffffffffffffffffffffffff168152602001908152602001600020546122f590919063ffffffff16565b600460008573ffffffffffffffffffffffffffffffffffffffff1673ffffffffffffffffffffffffffffffffffffffff16815260200190815260200160002060008473ffffffffffffffffffffffffffffffffffffffff1673ffffffffffffffffffffffffffffffffffffffff168152602001908152602001600020819055506121ee81600360008673ffffffffffffffffffffffffffffffffffffffff1673ffffffffffffffffffffffffffffffffffffffff16815260200190815260200160002060008573ffffffffffffffffffffffffffffffffffffffff1673ffffffffffffffffffffffffffffffffffffffff1681526020019081526020016000205461231690919063ffffffff16565b600360008573ffffffffffffffffffffffffffffffffffffffff1673ffffffffffffffffffffffffffffffffffffffff16815260200190815260200160002060008473ffffffffffffffffffffffffffffffffffffffff1673ffffffffffffffffffffffffffffffffffffffff168152602001908152602001600020819055508273ffffffffffffffffffffffffffffffffffffffff167fc877600320253fb6b4b587ac8152001a2d225c8bcc3737923e85ff6b2e01c0db8383604051808373ffffffffffffffffffffffffffffffffffffffff1673ffffffffffffffffffffffffffffffffffffffff1681526020018281526020019250505060405180910390a2505050565b60008083831115151561230757600080fd5b82840390508091505092915050565b600080828401905083811015151561232d57600080fd5b80915050929150505600a165627a7a72305820a8b8e15cb128cf2071a303aa9d1a637c23858395be99d8e0805c5ebe16e3197b0029",
  "source": "pragma solidity ^0.4.24;\n\nimport \"openzeppelin-solidity/contracts/math/SafeMath.sol\";\nimport \"openzeppelin-solidity/contracts/token/ERC20/IERC20.sol\";\nimport \"./interfaces/IRegistry.sol\";\n\n\ncontract Bank {\n  using SafeMath for uint256;\n\n  IRegistry public registry;\n\n  mapping(address => uint256) public etherBalanceOf;\n  mapping(address => uint256) public allocatedEtherOf;\n\n  // tokenAddress => userAddress => deposit\n  mapping(address => mapping(address => uint256)) public tokenBalanceOf;\n  mapping(address => mapping(address => uint256)) public allocatedTokensOf;\n\n  event FundsDeposited(\n    address indexed depositer,\n    address tokenAddress,\n    uint256 value\n  );\n\n  event FundsAllocated(\n    address indexed fundsOwner,\n    address tokenAddress,\n    uint256 value\n  );\n\n  event FundsDeAllocated(\n    address indexed fundsOwner,\n    address tokenAddress,\n    uint256 value\n  );\n\n  event FundsTransferred(\n    address indexed from,\n    address indexed to,\n    address tokenAddress,\n    uint256 value\n  );\n\n  event FundsWithdrawn(\n    address indexed fundsOwner,\n    address tokenAddress,\n    uint256 value\n  );\n\n  modifier onlyRps() {\n    require(msg.sender == registry.getEntry(\"RockPaperScissors\"));\n\n    _;\n  }\n\n  function isContract(address _address)\n    private\n    view\n    returns (bool)\n  {\n    uint256 _size;\n    assembly { _size := extcodesize(_address) }\n    return _size > 0;\n  }\n\n  constructor(\n    address _registryAddress\n  )\n    public\n  {\n    require(isContract(_registryAddress));\n    registry = IRegistry(_registryAddress);\n  }\n\n  function allocateEtherOf(\n    address _fundsOwner,\n    uint256 _value\n  )\n    external\n    onlyRps\n  {\n    etherBalanceOf[_fundsOwner] = etherBalanceOf[_fundsOwner]\n      .sub(_value);\n    allocatedEtherOf[_fundsOwner] = allocatedEtherOf[_fundsOwner]\n      .add(_value);\n\n    emit FundsAllocated(_fundsOwner, address(0), _value);\n  }\n\n  function allocateTokensOf(\n    address _fundsOwner,\n    address _tokenAddress,\n    uint256 _value\n  )\n    external\n    onlyRps\n  {\n    tokenBalanceOf[_fundsOwner][_tokenAddress] = tokenBalanceOf[_fundsOwner][_tokenAddress]\n      .sub(_value);\n    allocatedTokensOf[_fundsOwner][_tokenAddress] = allocatedTokensOf[_fundsOwner][_tokenAddress]\n      .add(_value);\n\n    emit FundsAllocated(_fundsOwner, _tokenAddress, _value);\n  }\n\n  function deAllocateEtherOf(\n    address _fundsOwner,\n    uint256 _value\n  )\n    external\n    onlyRps\n  {\n    allocatedEtherOf[_fundsOwner] = allocatedEtherOf[_fundsOwner]\n      .sub(_value);\n    etherBalanceOf[_fundsOwner] = etherBalanceOf[_fundsOwner]\n      .add(_value);\n\n    emit FundsDeAllocated(_fundsOwner, address(0), _value);\n  }\n\n  function deAllocateTokensOf(\n    address _fundsOwner,\n    address _tokenAddress,\n    uint256 _value\n  )\n    external\n    onlyRps\n  {\n    allocatedTokensOf[_fundsOwner][_tokenAddress] = allocatedTokensOf[_fundsOwner][_tokenAddress]\n      .sub(_value);\n    tokenBalanceOf[_fundsOwner][_tokenAddress] = tokenBalanceOf[_fundsOwner][_tokenAddress]\n      .add(_value);\n\n    emit FundsDeAllocated(_fundsOwner, _tokenAddress, _value);\n  }\n\n  function transferAllocatedEtherOf(\n    address _fundsOwner,\n    address _recipient,\n    uint256 _value\n  )\n    external\n    onlyRps\n  {\n    allocatedEtherOf[_fundsOwner] = allocatedEtherOf[_fundsOwner].sub(_value);\n    etherBalanceOf[_recipient] = etherBalanceOf[_recipient].add(_value);\n\n    emit FundsTransferred(_fundsOwner, _recipient, address(0), _value);\n  }\n\n  function transferAllocatedTokensOf(\n    address _fundsOwner,\n    address _tokenAddress,\n    address _recipient,\n    uint256 _value\n  )\n    external\n    onlyRps\n  {\n    allocatedTokensOf[_fundsOwner][_tokenAddress] = allocatedTokensOf[_fundsOwner][_tokenAddress]\n      .sub(_value);\n    tokenBalanceOf[_recipient][_tokenAddress] = tokenBalanceOf[_recipient][_tokenAddress]\n      .add(_value);\n\n    emit FundsTransferred(_fundsOwner, _recipient, _tokenAddress, _value);\n  }\n\n  function depositEther()\n    public\n    payable\n  {\n    require(msg.value > 0);\n\n    etherBalanceOf[msg.sender] = etherBalanceOf[msg.sender].add(msg.value);\n\n    emit FundsDeposited(msg.sender, address(0), msg.value);\n  }\n\n  function withdrawEther(\n    uint256 _value\n  )\n    public\n  {\n    require(_value > 0);\n\n    etherBalanceOf[msg.sender] = etherBalanceOf[msg.sender].sub(_value);\n    msg.sender.transfer(_value);\n\n    emit FundsWithdrawn(msg.sender, address(0), _value);\n  }\n\n  function depositTokens(\n    address _tokenAddress,\n    uint256 _value\n  )\n    external\n  {\n    require(_value > 0);\n\n    tokenBalanceOf[msg.sender][_tokenAddress] = tokenBalanceOf[msg.sender][_tokenAddress]\n      .add(_value);\n    IERC20(_tokenAddress).transferFrom(msg.sender, address(this), _value);\n\n    emit FundsDeposited(msg.sender, _tokenAddress, _value);\n  }\n\n  function withdrawTokens(\n    address _tokenAddress,\n    uint256 _value\n  )\n    external\n  {\n    require(_value > 0);\n\n    tokenBalanceOf[msg.sender][_tokenAddress] = tokenBalanceOf[msg.sender][_tokenAddress]\n      .sub(_value);\n    IERC20(_tokenAddress).transfer(msg.sender, _value);\n\n    emit FundsWithdrawn(msg.sender, _tokenAddress, _value);\n  }\n}",
  "sourcePath": "/Users/tovarishfin/dev/personal/rps/contracts/Bank.sol",
  "compiler": {
    "name": "solc",
    "version": "0.4.24+commit.e67f0147.Emscripten.clang"
  },
  "schemaVersion": "2.0.1",
  "updatedAt": "2018-11-25T21:27:37.393Z"
}