{
  "contractName": "Bank",
  "abi": [
    {
      "constant": true,
      "inputs": [
        {
          "name": "",
          "type": "address"
        },
        {
          "name": "",
          "type": "address"
        }
      ],
      "name": "tokenBalanceOf",
      "outputs": [
        {
          "name": "",
          "type": "uint256"
        }
      ],
      "payable": false,
      "stateMutability": "view",
      "type": "function",
      "signature": "0x1bea8006"
    },
    {
      "constant": true,
      "inputs": [
        {
          "name": "",
          "type": "address"
        },
        {
          "name": "",
          "type": "uint256"
        }
      ],
      "name": "tokenUsageOf",
      "outputs": [
        {
          "name": "",
          "type": "address"
        }
      ],
      "payable": false,
      "stateMutability": "view",
      "type": "function",
      "signature": "0x3cb3f745"
    },
    {
      "constant": true,
      "inputs": [],
      "name": "weth",
      "outputs": [
        {
          "name": "",
          "type": "address"
        }
      ],
      "payable": false,
      "stateMutability": "view",
      "type": "function",
      "signature": "0x3fc8cef3"
    },
    {
      "constant": true,
      "inputs": [
        {
          "name": "",
          "type": "address"
        },
        {
          "name": "",
          "type": "address"
        }
      ],
      "name": "allocatedTokensOf",
      "outputs": [
        {
          "name": "",
          "type": "uint256"
        }
      ],
      "payable": false,
      "stateMutability": "view",
      "type": "function",
      "signature": "0x53eda2c1"
    },
    {
      "constant": true,
      "inputs": [
        {
          "name": "",
          "type": "address"
        },
        {
          "name": "",
          "type": "address"
        }
      ],
      "name": "tokenUsageIndex",
      "outputs": [
        {
          "name": "",
          "type": "uint256"
        }
      ],
      "payable": false,
      "stateMutability": "view",
      "type": "function",
      "signature": "0x5c6fdb66"
    },
    {
      "constant": true,
      "inputs": [],
      "name": "registry",
      "outputs": [
        {
          "name": "",
          "type": "address"
        }
      ],
      "payable": false,
      "stateMutability": "view",
      "type": "function",
      "signature": "0x7b103999"
    },
    {
      "inputs": [
        {
          "name": "_registryAddress",
          "type": "address"
        },
        {
          "name": "_wethAddress",
          "type": "address"
        }
      ],
      "payable": false,
      "stateMutability": "nonpayable",
      "type": "constructor",
      "signature": "constructor"
    },
    {
      "payable": true,
      "stateMutability": "payable",
      "type": "fallback"
    },
    {
      "anonymous": false,
      "inputs": [
        {
          "indexed": true,
          "name": "depositor",
          "type": "address"
        },
        {
          "indexed": false,
          "name": "tokenAddress",
          "type": "address"
        },
        {
          "indexed": false,
          "name": "value",
          "type": "uint256"
        }
      ],
      "name": "FundsDeposited",
      "type": "event",
      "signature": "0xf0d0e99cae184d0187b093b48894117462462379674a6e11d89c3fbb618e96b0"
    },
    {
      "anonymous": false,
      "inputs": [
        {
          "indexed": true,
          "name": "fundsOwner",
          "type": "address"
        },
        {
          "indexed": false,
          "name": "tokenAddress",
          "type": "address"
        },
        {
          "indexed": false,
          "name": "value",
          "type": "uint256"
        }
      ],
      "name": "FundsAllocated",
      "type": "event",
      "signature": "0x5aabe59a94326cbf612b52ddc5ffd665415ed13728203f670d72f07d6dd5db94"
    },
    {
      "anonymous": false,
      "inputs": [
        {
          "indexed": true,
          "name": "fundsOwner",
          "type": "address"
        },
        {
          "indexed": false,
          "name": "tokenAddress",
          "type": "address"
        },
        {
          "indexed": false,
          "name": "value",
          "type": "uint256"
        }
      ],
      "name": "FundsDeAllocated",
      "type": "event",
      "signature": "0xc877600320253fb6b4b587ac8152001a2d225c8bcc3737923e85ff6b2e01c0db"
    },
    {
      "anonymous": false,
      "inputs": [
        {
          "indexed": true,
          "name": "from",
          "type": "address"
        },
        {
          "indexed": true,
          "name": "to",
          "type": "address"
        },
        {
          "indexed": false,
          "name": "tokenAddress",
          "type": "address"
        },
        {
          "indexed": false,
          "name": "value",
          "type": "uint256"
        }
      ],
      "name": "FundsTransferred",
      "type": "event",
      "signature": "0xe0f4ea6a918e93adb89b0f0bb9c18ee364aa4248b64ef5c401eea8742d6a6307"
    },
    {
      "anonymous": false,
      "inputs": [
        {
          "indexed": true,
          "name": "fundsOwner",
          "type": "address"
        },
        {
          "indexed": false,
          "name": "tokenAddress",
          "type": "address"
        },
        {
          "indexed": false,
          "name": "value",
          "type": "uint256"
        }
      ],
      "name": "FundsWithdrawn",
      "type": "event",
      "signature": "0xa92ff919b850e4909ab2261d907ef955f11bc1716733a6cbece38d163a69af8a"
    },
    {
      "anonymous": false,
      "inputs": [
        {
          "indexed": true,
          "name": "fundsOwner",
          "type": "address"
        }
      ],
      "name": "TokenUsageUpdated",
      "type": "event",
      "signature": "0x55004e5247c64456dcabade425057b9c9b55a1b1163b1b4476c8fcee315e81eb"
    },
    {
      "constant": true,
      "inputs": [
        {
          "name": "_tokenUser",
          "type": "address"
        }
      ],
      "name": "getAllUsedTokens",
      "outputs": [
        {
          "name": "",
          "type": "address[]"
        }
      ],
      "payable": false,
      "stateMutability": "view",
      "type": "function",
      "signature": "0x53cc10a3"
    },
    {
      "constant": false,
      "inputs": [
        {
          "name": "_recipient",
          "type": "address"
        }
      ],
      "name": "depositEtherFor",
      "outputs": [],
      "payable": true,
      "stateMutability": "payable",
      "type": "function",
      "signature": "0x4faa8a26"
    },
    {
      "constant": false,
      "inputs": [],
      "name": "depositEther",
      "outputs": [],
      "payable": true,
      "stateMutability": "payable",
      "type": "function",
      "signature": "0x98ea5fca"
    },
    {
      "constant": false,
      "inputs": [
        {
          "name": "_value",
          "type": "uint256"
        }
      ],
      "name": "withdrawEther",
      "outputs": [],
      "payable": false,
      "stateMutability": "nonpayable",
      "type": "function",
      "signature": "0x3bed33ce"
    },
    {
      "constant": false,
      "inputs": [
        {
          "name": "_tokenAddress",
          "type": "address"
        },
        {
          "name": "_value",
          "type": "uint256"
        }
      ],
      "name": "depositTokens",
      "outputs": [],
      "payable": false,
      "stateMutability": "nonpayable",
      "type": "function",
      "signature": "0x66168bd7"
    },
    {
      "constant": false,
      "inputs": [
        {
          "name": "_tokenAddress",
          "type": "address"
        },
        {
          "name": "_value",
          "type": "uint256"
        }
      ],
      "name": "withdrawTokens",
      "outputs": [],
      "payable": false,
      "stateMutability": "nonpayable",
      "type": "function",
      "signature": "0x06b091f9"
    },
    {
      "constant": false,
      "inputs": [
        {
          "name": "_fundsOwner",
          "type": "address"
        },
        {
          "name": "_tokenAddress",
          "type": "address"
        },
        {
          "name": "_value",
          "type": "uint256"
        }
      ],
      "name": "allocateTokensOf",
      "outputs": [],
      "payable": false,
      "stateMutability": "nonpayable",
      "type": "function",
      "signature": "0x93cf99e6"
    },
    {
      "constant": false,
      "inputs": [
        {
          "name": "_fundsOwner",
          "type": "address"
        },
        {
          "name": "_tokenAddress",
          "type": "address"
        },
        {
          "name": "_value",
          "type": "uint256"
        }
      ],
      "name": "deAllocateTokensOf",
      "outputs": [],
      "payable": false,
      "stateMutability": "nonpayable",
      "type": "function",
      "signature": "0xdb47b454"
    },
    {
      "constant": false,
      "inputs": [
        {
          "name": "_fundsOwner",
          "type": "address"
        },
        {
          "name": "_tokenAddress",
          "type": "address"
        },
        {
          "name": "_recipient",
          "type": "address"
        },
        {
          "name": "_value",
          "type": "uint256"
        }
      ],
      "name": "transferAllocatedTokensOf",
      "outputs": [],
      "payable": false,
      "stateMutability": "nonpayable",
      "type": "function",
      "signature": "0x6fa8cbc0"
    }
  ],
  "bytecode": "0x60806040523480156200001157600080fd5b50604051604080620027628339810180604052810190808051906020019092919080519060200190929190505050620000598262000114640100000000026401000000009004565b15156200006557600080fd5b6200007f8162000114640100000000026401000000009004565b15156200008b57600080fd5b80600160006101000a81548173ffffffffffffffffffffffffffffffffffffffff021916908373ffffffffffffffffffffffffffffffffffffffff160217905550816000806101000a81548173ffffffffffffffffffffffffffffffffffffffff021916908373ffffffffffffffffffffffffffffffffffffffff160217905550505062000127565b600080823b905060008111915050919050565b61262b80620001376000396000f3006080604052600436106100db576000357c0100000000000000000000000000000000000000000000000000000000900463ffffffff16806306b091f91461013e5780631bea80061461018b5780633bed33ce146102025780633cb3f7451461022f5780633fc8cef3146102bc5780634faa8a261461031357806353cc10a31461034957806353eda2c1146103e15780635c6fdb661461045857806366168bd7146104cf5780636fa8cbc01461051c5780637b103999146105a957806393cf99e61461060057806398ea5fca1461066d578063db47b45414610677575b600160009054906101000a900473ffffffffffffffffffffffffffffffffffffffff1673ffffffffffffffffffffffffffffffffffffffff163373ffffffffffffffffffffffffffffffffffffffff1614151561013c5761013b336106e4565b5b005b34801561014a57600080fd5b50610189600480360381019080803573ffffffffffffffffffffffffffffffffffffffff169060200190929190803590602001909291905050506109b8565b005b34801561019757600080fd5b506101ec600480360381019080803573ffffffffffffffffffffffffffffffffffffffff169060200190929190803573ffffffffffffffffffffffffffffffffffffffff169060200190929190505050610c3b565b6040518082815260200191505060405180910390f35b34801561020e57600080fd5b5061022d60048036038101908080359060200190929190505050610c60565b005b34801561023b57600080fd5b5061027a600480360381019080803573ffffffffffffffffffffffffffffffffffffffff16906020019092919080359060200190929190505050610f85565b604051808273ffffffffffffffffffffffffffffffffffffffff1673ffffffffffffffffffffffffffffffffffffffff16815260200191505060405180910390f35b3480156102c857600080fd5b506102d1610fd2565b604051808273ffffffffffffffffffffffffffffffffffffffff1673ffffffffffffffffffffffffffffffffffffffff16815260200191505060405180910390f35b610347600480360381019080803573ffffffffffffffffffffffffffffffffffffffff1690602001909291905050506106e4565b005b34801561035557600080fd5b5061038a600480360381019080803573ffffffffffffffffffffffffffffffffffffffff169060200190929190505050610ff8565b6040518080602001828103825283818151815260200191508051906020019060200280838360005b838110156103cd5780820151818401526020810190506103b2565b505050509050019250505060405180910390f35b3480156103ed57600080fd5b50610442600480360381019080803573ffffffffffffffffffffffffffffffffffffffff169060200190929190803573ffffffffffffffffffffffffffffffffffffffff1690602001909291905050506110c5565b6040518082815260200191505060405180910390f35b34801561046457600080fd5b506104b9600480360381019080803573ffffffffffffffffffffffffffffffffffffffff169060200190929190803573ffffffffffffffffffffffffffffffffffffffff1690602001909291905050506110ea565b6040518082815260200191505060405180910390f35b3480156104db57600080fd5b5061051a600480360381019080803573ffffffffffffffffffffffffffffffffffffffff1690602001909291908035906020019092919050505061110f565b005b34801561052857600080fd5b506105a7600480360381019080803573ffffffffffffffffffffffffffffffffffffffff169060200190929190803573ffffffffffffffffffffffffffffffffffffffff169060200190929190803573ffffffffffffffffffffffffffffffffffffffff169060200190929190803590602001909291905050506113d0565b005b3480156105b557600080fd5b506105be6117a3565b604051808273ffffffffffffffffffffffffffffffffffffffff1673ffffffffffffffffffffffffffffffffffffffff16815260200191505060405180910390f35b34801561060c57600080fd5b5061066b600480360381019080803573ffffffffffffffffffffffffffffffffffffffff169060200190929190803573ffffffffffffffffffffffffffffffffffffffff169060200190929190803590602001909291905050506117c8565b005b610675611b6f565b005b34801561068357600080fd5b506106e2600480360381019080803573ffffffffffffffffffffffffffffffffffffffff169060200190929190803573ffffffffffffffffffffffffffffffffffffffff16906020019092919080359060200190929190505050611b7a565b005b6000341115156106f357600080fd5b600160009054906101000a900473ffffffffffffffffffffffffffffffffffffffff1673ffffffffffffffffffffffffffffffffffffffff1663d0e30db0346040518263ffffffff167c01000000000000000000000000000000000000000000000000000000000281526004016000604051808303818588803b15801561077957600080fd5b505af115801561078d573d6000803e3d6000fd5b505050505061084334600460008473ffffffffffffffffffffffffffffffffffffffff1673ffffffffffffffffffffffffffffffffffffffff1681526020019081526020016000206000600160009054906101000a900473ffffffffffffffffffffffffffffffffffffffff1673ffffffffffffffffffffffffffffffffffffffff1673ffffffffffffffffffffffffffffffffffffffff16815260200190815260200160002054611f2190919063ffffffff16565b600460008373ffffffffffffffffffffffffffffffffffffffff1673ffffffffffffffffffffffffffffffffffffffff1681526020019081526020016000206000600160009054906101000a900473ffffffffffffffffffffffffffffffffffffffff1673ffffffffffffffffffffffffffffffffffffffff1673ffffffffffffffffffffffffffffffffffffffff1681526020019081526020016000208190555061091133600160009054906101000a900473ffffffffffffffffffffffffffffffffffffffff16611f42565b8073ffffffffffffffffffffffffffffffffffffffff167ff0d0e99cae184d0187b093b48894117462462379674a6e11d89c3fbb618e96b0600160009054906101000a900473ffffffffffffffffffffffffffffffffffffffff1634604051808373ffffffffffffffffffffffffffffffffffffffff1673ffffffffffffffffffffffffffffffffffffffff1681526020018281526020019250505060405180910390a250565b6000811115156109c757600080fd5b610a5681600460003373ffffffffffffffffffffffffffffffffffffffff1673ffffffffffffffffffffffffffffffffffffffff16815260200190815260200160002060008573ffffffffffffffffffffffffffffffffffffffff1673ffffffffffffffffffffffffffffffffffffffff1681526020019081526020016000205461258d90919063ffffffff16565b600460003373ffffffffffffffffffffffffffffffffffffffff1673ffffffffffffffffffffffffffffffffffffffff16815260200190815260200160002060008473ffffffffffffffffffffffffffffffffffffffff1673ffffffffffffffffffffffffffffffffffffffff168152602001908152602001600020819055508173ffffffffffffffffffffffffffffffffffffffff1663a9059cbb33836040518363ffffffff167c0100000000000000000000000000000000000000000000000000000000028152600401808373ffffffffffffffffffffffffffffffffffffffff1673ffffffffffffffffffffffffffffffffffffffff16815260200182815260200192505050602060405180830381600087803b158015610b7957600080fd5b505af1158015610b8d573d6000803e3d6000fd5b505050506040513d6020811015610ba357600080fd5b8101908080519060200190929190505050503373ffffffffffffffffffffffffffffffffffffffff167fa92ff919b850e4909ab2261d907ef955f11bc1716733a6cbece38d163a69af8a8383604051808373ffffffffffffffffffffffffffffffffffffffff1673ffffffffffffffffffffffffffffffffffffffff1681526020018281526020019250505060405180910390a25050565b6004602052816000526040600020602052806000526040600020600091509150505481565b600081111515610c6f57600080fd5b610d2081600460003373ffffffffffffffffffffffffffffffffffffffff1673ffffffffffffffffffffffffffffffffffffffff1681526020019081526020016000206000600160009054906101000a900473ffffffffffffffffffffffffffffffffffffffff1673ffffffffffffffffffffffffffffffffffffffff1673ffffffffffffffffffffffffffffffffffffffff1681526020019081526020016000205461258d90919063ffffffff16565b600460003373ffffffffffffffffffffffffffffffffffffffff1673ffffffffffffffffffffffffffffffffffffffff1681526020019081526020016000206000600160009054906101000a900473ffffffffffffffffffffffffffffffffffffffff1673ffffffffffffffffffffffffffffffffffffffff1673ffffffffffffffffffffffffffffffffffffffff16815260200190815260200160002081905550600160009054906101000a900473ffffffffffffffffffffffffffffffffffffffff1673ffffffffffffffffffffffffffffffffffffffff16632e1a7d4d826040518263ffffffff167c010000000000000000000000000000000000000000000000000000000002815260040180828152602001915050600060405180830381600087803b158015610e5357600080fd5b505af1158015610e67573d6000803e3d6000fd5b505050503373ffffffffffffffffffffffffffffffffffffffff166108fc829081150290604051600060405180830381858888f19350505050158015610eb1573d6000803e3d6000fd5b50610ede33600160009054906101000a900473ffffffffffffffffffffffffffffffffffffffff16611f42565b3373ffffffffffffffffffffffffffffffffffffffff167fa92ff919b850e4909ab2261d907ef955f11bc1716733a6cbece38d163a69af8a600160009054906101000a900473ffffffffffffffffffffffffffffffffffffffff1683604051808373ffffffffffffffffffffffffffffffffffffffff1673ffffffffffffffffffffffffffffffffffffffff1681526020018281526020019250505060405180910390a250565b600260205281600052604060002081815481101515610fa057fe5b906000526020600020016000915091509054906101000a900473ffffffffffffffffffffffffffffffffffffffff1681565b600160009054906101000a900473ffffffffffffffffffffffffffffffffffffffff1681565b6060600260008373ffffffffffffffffffffffffffffffffffffffff1673ffffffffffffffffffffffffffffffffffffffff1681526020019081526020016000208054806020026020016040519081016040528092919081815260200182805480156110b957602002820191906000526020600020905b8160009054906101000a900473ffffffffffffffffffffffffffffffffffffffff1673ffffffffffffffffffffffffffffffffffffffff168152602001906001019080831161106f575b50505050509050919050565b6005602052816000526040600020602052806000526040600020600091509150505481565b6003602052816000526040600020602052806000526040600020600091509150505481565b60008111151561111e57600080fd5b6111ad81600460003373ffffffffffffffffffffffffffffffffffffffff1673ffffffffffffffffffffffffffffffffffffffff16815260200190815260200160002060008573ffffffffffffffffffffffffffffffffffffffff1673ffffffffffffffffffffffffffffffffffffffff16815260200190815260200160002054611f2190919063ffffffff16565b600460003373ffffffffffffffffffffffffffffffffffffffff1673ffffffffffffffffffffffffffffffffffffffff16815260200190815260200160002060008473ffffffffffffffffffffffffffffffffffffffff1673ffffffffffffffffffffffffffffffffffffffff168152602001908152602001600020819055508173ffffffffffffffffffffffffffffffffffffffff166323b872dd3330846040518463ffffffff167c0100000000000000000000000000000000000000000000000000000000028152600401808473ffffffffffffffffffffffffffffffffffffffff1673ffffffffffffffffffffffffffffffffffffffff1681526020018373ffffffffffffffffffffffffffffffffffffffff1673ffffffffffffffffffffffffffffffffffffffff1681526020018281526020019350505050602060405180830381600087803b15801561130457600080fd5b505af1158015611318573d6000803e3d6000fd5b505050506040513d602081101561132e57600080fd5b81019080805190602001909291905050505061134a3383611f42565b3373ffffffffffffffffffffffffffffffffffffffff167ff0d0e99cae184d0187b093b48894117462462379674a6e11d89c3fbb618e96b08383604051808373ffffffffffffffffffffffffffffffffffffffff1673ffffffffffffffffffffffffffffffffffffffff1681526020018281526020019250505060405180910390a25050565b6000809054906101000a900473ffffffffffffffffffffffffffffffffffffffff1673ffffffffffffffffffffffffffffffffffffffff1663c04a7d0d336040518263ffffffff167c0100000000000000000000000000000000000000000000000000000000028152600401808273ffffffffffffffffffffffffffffffffffffffff1673ffffffffffffffffffffffffffffffffffffffff168152602001915050602060405180830381600087803b15801561148c57600080fd5b505af11580156114a0573d6000803e3d6000fd5b505050506040513d60208110156114b657600080fd5b810190808051906020019092919050505015156114d257600080fd5b61156181600560008773ffffffffffffffffffffffffffffffffffffffff1673ffffffffffffffffffffffffffffffffffffffff16815260200190815260200160002060008673ffffffffffffffffffffffffffffffffffffffff1673ffffffffffffffffffffffffffffffffffffffff1681526020019081526020016000205461258d90919063ffffffff16565b600560008673ffffffffffffffffffffffffffffffffffffffff1673ffffffffffffffffffffffffffffffffffffffff16815260200190815260200160002060008573ffffffffffffffffffffffffffffffffffffffff1673ffffffffffffffffffffffffffffffffffffffff1681526020019081526020016000208190555061167081600460008573ffffffffffffffffffffffffffffffffffffffff1673ffffffffffffffffffffffffffffffffffffffff16815260200190815260200160002060008673ffffffffffffffffffffffffffffffffffffffff1673ffffffffffffffffffffffffffffffffffffffff16815260200190815260200160002054611f2190919063ffffffff16565b600460008473ffffffffffffffffffffffffffffffffffffffff1673ffffffffffffffffffffffffffffffffffffffff16815260200190815260200160002060008573ffffffffffffffffffffffffffffffffffffffff1673ffffffffffffffffffffffffffffffffffffffff168152602001908152602001600020819055506116fa8484611f42565b6117048284611f42565b8173ffffffffffffffffffffffffffffffffffffffff168473ffffffffffffffffffffffffffffffffffffffff167fe0f4ea6a918e93adb89b0f0bb9c18ee364aa4248b64ef5c401eea8742d6a63078584604051808373ffffffffffffffffffffffffffffffffffffffff1673ffffffffffffffffffffffffffffffffffffffff1681526020018281526020019250505060405180910390a350505050565b6000809054906101000a900473ffffffffffffffffffffffffffffffffffffffff1681565b6000809054906101000a900473ffffffffffffffffffffffffffffffffffffffff1673ffffffffffffffffffffffffffffffffffffffff1663c04a7d0d336040518263ffffffff167c0100000000000000000000000000000000000000000000000000000000028152600401808273ffffffffffffffffffffffffffffffffffffffff1673ffffffffffffffffffffffffffffffffffffffff168152602001915050602060405180830381600087803b15801561188457600080fd5b505af1158015611898573d6000803e3d6000fd5b505050506040513d60208110156118ae57600080fd5b810190808051906020019092919050505015156118ca57600080fd5b61195981600460008673ffffffffffffffffffffffffffffffffffffffff1673ffffffffffffffffffffffffffffffffffffffff16815260200190815260200160002060008573ffffffffffffffffffffffffffffffffffffffff1673ffffffffffffffffffffffffffffffffffffffff1681526020019081526020016000205461258d90919063ffffffff16565b600460008573ffffffffffffffffffffffffffffffffffffffff1673ffffffffffffffffffffffffffffffffffffffff16815260200190815260200160002060008473ffffffffffffffffffffffffffffffffffffffff1673ffffffffffffffffffffffffffffffffffffffff16815260200190815260200160002081905550611a6881600560008673ffffffffffffffffffffffffffffffffffffffff1673ffffffffffffffffffffffffffffffffffffffff16815260200190815260200160002060008573ffffffffffffffffffffffffffffffffffffffff1673ffffffffffffffffffffffffffffffffffffffff16815260200190815260200160002054611f2190919063ffffffff16565b600560008573ffffffffffffffffffffffffffffffffffffffff1673ffffffffffffffffffffffffffffffffffffffff16815260200190815260200160002060008473ffffffffffffffffffffffffffffffffffffffff1673ffffffffffffffffffffffffffffffffffffffff168152602001908152602001600020819055508273ffffffffffffffffffffffffffffffffffffffff167f5aabe59a94326cbf612b52ddc5ffd665415ed13728203f670d72f07d6dd5db948383604051808373ffffffffffffffffffffffffffffffffffffffff1673ffffffffffffffffffffffffffffffffffffffff1681526020018281526020019250505060405180910390a2505050565b611b78336106e4565b565b6000809054906101000a900473ffffffffffffffffffffffffffffffffffffffff1673ffffffffffffffffffffffffffffffffffffffff1663c04a7d0d336040518263ffffffff167c0100000000000000000000000000000000000000000000000000000000028152600401808273ffffffffffffffffffffffffffffffffffffffff1673ffffffffffffffffffffffffffffffffffffffff168152602001915050602060405180830381600087803b158015611c3657600080fd5b505af1158015611c4a573d6000803e3d6000fd5b505050506040513d6020811015611c6057600080fd5b81019080805190602001909291905050501515611c7c57600080fd5b611d0b81600560008673ffffffffffffffffffffffffffffffffffffffff1673ffffffffffffffffffffffffffffffffffffffff16815260200190815260200160002060008573ffffffffffffffffffffffffffffffffffffffff1673ffffffffffffffffffffffffffffffffffffffff1681526020019081526020016000205461258d90919063ffffffff16565b600560008573ffffffffffffffffffffffffffffffffffffffff1673ffffffffffffffffffffffffffffffffffffffff16815260200190815260200160002060008473ffffffffffffffffffffffffffffffffffffffff1673ffffffffffffffffffffffffffffffffffffffff16815260200190815260200160002081905550611e1a81600460008673ffffffffffffffffffffffffffffffffffffffff1673ffffffffffffffffffffffffffffffffffffffff16815260200190815260200160002060008573ffffffffffffffffffffffffffffffffffffffff1673ffffffffffffffffffffffffffffffffffffffff16815260200190815260200160002054611f2190919063ffffffff16565b600460008573ffffffffffffffffffffffffffffffffffffffff1673ffffffffffffffffffffffffffffffffffffffff16815260200190815260200160002060008473ffffffffffffffffffffffffffffffffffffffff1673ffffffffffffffffffffffffffffffffffffffff168152602001908152602001600020819055508273ffffffffffffffffffffffffffffffffffffffff167fc877600320253fb6b4b587ac8152001a2d225c8bcc3737923e85ff6b2e01c0db8383604051808373ffffffffffffffffffffffffffffffffffffffff1673ffffffffffffffffffffffffffffffffffffffff1681526020018281526020019250505060405180910390a2505050565b6000808284019050838110151515611f3857600080fd5b8091505092915050565b600080600080600460008773ffffffffffffffffffffffffffffffffffffffff1673ffffffffffffffffffffffffffffffffffffffff16815260200190815260200160002060008673ffffffffffffffffffffffffffffffffffffffff1673ffffffffffffffffffffffffffffffffffffffff1681526020019081526020016000205414158061204f57506000600560008773ffffffffffffffffffffffffffffffffffffffff1673ffffffffffffffffffffffffffffffffffffffff16815260200190815260200160002060008673ffffffffffffffffffffffffffffffffffffffff1673ffffffffffffffffffffffffffffffffffffffff1681526020019081526020016000205414155b92506000600360008773ffffffffffffffffffffffffffffffffffffffff1673ffffffffffffffffffffffffffffffffffffffff16815260200190815260200160002060008673ffffffffffffffffffffffffffffffffffffffff1673ffffffffffffffffffffffffffffffffffffffff16815260200190815260200160002054141591508280156120df575081155b1561228e57600260008673ffffffffffffffffffffffffffffffffffffffff1673ffffffffffffffffffffffffffffffffffffffff16815260200190815260200160002080549050600360008773ffffffffffffffffffffffffffffffffffffffff1673ffffffffffffffffffffffffffffffffffffffff16815260200190815260200160002060008673ffffffffffffffffffffffffffffffffffffffff1673ffffffffffffffffffffffffffffffffffffffff16815260200190815260200160002081905550600260008673ffffffffffffffffffffffffffffffffffffffff1673ffffffffffffffffffffffffffffffffffffffff1681526020019081526020016000208490806001815401808255809150509060018203906000526020600020016000909192909190916101000a81548173ffffffffffffffffffffffffffffffffffffffff021916908373ffffffffffffffffffffffffffffffffffffffff160217905550503373ffffffffffffffffffffffffffffffffffffffff167f55004e5247c64456dcabade425057b9c9b55a1b1163b1b4476c8fcee315e81eb60405160405180910390a25b821580156122995750815b1561258657600360008673ffffffffffffffffffffffffffffffffffffffff1673ffffffffffffffffffffffffffffffffffffffff16815260200190815260200160002060008573ffffffffffffffffffffffffffffffffffffffff1673ffffffffffffffffffffffffffffffffffffffff168152602001908152602001600020549050600260008673ffffffffffffffffffffffffffffffffffffffff1673ffffffffffffffffffffffffffffffffffffffff1681526020019081526020016000206001600260008873ffffffffffffffffffffffffffffffffffffffff1673ffffffffffffffffffffffffffffffffffffffff16815260200190815260200160002080549050038154811015156123ae57fe5b9060005260206000200160009054906101000a900473ffffffffffffffffffffffffffffffffffffffff16600260008773ffffffffffffffffffffffffffffffffffffffff1673ffffffffffffffffffffffffffffffffffffffff1681526020019081526020016000208281548110151561242557fe5b9060005260206000200160006101000a81548173ffffffffffffffffffffffffffffffffffffffff021916908373ffffffffffffffffffffffffffffffffffffffff160217905550600260008673ffffffffffffffffffffffffffffffffffffffff1673ffffffffffffffffffffffffffffffffffffffff1681526020019081526020016000208054809190600190036124bf91906125ae565b506000600360008773ffffffffffffffffffffffffffffffffffffffff1673ffffffffffffffffffffffffffffffffffffffff16815260200190815260200160002060008673ffffffffffffffffffffffffffffffffffffffff1673ffffffffffffffffffffffffffffffffffffffff168152602001908152602001600020819055503373ffffffffffffffffffffffffffffffffffffffff167f55004e5247c64456dcabade425057b9c9b55a1b1163b1b4476c8fcee315e81eb60405160405180910390a25b5050505050565b60008083831115151561259f57600080fd5b82840390508091505092915050565b8154818355818111156125d5578183600052602060002091820191016125d491906125da565b5b505050565b6125fc91905b808211156125f85760008160009055506001016125e0565b5090565b905600a165627a7a72305820910ff6c6b17bea96aa6f7b1725029c3df3375b666ef9eb9b3ffc939631c0ac5b0029",
  "source": "pragma solidity ^0.4.25;\n\n// interfaces\nimport \"./interfaces/IRegistry.sol\";\nimport \"./interfaces/IWrappedEther.sol\";\nimport \"openzeppelin-solidity/contracts/token/ERC20/IERC20.sol\";\n// libraries\nimport \"openzeppelin-solidity/contracts/math/SafeMath.sol\";\n\ncontract Bank {\n  using SafeMath for uint256;\n\n  IRegistry public registry;\n  IWrappedEther public weth;\n\n  mapping(address => address[]) public tokenUsageOf;\n  // userAddress => tokenAddress => value\n  mapping(address => mapping(address => uint256)) public tokenUsageIndex;\n  mapping(address => mapping(address => uint256)) public tokenBalanceOf;\n  mapping(address => mapping(address => uint256)) public allocatedTokensOf;\n\n  event FundsDeposited(\n    address indexed depositor,\n    address tokenAddress,\n    uint256 value\n  );\n\n  event FundsAllocated(\n    address indexed fundsOwner,\n    address tokenAddress,\n    uint256 value\n  );\n\n  event FundsDeAllocated(\n    address indexed fundsOwner,\n    address tokenAddress,\n    uint256 value\n  );\n\n  event FundsTransferred(\n    address indexed from,\n    address indexed to,\n    address tokenAddress,\n    uint256 value\n  );\n\n  event FundsWithdrawn(\n    address indexed fundsOwner,\n    address tokenAddress,\n    uint256 value\n  );\n\n  event TokenUsageUpdated(\n    address indexed fundsOwner\n  );\n\n  modifier onlyGameContract() {\n    require(registry.isGameContract(msg.sender));\n\n    _;\n  }\n\n  function updateTokenUsage(\n    address _fundsOwner,\n    address _tokenAddress\n  )\n    private\n  {\n    bool _currentlyUsing = tokenBalanceOf[_fundsOwner][_tokenAddress] != 0\n      || allocatedTokensOf[_fundsOwner][_tokenAddress] != 0;\n\n    bool _usageTracked = tokenUsageIndex[_fundsOwner][_tokenAddress] != 0;\n\n    if (_currentlyUsing && !_usageTracked) {\n      tokenUsageIndex[_fundsOwner][_tokenAddress] = tokenUsageOf[_fundsOwner].length;\n      tokenUsageOf[_fundsOwner].push(_tokenAddress);\n\n      emit TokenUsageUpdated(msg.sender);\n    }\n\n    if (!_currentlyUsing && _usageTracked) {\n      uint256 _index = tokenUsageIndex[_fundsOwner][_tokenAddress];\n      tokenUsageOf[_fundsOwner][_index] = tokenUsageOf[_fundsOwner][tokenUsageOf[_fundsOwner].length - 1];\n      tokenUsageOf[_fundsOwner].length--;\n\n      tokenUsageIndex[_fundsOwner][_tokenAddress] = 0;\n\n      emit TokenUsageUpdated(msg.sender);\n    }\n  }\n\n  function isContract(\n    address _address\n  )\n    private\n    view\n    returns (bool)\n  {\n    uint256 _size;\n    assembly { _size := extcodesize(_address) }\n    return _size > 0;\n  }\n\n  constructor(\n    address _registryAddress,\n    address _wethAddress\n  )\n    public\n  {\n    require(isContract(_registryAddress));\n    require(isContract(_wethAddress));\n    weth = IWrappedEther(_wethAddress);\n    registry = IRegistry(_registryAddress);\n  }\n\n  function getAllUsedTokens(\n    address _tokenUser\n  )\n    external\n    view\n    returns (address[])\n  {\n    return tokenUsageOf[_tokenUser];\n  }\n\n  function depositEtherFor(\n    address _recipient\n  )\n    public\n    payable\n  {\n    require(msg.value > 0);\n    weth.deposit.value(msg.value)();\n    tokenBalanceOf[_recipient][address(weth)] = tokenBalanceOf[_recipient][address(weth)]\n      .add(msg.value);\n\n    updateTokenUsage(msg.sender, address(weth));\n\n    emit FundsDeposited(_recipient, address(weth), msg.value);\n  }\n\n  function depositEther()\n    external\n    payable\n  {\n    depositEtherFor(msg.sender);\n  }\n\n  function withdrawEther(\n    uint256 _value\n  )\n    external\n  {\n    require(_value > 0);\n    tokenBalanceOf[msg.sender][address(weth)] = tokenBalanceOf[msg.sender][address(weth)]\n      .sub(_value);\n    weth.withdraw(_value);\n    msg.sender.transfer(_value);\n\n    updateTokenUsage(msg.sender, address(weth));\n\n    emit FundsWithdrawn(msg.sender, address(weth), _value);\n  }\n\n  function depositTokens(\n    address _tokenAddress,\n    uint256 _value\n  )\n    external\n  {\n    require(_value > 0);\n\n    tokenBalanceOf[msg.sender][_tokenAddress] = tokenBalanceOf[msg.sender][_tokenAddress]\n      .add(_value);\n    IERC20(_tokenAddress).transferFrom(msg.sender, address(this), _value);\n\n    updateTokenUsage(msg.sender, _tokenAddress);\n    \n    emit FundsDeposited(msg.sender, _tokenAddress, _value);\n  }\n\n  function withdrawTokens(\n    address _tokenAddress,\n    uint256 _value\n  )\n    external\n  {\n    require(_value > 0);\n\n    tokenBalanceOf[msg.sender][_tokenAddress] = tokenBalanceOf[msg.sender][_tokenAddress]\n      .sub(_value);\n    IERC20(_tokenAddress).transfer(msg.sender, _value);\n\n    emit FundsWithdrawn(msg.sender, _tokenAddress, _value);\n  }\n\n  function allocateTokensOf(\n    address _fundsOwner,\n    address _tokenAddress,\n    uint256 _value\n  )\n    external\n    onlyGameContract\n  {\n    tokenBalanceOf[_fundsOwner][_tokenAddress] = tokenBalanceOf[_fundsOwner][_tokenAddress]\n      .sub(_value);\n    allocatedTokensOf[_fundsOwner][_tokenAddress] = allocatedTokensOf[_fundsOwner][_tokenAddress]\n      .add(_value);\n\n    emit FundsAllocated(_fundsOwner, _tokenAddress, _value);\n  }\n\n  function deAllocateTokensOf(\n    address _fundsOwner,\n    address _tokenAddress,\n    uint256 _value\n  )\n    external\n    onlyGameContract\n  {\n    allocatedTokensOf[_fundsOwner][_tokenAddress] = allocatedTokensOf[_fundsOwner][_tokenAddress]\n      .sub(_value);\n    tokenBalanceOf[_fundsOwner][_tokenAddress] = tokenBalanceOf[_fundsOwner][_tokenAddress]\n      .add(_value);\n\n    emit FundsDeAllocated(_fundsOwner, _tokenAddress, _value);\n  }\n\n  function transferAllocatedTokensOf(\n    address _fundsOwner,\n    address _tokenAddress,\n    address _recipient,\n    uint256 _value\n  )\n    external\n    onlyGameContract\n  {\n    allocatedTokensOf[_fundsOwner][_tokenAddress] = allocatedTokensOf[_fundsOwner][_tokenAddress]\n      .sub(_value);\n    tokenBalanceOf[_recipient][_tokenAddress] = tokenBalanceOf[_recipient][_tokenAddress]\n      .add(_value);\n\n    updateTokenUsage(_fundsOwner, _tokenAddress);\n    updateTokenUsage(_recipient, _tokenAddress);\n\n    emit FundsTransferred(_fundsOwner, _recipient, _tokenAddress, _value);\n  }\n\n  function()\n    external\n    payable\n  {\n    if (msg.sender != address(weth)) {\n      depositEtherFor(msg.sender);\n    }\n  }\n}",
  "sourcePath": "/Users/tovarishfin/dev/personal/rps/contracts/Bank.sol",
  "compiler": {
    "name": "solc",
    "version": "0.4.25+commit.59dbf8f1.Emscripten.clang"
  },
  "schemaVersion": "3.0.0",
  "updatedAt": "2018-12-31T00:26:15.474Z",
  "devdoc": {
    "methods": {}
  },
  "userdoc": {
    "methods": {}
  }
}