{
  "contractName": "Referrals",
  "abi": [
    {
      "constant": true,
      "inputs": [],
      "name": "initialized",
      "outputs": [
        {
          "name": "",
          "type": "bool"
        }
      ],
      "payable": false,
      "stateMutability": "view",
      "type": "function",
      "signature": "0x158ef93e"
    },
    {
      "constant": true,
      "inputs": [],
      "name": "rpsManagement",
      "outputs": [
        {
          "name": "",
          "type": "address"
        }
      ],
      "payable": false,
      "stateMutability": "view",
      "type": "function",
      "signature": "0x3721c9d7"
    },
    {
      "constant": false,
      "inputs": [],
      "name": "renounceOwnership",
      "outputs": [],
      "payable": false,
      "stateMutability": "nonpayable",
      "type": "function",
      "signature": "0x715018a6"
    },
    {
      "constant": true,
      "inputs": [],
      "name": "registry",
      "outputs": [
        {
          "name": "",
          "type": "address"
        }
      ],
      "payable": false,
      "stateMutability": "view",
      "type": "function",
      "signature": "0x7b103999"
    },
    {
      "constant": true,
      "inputs": [],
      "name": "owner",
      "outputs": [
        {
          "name": "",
          "type": "address"
        }
      ],
      "payable": false,
      "stateMutability": "view",
      "type": "function",
      "signature": "0x8da5cb5b"
    },
    {
      "constant": true,
      "inputs": [],
      "name": "isOwner",
      "outputs": [
        {
          "name": "",
          "type": "bool"
        }
      ],
      "payable": false,
      "stateMutability": "view",
      "type": "function",
      "signature": "0x8f32d59b"
    },
    {
      "constant": true,
      "inputs": [
        {
          "name": "",
          "type": "address"
        }
      ],
      "name": "referredBy",
      "outputs": [
        {
          "name": "",
          "type": "address"
        }
      ],
      "payable": false,
      "stateMutability": "view",
      "type": "function",
      "signature": "0xa90f8e9a"
    },
    {
      "constant": false,
      "inputs": [
        {
          "name": "_rpsCore",
          "type": "address"
        }
      ],
      "name": "upgradeRockPaperScissorsCore",
      "outputs": [
        {
          "name": "",
          "type": "bool"
        }
      ],
      "payable": false,
      "stateMutability": "nonpayable",
      "type": "function",
      "signature": "0xc1ef8f60"
    },
    {
      "constant": false,
      "inputs": [
        {
          "name": "_rpsManagement",
          "type": "address"
        }
      ],
      "name": "upgradeRockPaperScissorsManagement",
      "outputs": [
        {
          "name": "",
          "type": "bool"
        }
      ],
      "payable": false,
      "stateMutability": "nonpayable",
      "type": "function",
      "signature": "0xeed6a925"
    },
    {
      "constant": false,
      "inputs": [
        {
          "name": "newOwner",
          "type": "address"
        }
      ],
      "name": "transferOwnership",
      "outputs": [],
      "payable": false,
      "stateMutability": "nonpayable",
      "type": "function",
      "signature": "0xf2fde38b"
    },
    {
      "constant": true,
      "inputs": [],
      "name": "rpsCore",
      "outputs": [
        {
          "name": "",
          "type": "address"
        }
      ],
      "payable": false,
      "stateMutability": "view",
      "type": "function",
      "signature": "0xfab0e95e"
    },
    {
      "anonymous": false,
      "inputs": [
        {
          "indexed": false,
          "name": "upgradedFrom",
          "type": "address"
        },
        {
          "indexed": false,
          "name": "upgradedTo",
          "type": "address"
        }
      ],
      "name": "ProxyUpgraded",
      "type": "event",
      "signature": "0x3684250ce1e33b790ed973c23080f312db0adb21a6d98c61a5c9ff99e4babc17"
    },
    {
      "anonymous": false,
      "inputs": [
        {
          "indexed": true,
          "name": "previousOwner",
          "type": "address"
        },
        {
          "indexed": true,
          "name": "newOwner",
          "type": "address"
        }
      ],
      "name": "OwnershipTransferred",
      "type": "event",
      "signature": "0x8be0079c531659141344cd1fd0a4f28419497f9722a3daafe3b4186f6b6457e0"
    },
    {
      "constant": false,
      "inputs": [
        {
          "name": "_registry",
          "type": "address"
        }
      ],
      "name": "initialize",
      "outputs": [],
      "payable": false,
      "stateMutability": "nonpayable",
      "type": "function",
      "signature": "0xc4d66de8"
    },
    {
      "constant": false,
      "inputs": [
        {
          "name": "_referee",
          "type": "address"
        },
        {
          "name": "_referrer",
          "type": "address"
        }
      ],
      "name": "setReferral",
      "outputs": [],
      "payable": false,
      "stateMutability": "nonpayable",
      "type": "function",
      "signature": "0x7543e3f0"
    },
    {
      "constant": true,
      "inputs": [
        {
          "name": "_referee",
          "type": "address"
        }
      ],
      "name": "getReferral",
      "outputs": [
        {
          "name": "",
          "type": "address"
        }
      ],
      "payable": false,
      "stateMutability": "view",
      "type": "function",
      "signature": "0x3b0f0f2f"
    }
  ],
  "bytecode": "0x6080604052336000806101000a81548173ffffffffffffffffffffffffffffffffffffffff021916908373ffffffffffffffffffffffffffffffffffffffff1602179055506000809054906101000a900473ffffffffffffffffffffffffffffffffffffffff1673ffffffffffffffffffffffffffffffffffffffff16600073ffffffffffffffffffffffffffffffffffffffff167f8be0079c531659141344cd1fd0a4f28419497f9722a3daafe3b4186f6b6457e060405160405180910390a3610f3d806100cf6000396000f3006080604052600436106100d0576000357c0100000000000000000000000000000000000000000000000000000000900463ffffffff168063158ef93e146100d55780633721c9d7146101045780633b0f0f2f1461015b578063715018a6146101de5780637543e3f0146101f55780637b103999146102585780638da5cb5b146102af5780638f32d59b14610306578063a90f8e9a14610335578063c1ef8f60146103b8578063c4d66de814610413578063eed6a92514610456578063f2fde38b146104b1578063fab0e95e146104f4575b600080fd5b3480156100e157600080fd5b506100ea61054b565b604051808215151515815260200191505060405180910390f35b34801561011057600080fd5b5061011961055e565b604051808273ffffffffffffffffffffffffffffffffffffffff1673ffffffffffffffffffffffffffffffffffffffff16815260200191505060405180910390f35b34801561016757600080fd5b5061019c600480360381019080803573ffffffffffffffffffffffffffffffffffffffff169060200190929190505050610584565b604051808273ffffffffffffffffffffffffffffffffffffffff1673ffffffffffffffffffffffffffffffffffffffff16815260200191505060405180910390f35b3480156101ea57600080fd5b506101f36105ed565b005b34801561020157600080fd5b50610256600480360381019080803573ffffffffffffffffffffffffffffffffffffffff169060200190929190803573ffffffffffffffffffffffffffffffffffffffff1690602001909291905050506106bf565b005b34801561026457600080fd5b5061026d610844565b604051808273ffffffffffffffffffffffffffffffffffffffff1673ffffffffffffffffffffffffffffffffffffffff16815260200191505060405180910390f35b3480156102bb57600080fd5b506102c461086a565b604051808273ffffffffffffffffffffffffffffffffffffffff1673ffffffffffffffffffffffffffffffffffffffff16815260200191505060405180910390f35b34801561031257600080fd5b5061031b610893565b604051808215151515815260200191505060405180910390f35b34801561034157600080fd5b50610376600480360381019080803573ffffffffffffffffffffffffffffffffffffffff1690602001909291905050506108ea565b604051808273ffffffffffffffffffffffffffffffffffffffff1673ffffffffffffffffffffffffffffffffffffffff16815260200191505060405180910390f35b3480156103c457600080fd5b506103f9600480360381019080803573ffffffffffffffffffffffffffffffffffffffff16906020019092919050505061091d565b604051808215151515815260200191505060405180910390f35b34801561041f57600080fd5b50610454600480360381019080803573ffffffffffffffffffffffffffffffffffffffff169060200190929190505050610ae7565b005b34801561046257600080fd5b50610497600480360381019080803573ffffffffffffffffffffffffffffffffffffffff169060200190929190505050610bf5565b604051808215151515815260200191505060405180910390f35b3480156104bd57600080fd5b506104f2600480360381019080803573ffffffffffffffffffffffffffffffffffffffff169060200190929190505050610dbf565b005b34801561050057600080fd5b50610509610dde565b604051808273ffffffffffffffffffffffffffffffffffffffff1673ffffffffffffffffffffffffffffffffffffffff16815260200191505060405180910390f35b600260149054906101000a900460ff1681565b600260009054906101000a900473ffffffffffffffffffffffffffffffffffffffff1681565b6000600460008373ffffffffffffffffffffffffffffffffffffffff1673ffffffffffffffffffffffffffffffffffffffff16815260200190815260200160002060009054906101000a900473ffffffffffffffffffffffffffffffffffffffff169050919050565b6105f5610893565b151561060057600080fd5b600073ffffffffffffffffffffffffffffffffffffffff166000809054906101000a900473ffffffffffffffffffffffffffffffffffffffff1673ffffffffffffffffffffffffffffffffffffffff167f8be0079c531659141344cd1fd0a4f28419497f9722a3daafe3b4186f6b6457e060405160405180910390a360008060006101000a81548173ffffffffffffffffffffffffffffffffffffffff021916908373ffffffffffffffffffffffffffffffffffffffff160217905550565b600360009054906101000a900473ffffffffffffffffffffffffffffffffffffffff1673ffffffffffffffffffffffffffffffffffffffff1663c04a7d0d336040518263ffffffff167c0100000000000000000000000000000000000000000000000000000000028152600401808273ffffffffffffffffffffffffffffffffffffffff1673ffffffffffffffffffffffffffffffffffffffff168152602001915050602060405180830381600087803b15801561077c57600080fd5b505af1158015610790573d6000803e3d6000fd5b505050506040513d60208110156107a657600080fd5b810190808051906020019092919050505015156107c257600080fd5b80600460008473ffffffffffffffffffffffffffffffffffffffff1673ffffffffffffffffffffffffffffffffffffffff16815260200190815260200160002060006101000a81548173ffffffffffffffffffffffffffffffffffffffff021916908373ffffffffffffffffffffffffffffffffffffffff1602179055505050565b600360009054906101000a900473ffffffffffffffffffffffffffffffffffffffff1681565b60008060009054906101000a900473ffffffffffffffffffffffffffffffffffffffff16905090565b60008060009054906101000a900473ffffffffffffffffffffffffffffffffffffffff1673ffffffffffffffffffffffffffffffffffffffff163373ffffffffffffffffffffffffffffffffffffffff1614905090565b60046020528060005260406000206000915054906101000a900473ffffffffffffffffffffffffffffffffffffffff1681565b600080610928610893565b151561093357600080fd5b600073ffffffffffffffffffffffffffffffffffffffff168373ffffffffffffffffffffffffffffffffffffffff161415151561096f57600080fd5b8273ffffffffffffffffffffffffffffffffffffffff16600160009054906101000a900473ffffffffffffffffffffffffffffffffffffffff1673ffffffffffffffffffffffffffffffffffffffff16141515156109cc57600080fd5b6109d583610e04565b15156109e057600080fd5b600160009054906101000a900473ffffffffffffffffffffffffffffffffffffffff16905082600160006101000a81548173ffffffffffffffffffffffffffffffffffffffff021916908373ffffffffffffffffffffffffffffffffffffffff1602179055507f3684250ce1e33b790ed973c23080f312db0adb21a6d98c61a5c9ff99e4babc178184604051808373ffffffffffffffffffffffffffffffffffffffff1673ffffffffffffffffffffffffffffffffffffffff1681526020018273ffffffffffffffffffffffffffffffffffffffff1673ffffffffffffffffffffffffffffffffffffffff1681526020019250505060405180910390a16001915050919050565b6000610af161086a565b73ffffffffffffffffffffffffffffffffffffffff163373ffffffffffffffffffffffffffffffffffffffff16141515610b2a57600080fd5b600260149054906101000a900460ff16151515610b4657600080fd5b6001600260146101000a81548160ff021916908315150217905550600073ffffffffffffffffffffffffffffffffffffffff168273ffffffffffffffffffffffffffffffffffffffff1614151515610b9d57600080fd5b813b9050600081111515610bb057600080fd5b81600360006101000a81548173ffffffffffffffffffffffffffffffffffffffff021916908373ffffffffffffffffffffffffffffffffffffffff1602179055505050565b600080610c00610893565b1515610c0b57600080fd5b600073ffffffffffffffffffffffffffffffffffffffff168373ffffffffffffffffffffffffffffffffffffffff1614151515610c4757600080fd5b8273ffffffffffffffffffffffffffffffffffffffff16600260009054906101000a900473ffffffffffffffffffffffffffffffffffffffff1673ffffffffffffffffffffffffffffffffffffffff1614151515610ca457600080fd5b610cad83610e04565b1515610cb857600080fd5b600260009054906101000a900473ffffffffffffffffffffffffffffffffffffffff16905082600260006101000a81548173ffffffffffffffffffffffffffffffffffffffff021916908373ffffffffffffffffffffffffffffffffffffffff1602179055507f3684250ce1e33b790ed973c23080f312db0adb21a6d98c61a5c9ff99e4babc178184604051808373ffffffffffffffffffffffffffffffffffffffff1673ffffffffffffffffffffffffffffffffffffffff1681526020018273ffffffffffffffffffffffffffffffffffffffff1673ffffffffffffffffffffffffffffffffffffffff1681526020019250505060405180910390a16001915050919050565b610dc7610893565b1515610dd257600080fd5b610ddb81610e17565b50565b600160009054906101000a900473ffffffffffffffffffffffffffffffffffffffff1681565b600080823b905060008111915050919050565b600073ffffffffffffffffffffffffffffffffffffffff168173ffffffffffffffffffffffffffffffffffffffff1614151515610e5357600080fd5b8073ffffffffffffffffffffffffffffffffffffffff166000809054906101000a900473ffffffffffffffffffffffffffffffffffffffff1673ffffffffffffffffffffffffffffffffffffffff167f8be0079c531659141344cd1fd0a4f28419497f9722a3daafe3b4186f6b6457e060405160405180910390a3806000806101000a81548173ffffffffffffffffffffffffffffffffffffffff021916908373ffffffffffffffffffffffffffffffffffffffff160217905550505600a165627a7a72305820b2576066f65b6abcbd266861d1d79e89130e045a10b9ff56ebe5e8bf9c5803b40029",
  "source": "pragma solidity ^0.4.25;\n\nimport \"./Upgradeable.sol\";\nimport \"./interfaces/IRegistry.sol\";\n\n\ncontract Referrals is Upgradeable {\n\n  IRegistry public registry;\n  mapping(address => address) public referredBy;\n\n  modifier onlyGameContract() {\n    require(registry.isGameContract(msg.sender));\n\n    _;\n  }\n\n  function initialize(\n    address _registry\n  )\n    external\n    initOneTimeOnly\n  {\n    require(_registry != address(0));\n\n    uint256 _code;\n    assembly {\n      _code := extcodesize(_registry)\n    }\n    require(_code > 0);\n\n    registry = IRegistry(_registry);\n  }\n\n  function setReferral(\n    address _referee,\n    address _referrer\n  )\n    external\n    onlyGameContract\n  {\n    referredBy[_referee] = _referrer;\n  }\n\n  function getReferral(\n    address _referee\n  )\n    external\n    view\n    returns (address)\n  {\n    return referredBy[_referee];\n  }\n}",
  "sourcePath": "/Users/tovarishfin/dev/personal/rps/contracts/Referrals.sol",
  "compiler": {
    "name": "solc",
    "version": "0.4.25+commit.59dbf8f1.Emscripten.clang"
  },
  "schemaVersion": "3.0.0",
  "updatedAt": "2018-12-31T00:26:15.423Z",
  "devdoc": {
    "methods": {
      "isOwner()": {
        "return": "true if `msg.sender` is the owner of the contract."
      },
      "owner()": {
        "return": "the address of the owner."
      },
      "renounceOwnership()": {
        "details": "Allows the current owner to relinquish control of the contract."
      },
      "transferOwnership(address)": {
        "details": "Allows the current owner to transfer control of the contract to a newOwner.",
        "params": {
          "newOwner": "The address to transfer ownership to."
        }
      }
    }
  },
  "userdoc": {
    "methods": {
      "renounceOwnership()": {
        "notice": "Renouncing to ownership will leave the contract without an owner. It will not be possible to call the functions with the `onlyOwner` modifier anymore."
      }
    }
  }
}