{
  "contractName": "Registry",
  "abi": [
    {
      "constant": false,
      "inputs": [],
      "name": "renounceOwnership",
      "outputs": [],
      "payable": false,
      "stateMutability": "nonpayable",
      "type": "function",
      "signature": "0x715018a6"
    },
    {
      "constant": true,
      "inputs": [],
      "name": "owner",
      "outputs": [
        {
          "name": "",
          "type": "address"
        }
      ],
      "payable": false,
      "stateMutability": "view",
      "type": "function",
      "signature": "0x8da5cb5b"
    },
    {
      "constant": true,
      "inputs": [],
      "name": "isOwner",
      "outputs": [
        {
          "name": "",
          "type": "bool"
        }
      ],
      "payable": false,
      "stateMutability": "view",
      "type": "function",
      "signature": "0x8f32d59b"
    },
    {
      "constant": true,
      "inputs": [
        {
          "name": "",
          "type": "address"
        }
      ],
      "name": "isGameContract",
      "outputs": [
        {
          "name": "",
          "type": "bool"
        }
      ],
      "payable": false,
      "stateMutability": "view",
      "type": "function",
      "signature": "0xc04a7d0d"
    },
    {
      "constant": false,
      "inputs": [
        {
          "name": "newOwner",
          "type": "address"
        }
      ],
      "name": "transferOwnership",
      "outputs": [],
      "payable": false,
      "stateMutability": "nonpayable",
      "type": "function",
      "signature": "0xf2fde38b"
    },
    {
      "anonymous": false,
      "inputs": [
        {
          "indexed": false,
          "name": "name",
          "type": "string"
        },
        {
          "indexed": true,
          "name": "entry",
          "type": "address"
        }
      ],
      "name": "EntryUpdated",
      "type": "event",
      "signature": "0x69bfa74ab5a9ec2fd819209cebf1db7f41f2fc0ce34dd9de5ffd1a8d1018b05f"
    },
    {
      "anonymous": false,
      "inputs": [
        {
          "indexed": true,
          "name": "previousOwner",
          "type": "address"
        },
        {
          "indexed": true,
          "name": "newOwner",
          "type": "address"
        }
      ],
      "name": "OwnershipTransferred",
      "type": "event",
      "signature": "0x8be0079c531659141344cd1fd0a4f28419497f9722a3daafe3b4186f6b6457e0"
    },
    {
      "constant": false,
      "inputs": [
        {
          "name": "_name",
          "type": "string"
        },
        {
          "name": "_address",
          "type": "address"
        }
      ],
      "name": "updateEntry",
      "outputs": [],
      "payable": false,
      "stateMutability": "nonpayable",
      "type": "function",
      "signature": "0xfc43f3cd"
    },
    {
      "constant": true,
      "inputs": [
        {
          "name": "_name",
          "type": "string"
        }
      ],
      "name": "getEntry",
      "outputs": [
        {
          "name": "",
          "type": "address"
        }
      ],
      "payable": false,
      "stateMutability": "view",
      "type": "function",
      "signature": "0xb319c9e4"
    },
    {
      "constant": true,
      "inputs": [
        {
          "name": "_name32",
          "type": "bytes32"
        }
      ],
      "name": "getEntry32",
      "outputs": [
        {
          "name": "",
          "type": "address"
        }
      ],
      "payable": false,
      "stateMutability": "view",
      "type": "function",
      "signature": "0xe2161db4"
    },
    {
      "constant": false,
      "inputs": [
        {
          "name": "_gameContract",
          "type": "address"
        }
      ],
      "name": "addGameContract",
      "outputs": [],
      "payable": false,
      "stateMutability": "nonpayable",
      "type": "function",
      "signature": "0x81cd08ee"
    },
    {
      "constant": false,
      "inputs": [
        {
          "name": "_gameContract",
          "type": "address"
        }
      ],
      "name": "removeGameContract",
      "outputs": [],
      "payable": false,
      "stateMutability": "nonpayable",
      "type": "function",
      "signature": "0x5c74e025"
    }
  ],
  "bytecode": "0x6080604052336000806101000a81548173ffffffffffffffffffffffffffffffffffffffff021916908373ffffffffffffffffffffffffffffffffffffffff1602179055506000809054906101000a900473ffffffffffffffffffffffffffffffffffffffff1673ffffffffffffffffffffffffffffffffffffffff16600073ffffffffffffffffffffffffffffffffffffffff167f8be0079c531659141344cd1fd0a4f28419497f9722a3daafe3b4186f6b6457e060405160405180910390a3610b27806100cf6000396000f3006080604052600436106100a4576000357c0100000000000000000000000000000000000000000000000000000000900463ffffffff1680635c74e025146100a9578063715018a6146100ec57806381cd08ee146101035780638da5cb5b146101465780638f32d59b1461019d578063b319c9e4146101cc578063c04a7d0d14610247578063e2161db4146102a2578063f2fde38b14610313578063fc43f3cd14610356575b600080fd5b3480156100b557600080fd5b506100ea600480360381019080803573ffffffffffffffffffffffffffffffffffffffff1690602001909291905050506103b1565b005b3480156100f857600080fd5b5061010161041f565b005b34801561010f57600080fd5b50610144600480360381019080803573ffffffffffffffffffffffffffffffffffffffff1690602001909291905050506104f1565b005b34801561015257600080fd5b5061015b61055f565b604051808273ffffffffffffffffffffffffffffffffffffffff1673ffffffffffffffffffffffffffffffffffffffff16815260200191505060405180910390f35b3480156101a957600080fd5b506101b2610588565b604051808215151515815260200191505060405180910390f35b3480156101d857600080fd5b506102056004803603810190808035906020019082018035906020019190919293919293905050506105df565b604051808273ffffffffffffffffffffffffffffffffffffffff1673ffffffffffffffffffffffffffffffffffffffff16815260200191505060405180910390f35b34801561025357600080fd5b50610288600480360381019080803573ffffffffffffffffffffffffffffffffffffffff169060200190929190505050610729565b604051808215151515815260200191505060405180910390f35b3480156102ae57600080fd5b506102d16004803603810190808035600019169060200190929190505050610749565b604051808273ffffffffffffffffffffffffffffffffffffffff1673ffffffffffffffffffffffffffffffffffffffff16815260200191505060405180910390f35b34801561031f57600080fd5b50610354600480360381019080803573ffffffffffffffffffffffffffffffffffffffff169060200190929190505050610804565b005b34801561036257600080fd5b506103af600480360381019080803590602001908201803590602001919091929391929390803573ffffffffffffffffffffffffffffffffffffffff169060200190929190505050610823565b005b6103b9610588565b15156103c457600080fd5b6000600260008373ffffffffffffffffffffffffffffffffffffffff1673ffffffffffffffffffffffffffffffffffffffff16815260200190815260200160002060006101000a81548160ff02191690831515021790555050565b610427610588565b151561043257600080fd5b600073ffffffffffffffffffffffffffffffffffffffff166000809054906101000a900473ffffffffffffffffffffffffffffffffffffffff1673ffffffffffffffffffffffffffffffffffffffff167f8be0079c531659141344cd1fd0a4f28419497f9722a3daafe3b4186f6b6457e060405160405180910390a360008060006101000a81548173ffffffffffffffffffffffffffffffffffffffff021916908373ffffffffffffffffffffffffffffffffffffffff160217905550565b6104f9610588565b151561050457600080fd5b6001600260008373ffffffffffffffffffffffffffffffffffffffff1673ffffffffffffffffffffffffffffffffffffffff16815260200190815260200160002060006101000a81548160ff02191690831515021790555050565b60008060009054906101000a900473ffffffffffffffffffffffffffffffffffffffff16905090565b60008060009054906101000a900473ffffffffffffffffffffffffffffffffffffffff1673ffffffffffffffffffffffffffffffffffffffff163373ffffffffffffffffffffffffffffffffffffffff1614905090565b6000808383604051602001808383808284378201915050925050506040516020818303038152906040526040518082805190602001908083835b60208310151561063e5780518252602082019150602081019050602083039250610619565b6001836020036101000a03801982511681845116808217855250505050505090500191505060405180910390209050600073ffffffffffffffffffffffffffffffffffffffff1660016000836000191660001916815260200190815260200160002060009054906101000a900473ffffffffffffffffffffffffffffffffffffffff1673ffffffffffffffffffffffffffffffffffffffff16141515156106e457600080fd5b60016000826000191660001916815260200190815260200160002060009054906101000a900473ffffffffffffffffffffffffffffffffffffffff1691505092915050565b60026020528060005260406000206000915054906101000a900460ff1681565b60008073ffffffffffffffffffffffffffffffffffffffff1660016000846000191660001916815260200190815260200160002060009054906101000a900473ffffffffffffffffffffffffffffffffffffffff1673ffffffffffffffffffffffffffffffffffffffff16141515156107c157600080fd5b60016000836000191660001916815260200190815260200160002060009054906101000a900473ffffffffffffffffffffffffffffffffffffffff169050919050565b61080c610588565b151561081757600080fd5b61082081610a01565b50565b600061082d610588565b151561083857600080fd5b8383604051602001808383808284378201915050925050506040516020818303038152906040526040518082805190602001908083835b602083101515610894578051825260208201915060208101905060208303925061086f565b6001836020036101000a0380198251168184511680821785525050505050509050019150506040518091039020905060016000826000191660001916815260200190815260200160002060009054906101000a900473ffffffffffffffffffffffffffffffffffffffff1673ffffffffffffffffffffffffffffffffffffffff168273ffffffffffffffffffffffffffffffffffffffff161415151561093957600080fd5b8160016000836000191660001916815260200190815260200160002060006101000a81548173ffffffffffffffffffffffffffffffffffffffff021916908373ffffffffffffffffffffffffffffffffffffffff1602179055508173ffffffffffffffffffffffffffffffffffffffff167f69bfa74ab5a9ec2fd819209cebf1db7f41f2fc0ce34dd9de5ffd1a8d1018b05f8585604051808060200182810382528484828181526020019250808284378201915050935050505060405180910390a250505050565b600073ffffffffffffffffffffffffffffffffffffffff168173ffffffffffffffffffffffffffffffffffffffff1614151515610a3d57600080fd5b8073ffffffffffffffffffffffffffffffffffffffff166000809054906101000a900473ffffffffffffffffffffffffffffffffffffffff1673ffffffffffffffffffffffffffffffffffffffff167f8be0079c531659141344cd1fd0a4f28419497f9722a3daafe3b4186f6b6457e060405160405180910390a3806000806101000a81548173ffffffffffffffffffffffffffffffffffffffff021916908373ffffffffffffffffffffffffffffffffffffffff160217905550505600a165627a7a723058207b5f56f7e0db30c7551b2ab757788e4961d8b11cba602416c9fb4f22150ff1ce0029",
  "source": "pragma solidity ^0.4.25;\n\nimport \"openzeppelin-solidity/contracts/ownership/Ownable.sol\";\n\n\ncontract Registry is Ownable {\n  mapping(bytes32 => address) private entries;\n  mapping(address => bool) public isGameContract;\n\n  event EntryUpdated(\n    string name,\n    address indexed entry\n  );\n\n  function updateEntry(\n    string _name,\n    address _address\n  )\n    external\n    onlyOwner\n  {\n    bytes32 _name32 = keccak256(abi.encodePacked(_name));\n    require(_address != entries[_name32]);\n\n    entries[_name32] = _address;\n\n    emit EntryUpdated(_name, _address);\n  }\n\n  function getEntry(\n    string _name\n  )\n    external\n    view\n    returns (address)\n  {\n    bytes32 _name32 = keccak256(abi.encodePacked(_name));\n    require(entries[_name32] != address(0));\n\n    return entries[_name32];\n  }\n\n  function getEntry32(\n    bytes32 _name32\n  )\n    external\n    view\n    returns (address)\n  {\n    require(entries[_name32] != address(0));\n\n    return entries[_name32];\n  }\n\n  function addGameContract(\n    address _gameContract\n  )\n    external\n    onlyOwner\n  {\n    isGameContract[_gameContract] = true;\n  }\n\n  function removeGameContract(\n    address _gameContract\n  )\n    external\n    onlyOwner\n  {\n    isGameContract[_gameContract] = false;\n  }\n}",
  "sourcePath": "/Users/tovarishfin/dev/personal/rps/contracts/Registry.sol",
  "compiler": {
    "name": "solc",
    "version": "0.4.25+commit.59dbf8f1.Emscripten.clang"
  },
  "schemaVersion": "3.0.0",
  "updatedAt": "2018-12-31T00:26:15.426Z",
  "devdoc": {
    "methods": {
      "isOwner()": {
        "return": "true if `msg.sender` is the owner of the contract."
      },
      "owner()": {
        "return": "the address of the owner."
      },
      "renounceOwnership()": {
        "details": "Allows the current owner to relinquish control of the contract."
      },
      "transferOwnership(address)": {
        "details": "Allows the current owner to transfer control of the contract to a newOwner.",
        "params": {
          "newOwner": "The address to transfer ownership to."
        }
      }
    }
  },
  "userdoc": {
    "methods": {
      "renounceOwnership()": {
        "notice": "Renouncing to ownership will leave the contract without an owner. It will not be possible to call the functions with the `onlyOwner` modifier anymore."
      }
    }
  }
}