{
  "contractName": "RockPaperScissorsCore",
  "abi": [
    {
      "constant": true,
      "inputs": [
        {
          "name": "",
          "type": "uint256"
        }
      ],
      "name": "games",
      "outputs": [
        {
          "name": "addressP1",
          "type": "address"
        },
        {
          "name": "addressP2",
          "type": "address"
        },
        {
          "name": "winner",
          "type": "address"
        },
        {
          "name": "tokenAddress",
          "type": "address"
        },
        {
          "name": "bet",
          "type": "uint256"
        },
        {
          "name": "choiceP1",
          "type": "uint8"
        },
        {
          "name": "choiceP2",
          "type": "uint8"
        },
        {
          "name": "choiceSecretP1",
          "type": "bytes32"
        },
        {
          "name": "choiceSecretP2",
          "type": "bytes32"
        },
        {
          "name": "stage",
          "type": "uint8"
        }
      ],
      "payable": false,
      "stateMutability": "view",
      "type": "function",
      "signature": "0x117a5b90"
    },
    {
      "constant": true,
      "inputs": [],
      "name": "initialized",
      "outputs": [
        {
          "name": "",
          "type": "bool"
        }
      ],
      "payable": false,
      "stateMutability": "view",
      "type": "function",
      "signature": "0x158ef93e"
    },
    {
      "constant": true,
      "inputs": [],
      "name": "rpsManagement",
      "outputs": [
        {
          "name": "",
          "type": "address"
        }
      ],
      "payable": false,
      "stateMutability": "view",
      "type": "function",
      "signature": "0x3721c9d7"
    },
    {
      "constant": true,
      "inputs": [],
      "name": "lastGameId",
      "outputs": [
        {
          "name": "",
          "type": "uint256"
        }
      ],
      "payable": false,
      "stateMutability": "view",
      "type": "function",
      "signature": "0x3ee9d648"
    },
    {
      "constant": true,
      "inputs": [
        {
          "name": "",
          "type": "uint256"
        }
      ],
      "name": "timingOutGames",
      "outputs": [
        {
          "name": "",
          "type": "uint256"
        }
      ],
      "payable": false,
      "stateMutability": "view",
      "type": "function",
      "signature": "0x4c470e7d"
    },
    {
      "constant": true,
      "inputs": [],
      "name": "paused",
      "outputs": [
        {
          "name": "",
          "type": "bool"
        }
      ],
      "payable": false,
      "stateMutability": "view",
      "type": "function",
      "signature": "0x5c975abb"
    },
    {
      "constant": false,
      "inputs": [],
      "name": "renounceOwnership",
      "outputs": [],
      "payable": false,
      "stateMutability": "nonpayable",
      "type": "function",
      "signature": "0x715018a6"
    },
    {
      "constant": true,
      "inputs": [
        {
          "name": "",
          "type": "address"
        },
        {
          "name": "",
          "type": "uint256"
        }
      ],
      "name": "activeGamesOf",
      "outputs": [
        {
          "name": "",
          "type": "uint256"
        }
      ],
      "payable": false,
      "stateMutability": "view",
      "type": "function",
      "signature": "0x722f74bb"
    },
    {
      "constant": true,
      "inputs": [
        {
          "name": "",
          "type": "uint256"
        }
      ],
      "name": "openGameIndex",
      "outputs": [
        {
          "name": "",
          "type": "uint256"
        }
      ],
      "payable": false,
      "stateMutability": "view",
      "type": "function",
      "signature": "0x781e7a29"
    },
    {
      "constant": true,
      "inputs": [],
      "name": "registry",
      "outputs": [
        {
          "name": "",
          "type": "address"
        }
      ],
      "payable": false,
      "stateMutability": "view",
      "type": "function",
      "signature": "0x7b103999"
    },
    {
      "constant": true,
      "inputs": [],
      "name": "owner",
      "outputs": [
        {
          "name": "",
          "type": "address"
        }
      ],
      "payable": false,
      "stateMutability": "view",
      "type": "function",
      "signature": "0x8da5cb5b"
    },
    {
      "constant": true,
      "inputs": [],
      "name": "isOwner",
      "outputs": [
        {
          "name": "",
          "type": "bool"
        }
      ],
      "payable": false,
      "stateMutability": "view",
      "type": "function",
      "signature": "0x8f32d59b"
    },
    {
      "constant": true,
      "inputs": [],
      "name": "minBet",
      "outputs": [
        {
          "name": "",
          "type": "uint256"
        }
      ],
      "payable": false,
      "stateMutability": "view",
      "type": "function",
      "signature": "0x9619367d"
    },
    {
      "constant": false,
      "inputs": [
        {
          "name": "_rpsCore",
          "type": "address"
        }
      ],
      "name": "upgradeRockPaperScissorsCore",
      "outputs": [
        {
          "name": "",
          "type": "bool"
        }
      ],
      "payable": false,
      "stateMutability": "nonpayable",
      "type": "function",
      "signature": "0xc1ef8f60"
    },
    {
      "constant": true,
      "inputs": [],
      "name": "referralFeePerMille",
      "outputs": [
        {
          "name": "",
          "type": "uint256"
        }
      ],
      "payable": false,
      "stateMutability": "view",
      "type": "function",
      "signature": "0xcc0d630f"
    },
    {
      "constant": true,
      "inputs": [
        {
          "name": "",
          "type": "uint256"
        }
      ],
      "name": "activeGameOfIndex",
      "outputs": [
        {
          "name": "",
          "type": "uint256"
        }
      ],
      "payable": false,
      "stateMutability": "view",
      "type": "function",
      "signature": "0xd63e96fa"
    },
    {
      "constant": false,
      "inputs": [
        {
          "name": "_rpsManagement",
          "type": "address"
        }
      ],
      "name": "upgradeRockPaperScissorsManagement",
      "outputs": [
        {
          "name": "",
          "type": "bool"
        }
      ],
      "payable": false,
      "stateMutability": "nonpayable",
      "type": "function",
      "signature": "0xeed6a925"
    },
    {
      "constant": true,
      "inputs": [],
      "name": "timeoutInSeconds",
      "outputs": [
        {
          "name": "",
          "type": "uint256"
        }
      ],
      "payable": false,
      "stateMutability": "view",
      "type": "function",
      "signature": "0xefec6cd4"
    },
    {
      "constant": true,
      "inputs": [],
      "name": "feePerMille",
      "outputs": [
        {
          "name": "",
          "type": "uint256"
        }
      ],
      "payable": false,
      "stateMutability": "view",
      "type": "function",
      "signature": "0xf08e2581"
    },
    {
      "constant": false,
      "inputs": [
        {
          "name": "newOwner",
          "type": "address"
        }
      ],
      "name": "transferOwnership",
      "outputs": [],
      "payable": false,
      "stateMutability": "nonpayable",
      "type": "function",
      "signature": "0xf2fde38b"
    },
    {
      "constant": true,
      "inputs": [],
      "name": "rpsCore",
      "outputs": [
        {
          "name": "",
          "type": "address"
        }
      ],
      "payable": false,
      "stateMutability": "view",
      "type": "function",
      "signature": "0xfab0e95e"
    },
    {
      "constant": true,
      "inputs": [
        {
          "name": "",
          "type": "uint256"
        }
      ],
      "name": "openGames",
      "outputs": [
        {
          "name": "",
          "type": "uint256"
        }
      ],
      "payable": false,
      "stateMutability": "view",
      "type": "function",
      "signature": "0xfd22a6cf"
    },
    {
      "payable": true,
      "stateMutability": "payable",
      "type": "fallback"
    },
    {
      "anonymous": false,
      "inputs": [],
      "name": "Paused",
      "type": "event",
      "signature": "0x9e87fac88ff661f02d44f95383c817fece4bce600a3dab7a54406878b965e752"
    },
    {
      "anonymous": false,
      "inputs": [],
      "name": "Unpaused",
      "type": "event",
      "signature": "0xa45f47fdea8a1efdd9029a5691c7f759c32b7c698632b563573e155625d16933"
    },
    {
      "anonymous": false,
      "inputs": [
        {
          "indexed": true,
          "name": "gameId",
          "type": "uint256"
        },
        {
          "indexed": true,
          "name": "stage",
          "type": "uint256"
        }
      ],
      "name": "StageChanged",
      "type": "event",
      "signature": "0x5dea685f51eb021b820f697ac820348c0aa0635ac833c31b190077813d406e76"
    },
    {
      "anonymous": false,
      "inputs": [
        {
          "indexed": true,
          "name": "gameId",
          "type": "uint256"
        },
        {
          "indexed": true,
          "name": "creator",
          "type": "address"
        }
      ],
      "name": "GameCreated",
      "type": "event",
      "signature": "0xc3e0f84839dc888c892a013d10c8f9d6dc05a21a879d0ce468ca558013e9121c"
    },
    {
      "anonymous": false,
      "inputs": [
        {
          "indexed": true,
          "name": "gameId",
          "type": "uint256"
        },
        {
          "indexed": true,
          "name": "cancellor",
          "type": "address"
        }
      ],
      "name": "GameCancelled",
      "type": "event",
      "signature": "0x58f64e02b3a6d2a3bd28b7700a0a0d6699545bcb55bf917ac0ff670f3a509efb"
    },
    {
      "anonymous": false,
      "inputs": [
        {
          "indexed": true,
          "name": "gameId",
          "type": "uint256"
        },
        {
          "indexed": true,
          "name": "creator",
          "type": "address"
        },
        {
          "indexed": true,
          "name": "joiner",
          "type": "address"
        }
      ],
      "name": "GameJoined",
      "type": "event",
      "signature": "0x8ca5b55df47712c5e59e7aaddc402fc30e6399e3498efec70a7e440bb9d2fac8"
    },
    {
      "anonymous": false,
      "inputs": [
        {
          "indexed": true,
          "name": "gameId",
          "type": "uint256"
        },
        {
          "indexed": false,
          "name": "committer",
          "type": "address"
        }
      ],
      "name": "ChoiceCommitted",
      "type": "event",
      "signature": "0x83e359f891d0a4ccad86acdab41f05e3ed86b2daa1571e0c73b7b2d712e1b8af"
    },
    {
      "anonymous": false,
      "inputs": [
        {
          "indexed": true,
          "name": "gameId",
          "type": "uint256"
        },
        {
          "indexed": false,
          "name": "revealer",
          "type": "address"
        }
      ],
      "name": "ChoiceRevealed",
      "type": "event",
      "signature": "0xd77afd661b696dda60ba1de96592d2e2de6d8b1a9f1deca5719d504053c828ea"
    },
    {
      "anonymous": false,
      "inputs": [
        {
          "indexed": true,
          "name": "gameId",
          "type": "uint256"
        },
        {
          "indexed": true,
          "name": "initiator",
          "type": "address"
        },
        {
          "indexed": true,
          "name": "delayer",
          "type": "address"
        }
      ],
      "name": "TimeoutStarted",
      "type": "event",
      "signature": "0x2db65e2fe5797ddf058773a1668f8deaa867fcc2f70eee9949b06002fa7a1156"
    },
    {
      "anonymous": false,
      "inputs": [
        {
          "indexed": true,
          "name": "gameId",
          "type": "uint256"
        },
        {
          "indexed": true,
          "name": "winner",
          "type": "address"
        },
        {
          "indexed": true,
          "name": "loser",
          "type": "address"
        }
      ],
      "name": "TimedOut",
      "type": "event",
      "signature": "0x9d64dde12a7003ff91ddc34366380564dc534bd5e91baa6eb00ffdcf7d3cc61d"
    },
    {
      "anonymous": false,
      "inputs": [
        {
          "indexed": true,
          "name": "gameId",
          "type": "uint256"
        },
        {
          "indexed": true,
          "name": "player1",
          "type": "address"
        },
        {
          "indexed": true,
          "name": "player2",
          "type": "address"
        }
      ],
      "name": "Tied",
      "type": "event",
      "signature": "0x2a7d6d92e0d3b8ab88d4119ef10064881e1f27c1540005fe659cdc99afff28d0"
    },
    {
      "anonymous": false,
      "inputs": [
        {
          "indexed": true,
          "name": "gameId",
          "type": "uint256"
        },
        {
          "indexed": true,
          "name": "winner",
          "type": "address"
        },
        {
          "indexed": true,
          "name": "loser",
          "type": "address"
        }
      ],
      "name": "WinnerDecided",
      "type": "event",
      "signature": "0xc1687643aebedb03e13efe9814eb027021238e2b00749b9b3a6571255db6f533"
    },
    {
      "anonymous": false,
      "inputs": [
        {
          "indexed": true,
          "name": "gameId",
          "type": "uint256"
        },
        {
          "indexed": true,
          "name": "settler",
          "type": "address"
        },
        {
          "indexed": false,
          "name": "winnings",
          "type": "uint256"
        }
      ],
      "name": "BetSettled",
      "type": "event",
      "signature": "0x6f277b50171c654e40c771d9c2bbf19e070eeb21cce6f8e9a80334564279e395"
    },
    {
      "anonymous": false,
      "inputs": [
        {
          "indexed": true,
          "name": "referrer",
          "type": "address"
        },
        {
          "indexed": true,
          "name": "referree",
          "type": "address"
        }
      ],
      "name": "ReferralSet",
      "type": "event",
      "signature": "0xdf63218877cb126f6c003f2b7f77327674cd6a0b53ad51deac392548ec12b0ed"
    },
    {
      "anonymous": false,
      "inputs": [
        {
          "indexed": true,
          "name": "tokenAddress",
          "type": "address"
        },
        {
          "indexed": false,
          "name": "referred",
          "type": "address"
        },
        {
          "indexed": true,
          "name": "referrer",
          "type": "address"
        },
        {
          "indexed": false,
          "name": "value",
          "type": "uint256"
        }
      ],
      "name": "ReferralPaid",
      "type": "event",
      "signature": "0x7bc8117fccc0610fda4c3e1d09b833d7e90f929891a6609d76d19a745545422d"
    },
    {
      "anonymous": false,
      "inputs": [
        {
          "indexed": false,
          "name": "oldMinBet",
          "type": "uint256"
        },
        {
          "indexed": false,
          "name": "newMinBet",
          "type": "uint256"
        }
      ],
      "name": "MinBetUpdated",
      "type": "event",
      "signature": "0x3719cd5401c2d4ed5d6b10ce00a5f7334a6b3aab412ada7853cadec7e109c136"
    },
    {
      "anonymous": false,
      "inputs": [
        {
          "indexed": false,
          "name": "oldTimeout",
          "type": "uint256"
        },
        {
          "indexed": false,
          "name": "newTimeout",
          "type": "uint256"
        }
      ],
      "name": "TimeoutUpdated",
      "type": "event",
      "signature": "0xd39d06a36d5d84d4b605e6fae01c0508c0c2b4ce8b947edca81cd73d9242fd02"
    },
    {
      "anonymous": false,
      "inputs": [
        {
          "indexed": false,
          "name": "oldReferralFee",
          "type": "uint256"
        },
        {
          "indexed": false,
          "name": "newReferralFee",
          "type": "uint256"
        }
      ],
      "name": "ReferralFeeUpdated",
      "type": "event",
      "signature": "0xe6a16ded5057640d8831f18cd4885a75642c76b3fde5215975c3d9735027fa20"
    },
    {
      "anonymous": false,
      "inputs": [
        {
          "indexed": false,
          "name": "oldFee",
          "type": "uint256"
        },
        {
          "indexed": false,
          "name": "newFee",
          "type": "uint256"
        }
      ],
      "name": "FeeUpdated",
      "type": "event",
      "signature": "0x528d9479e9f9889a87a3c30c7f7ba537e5e59c4c85a37733b16e57c62df61302"
    },
    {
      "anonymous": false,
      "inputs": [
        {
          "indexed": false,
          "name": "upgradedFrom",
          "type": "address"
        },
        {
          "indexed": false,
          "name": "upgradedTo",
          "type": "address"
        }
      ],
      "name": "ProxyUpgraded",
      "type": "event",
      "signature": "0x3684250ce1e33b790ed973c23080f312db0adb21a6d98c61a5c9ff99e4babc17"
    },
    {
      "anonymous": false,
      "inputs": [
        {
          "indexed": true,
          "name": "previousOwner",
          "type": "address"
        },
        {
          "indexed": true,
          "name": "newOwner",
          "type": "address"
        }
      ],
      "name": "OwnershipTransferred",
      "type": "event",
      "signature": "0x8be0079c531659141344cd1fd0a4f28419497f9722a3daafe3b4186f6b6457e0"
    },
    {
      "constant": false,
      "inputs": [
        {
          "name": "_registryAddress",
          "type": "address"
        },
        {
          "name": "_minBet",
          "type": "uint256"
        },
        {
          "name": "_timeoutInSeconds",
          "type": "uint256"
        },
        {
          "name": "_referralFeePerMille",
          "type": "uint256"
        },
        {
          "name": "_feePerMille",
          "type": "uint256"
        }
      ],
      "name": "initialize",
      "outputs": [],
      "payable": false,
      "stateMutability": "nonpayable",
      "type": "function",
      "signature": "0xf92ad219"
    },
    {
      "constant": true,
      "inputs": [],
      "name": "allOpenGames",
      "outputs": [
        {
          "name": "",
          "type": "uint256[]"
        }
      ],
      "payable": false,
      "stateMutability": "view",
      "type": "function",
      "signature": "0xb9496244"
    },
    {
      "constant": true,
      "inputs": [],
      "name": "openGamesLength",
      "outputs": [
        {
          "name": "",
          "type": "uint256"
        }
      ],
      "payable": false,
      "stateMutability": "view",
      "type": "function",
      "signature": "0x4afcd2ad"
    },
    {
      "constant": true,
      "inputs": [
        {
          "name": "_address",
          "type": "address"
        }
      ],
      "name": "allActiveGamesOf",
      "outputs": [
        {
          "name": "",
          "type": "uint256[]"
        }
      ],
      "payable": false,
      "stateMutability": "view",
      "type": "function",
      "signature": "0x34e9df0a"
    },
    {
      "constant": true,
      "inputs": [
        {
          "name": "_address",
          "type": "address"
        }
      ],
      "name": "allActiveGamesOfLength",
      "outputs": [
        {
          "name": "",
          "type": "uint256"
        }
      ],
      "payable": false,
      "stateMutability": "view",
      "type": "function",
      "signature": "0x16f98a68"
    },
    {
      "constant": true,
      "inputs": [
        {
          "name": "_gameId",
          "type": "uint256"
        }
      ],
      "name": "gameHasTimedOut",
      "outputs": [
        {
          "name": "",
          "type": "bool"
        }
      ],
      "payable": false,
      "stateMutability": "view",
      "type": "function",
      "signature": "0x5f3d3ef9"
    },
    {
      "constant": false,
      "inputs": [
        {
          "name": "_referrer",
          "type": "address"
        },
        {
          "name": "_tokenAddress",
          "type": "address"
        },
        {
          "name": "_value",
          "type": "uint256"
        }
      ],
      "name": "createGame",
      "outputs": [],
      "payable": true,
      "stateMutability": "payable",
      "type": "function",
      "signature": "0xb718d70c"
    },
    {
      "constant": false,
      "inputs": [
        {
          "name": "_gameId",
          "type": "uint256"
        }
      ],
      "name": "cancelGame",
      "outputs": [],
      "payable": false,
      "stateMutability": "nonpayable",
      "type": "function",
      "signature": "0x69958ab9"
    },
    {
      "constant": false,
      "inputs": [
        {
          "name": "_referrer",
          "type": "address"
        },
        {
          "name": "_gameId",
          "type": "uint256"
        }
      ],
      "name": "joinGame",
      "outputs": [],
      "payable": true,
      "stateMutability": "payable",
      "type": "function",
      "signature": "0xcd762827"
    },
    {
      "constant": false,
      "inputs": [
        {
          "name": "_gameId",
          "type": "uint256"
        },
        {
          "name": "_hash",
          "type": "bytes32"
        }
      ],
      "name": "commitChoice",
      "outputs": [],
      "payable": false,
      "stateMutability": "nonpayable",
      "type": "function",
      "signature": "0x0b525386"
    },
    {
      "constant": false,
      "inputs": [
        {
          "name": "_gameId",
          "type": "uint256"
        },
        {
          "name": "_choice",
          "type": "uint8"
        },
        {
          "name": "_sig",
          "type": "bytes"
        }
      ],
      "name": "revealChoice",
      "outputs": [],
      "payable": false,
      "stateMutability": "nonpayable",
      "type": "function",
      "signature": "0x8dc531f5"
    }
  ],
  "bytecode": "0x6080604052336000806101000a81548173ffffffffffffffffffffffffffffffffffffffff021916908373ffffffffffffffffffffffffffffffffffffffff1602179055506000809054906101000a900473ffffffffffffffffffffffffffffffffffffffff1673ffffffffffffffffffffffffffffffffffffffff16600073ffffffffffffffffffffffffffffffffffffffff167f8be0079c531659141344cd1fd0a4f28419497f9722a3daafe3b4186f6b6457e060405160405180910390a3614c82806100cf6000396000f3006080604052600436106101a1576000357c0100000000000000000000000000000000000000000000000000000000900463ffffffff1680630b525386146101c8578063117a5b9014610203578063158ef93e1461036d57806316f98a681461039c57806334e9df0a146103f35780633721c9d71461048b5780633ee9d648146104e25780634afcd2ad1461050d5780634c470e7d146105385780635c975abb146105795780635f3d3ef9146105a857806369958ab9146105ed578063715018a61461061a578063722f74bb14610631578063781e7a29146106925780637b103999146106d35780638da5cb5b1461072a5780638dc531f5146107815780638f32d59b146107d35780639619367d14610802578063b718d70c1461082d578063b94962441461088d578063c1ef8f60146108f9578063cc0d630f14610954578063cd7628271461097f578063d63e96fa146109bf578063eed6a92514610a00578063efec6cd414610a5b578063f08e258114610a86578063f2fde38b14610ab1578063f92ad21914610af4578063fab0e95e14610b5f578063fd22a6cf14610bb6575b6002543660008037600080366000845af48015156101be57600080fd5b3d6000803e3d6000f35b3480156101d457600080fd5b50610201600480360381019080803590602001909291908035600019169060200190929190505050610bf7565b005b34801561020f57600080fd5b5061022e600480360381019080803590602001909291905050506110cc565b604051808b73ffffffffffffffffffffffffffffffffffffffff1673ffffffffffffffffffffffffffffffffffffffff1681526020018a73ffffffffffffffffffffffffffffffffffffffff1673ffffffffffffffffffffffffffffffffffffffff1681526020018973ffffffffffffffffffffffffffffffffffffffff1673ffffffffffffffffffffffffffffffffffffffff1681526020018873ffffffffffffffffffffffffffffffffffffffff1673ffffffffffffffffffffffffffffffffffffffff16815260200187815260200186600381111561030c57fe5b60ff16815260200185600381111561032057fe5b60ff1681526020018460001916600019168152602001836000191660001916815260200182600981111561035057fe5b60ff1681526020019a505050505050505050505060405180910390f35b34801561037957600080fd5b506103826111c7565b604051808215151515815260200191505060405180910390f35b3480156103a857600080fd5b506103dd600480360381019080803573ffffffffffffffffffffffffffffffffffffffff1690602001909291905050506111da565b6040518082815260200191505060405180910390f35b3480156103ff57600080fd5b50610434600480360381019080803573ffffffffffffffffffffffffffffffffffffffff169060200190929190505050611226565b6040518080602001828103825283818151815260200191508051906020019060200280838360005b8381101561047757808201518184015260208101905061045c565b505050509050019250505060405180910390f35b34801561049757600080fd5b506104a06112bd565b604051808273ffffffffffffffffffffffffffffffffffffffff1673ffffffffffffffffffffffffffffffffffffffff16815260200191505060405180910390f35b3480156104ee57600080fd5b506104f76112e3565b6040518082815260200191505060405180910390f35b34801561051957600080fd5b506105226112e9565b6040518082815260200191505060405180910390f35b34801561054457600080fd5b50610563600480360381019080803590602001909291905050506112f6565b6040518082815260200191505060405180910390f35b34801561058557600080fd5b5061058e61130e565b604051808215151515815260200191505060405180910390f35b3480156105b457600080fd5b506105d360048036038101908080359060200190929190505050611321565b604051808215151515815260200191505060405180910390f35b3480156105f957600080fd5b5061061860048036038101908080359060200190929190505050611361565b005b34801561062657600080fd5b5061062f611a29565b005b34801561063d57600080fd5b5061067c600480360381019080803573ffffffffffffffffffffffffffffffffffffffff16906020019092919080359060200190929190505050611afb565b6040518082815260200191505060405180910390f35b34801561069e57600080fd5b506106bd60048036038101908080359060200190929190505050611b2b565b6040518082815260200191505060405180910390f35b3480156106df57600080fd5b506106e8611b43565b604051808273ffffffffffffffffffffffffffffffffffffffff1673ffffffffffffffffffffffffffffffffffffffff16815260200191505060405180910390f35b34801561073657600080fd5b5061073f611b69565b604051808273ffffffffffffffffffffffffffffffffffffffff1673ffffffffffffffffffffffffffffffffffffffff16815260200191505060405180910390f35b34801561078d57600080fd5b506107d160048036038101908080359060200190929190803560ff169060200190929190803590602001908201803590602001919091929391929390505050611b92565b005b3480156107df57600080fd5b506107e8612200565b604051808215151515815260200191505060405180910390f35b34801561080e57600080fd5b50610817612257565b6040518082815260200191505060405180910390f35b61088b600480360381019080803573ffffffffffffffffffffffffffffffffffffffff169060200190929190803573ffffffffffffffffffffffffffffffffffffffff1690602001909291908035906020019092919050505061225d565b005b34801561089957600080fd5b506108a26127a0565b6040518080602001828103825283818151815260200191508051906020019060200280838360005b838110156108e55780820151818401526020810190506108ca565b505050509050019250505060405180910390f35b34801561090557600080fd5b5061093a600480360381019080803573ffffffffffffffffffffffffffffffffffffffff1690602001909291905050506127f8565b604051808215151515815260200191505060405180910390f35b34801561096057600080fd5b506109696129c2565b6040518082815260200191505060405180910390f35b6109bd600480360381019080803573ffffffffffffffffffffffffffffffffffffffff169060200190929190803590602001909291905050506129c8565b005b3480156109cb57600080fd5b506109ea60048036038101908080359060200190929190505050613024565b6040518082815260200191505060405180910390f35b348015610a0c57600080fd5b50610a41600480360381019080803573ffffffffffffffffffffffffffffffffffffffff16906020019092919050505061303c565b604051808215151515815260200191505060405180910390f35b348015610a6757600080fd5b50610a70613206565b6040518082815260200191505060405180910390f35b348015610a9257600080fd5b50610a9b61320c565b6040518082815260200191505060405180910390f35b348015610abd57600080fd5b50610af2600480360381019080803573ffffffffffffffffffffffffffffffffffffffff169060200190929190505050613212565b005b348015610b0057600080fd5b50610b5d600480360381019080803573ffffffffffffffffffffffffffffffffffffffff16906020019092919080359060200190929190803590602001909291908035906020019092919080359060200190929190505050613231565b005b348015610b6b57600080fd5b50610b7461334f565b604051808273ffffffffffffffffffffffffffffffffffffffff1673ffffffffffffffffffffffffffffffffffffffff16815260200191505060405180910390f35b348015610bc257600080fd5b50610be160048036038101908080359060200190929190505050613375565b6040518082815260200191505060405180910390f35b60008260036005816009811115610c0a57fe5b6009600085815260200190815260200160002060080160009054906101000a900460ff166009811115610c3957fe5b1480610c7d5750806009811115610c4c57fe5b6009600085815260200190815260200160002060080160009054906101000a900460ff166009811115610c7b57fe5b145b1515610c8857600080fd5b85610c91614b32565b6009600083815260200190815260200160002061014060405190810160405290816000820160009054906101000a900473ffffffffffffffffffffffffffffffffffffffff1673ffffffffffffffffffffffffffffffffffffffff1673ffffffffffffffffffffffffffffffffffffffff1681526020016001820160009054906101000a900473ffffffffffffffffffffffffffffffffffffffff1673ffffffffffffffffffffffffffffffffffffffff1673ffffffffffffffffffffffffffffffffffffffff1681526020016002820160009054906101000a900473ffffffffffffffffffffffffffffffffffffffff1673ffffffffffffffffffffffffffffffffffffffff1673ffffffffffffffffffffffffffffffffffffffff1681526020016003820160009054906101000a900473ffffffffffffffffffffffffffffffffffffffff1673ffffffffffffffffffffffffffffffffffffffff1673ffffffffffffffffffffffffffffffffffffffff168152602001600482015481526020016005820160009054906101000a900460ff166003811115610e3157fe5b6003811115610e3c57fe5b81526020016005820160019054906101000a900460ff166003811115610e5e57fe5b6003811115610e6957fe5b81526020016006820154600019166000191681526020016007820154600019166000191681526020016008820160009054906101000a900460ff166009811115610eaf57fe5b6009811115610eba57fe5b815250509050806000015173ffffffffffffffffffffffffffffffffffffffff163373ffffffffffffffffffffffffffffffffffffffff161480610f2d5750806020015173ffffffffffffffffffffffffffffffffffffffff163373ffffffffffffffffffffffffffffffffffffffff16145b1515610f3857600080fd5b600360149054906101000a900460ff16151515610f5457600080fd5b6009600089815260200190815260200160002095508560000160009054906101000a900473ffffffffffffffffffffffffffffffffffffffff1673ffffffffffffffffffffffffffffffffffffffff163373ffffffffffffffffffffffffffffffffffffffff161415610ff157600060010260001916866006015460001916141515610fdf57600080fd5b8686600601816000191690555061101d565b60006001026000191686600701546000191614151561100f57600080fd5b868660070181600019169055505b877f83e359f891d0a4ccad86acdab41f05e3ed86b2daa1571e0c73b7b2d712e1b8af33604051808273ffffffffffffffffffffffffffffffffffffffff1673ffffffffffffffffffffffffffffffffffffffff16815260200191505060405180910390a2600060010260001916866006015460001916141580156110b1575060006001026000191686600701546000191614155b156110c2576110c1886004613398565b5b5050505050505050565b60096020528060005260406000206000915090508060000160009054906101000a900473ffffffffffffffffffffffffffffffffffffffff16908060010160009054906101000a900473ffffffffffffffffffffffffffffffffffffffff16908060020160009054906101000a900473ffffffffffffffffffffffffffffffffffffffff16908060030160009054906101000a900473ffffffffffffffffffffffffffffffffffffffff16908060040154908060050160009054906101000a900460ff16908060050160019054906101000a900460ff16908060060154908060070154908060080160009054906101000a900460ff1690508a565b600260149054906101000a900460ff1681565b6000600c60008373ffffffffffffffffffffffffffffffffffffffff1673ffffffffffffffffffffffffffffffffffffffff168152602001908152602001600020805490509050919050565b6060600c60008373ffffffffffffffffffffffffffffffffffffffff1673ffffffffffffffffffffffffffffffffffffffff1681526020019081526020016000208054806020026020016040519081016040528092919081815260200182805480156112b157602002820191906000526020600020905b81548152602001906001019080831161129d575b50505050509050919050565b600260009054906101000a900473ffffffffffffffffffffffffffffffffffffffff1681565b60045481565b6000600a80549050905090565b600e6020528060005260406000206000915090505481565b600360149054906101000a900460ff1681565b6000600e600083815260200190815260200160002054421015801561135a57506000600e60008481526020019081526020016000205414155b9050919050565b611369614b32565b600082611374614b32565b6009600083815260200190815260200160002061014060405190810160405290816000820160009054906101000a900473ffffffffffffffffffffffffffffffffffffffff1673ffffffffffffffffffffffffffffffffffffffff1673ffffffffffffffffffffffffffffffffffffffff1681526020016001820160009054906101000a900473ffffffffffffffffffffffffffffffffffffffff1673ffffffffffffffffffffffffffffffffffffffff1673ffffffffffffffffffffffffffffffffffffffff1681526020016002820160009054906101000a900473ffffffffffffffffffffffffffffffffffffffff1673ffffffffffffffffffffffffffffffffffffffff1673ffffffffffffffffffffffffffffffffffffffff1681526020016003820160009054906101000a900473ffffffffffffffffffffffffffffffffffffffff1673ffffffffffffffffffffffffffffffffffffffff1673ffffffffffffffffffffffffffffffffffffffff168152602001600482015481526020016005820160009054906101000a900460ff16600381111561151457fe5b600381111561151f57fe5b81526020016005820160019054906101000a900460ff16600381111561154157fe5b600381111561154c57fe5b81526020016006820154600019166000191681526020016007820154600019166000191681526020016008820160009054906101000a900460ff16600981111561159257fe5b600981111561159d57fe5b815250509050806000015173ffffffffffffffffffffffffffffffffffffffff163373ffffffffffffffffffffffffffffffffffffffff1614806116105750806020015173ffffffffffffffffffffffffffffffffffffffff163373ffffffffffffffffffffffffffffffffffffffff16145b151561161b57600080fd5b84600180600981111561162a57fe5b6009600084815260200190815260200160002060080160009054906101000a900460ff16600981111561165957fe5b14151561166557600080fd5b600360149054906101000a900460ff1615151561168157600080fd5b61168c876002613398565b6009600088815260200190815260200160002061014060405190810160405290816000820160009054906101000a900473ffffffffffffffffffffffffffffffffffffffff1673ffffffffffffffffffffffffffffffffffffffff1673ffffffffffffffffffffffffffffffffffffffff1681526020016001820160009054906101000a900473ffffffffffffffffffffffffffffffffffffffff1673ffffffffffffffffffffffffffffffffffffffff1673ffffffffffffffffffffffffffffffffffffffff1681526020016002820160009054906101000a900473ffffffffffffffffffffffffffffffffffffffff1673ffffffffffffffffffffffffffffffffffffffff1673ffffffffffffffffffffffffffffffffffffffff1681526020016003820160009054906101000a900473ffffffffffffffffffffffffffffffffffffffff1673ffffffffffffffffffffffffffffffffffffffff1673ffffffffffffffffffffffffffffffffffffffff168152602001600482015481526020016005820160009054906101000a900460ff16600381111561182c57fe5b600381111561183757fe5b81526020016005820160019054906101000a900460ff16600381111561185957fe5b600381111561186457fe5b81526020016006820154600019166000191681526020016007820154600019166000191681526020016008820160009054906101000a900460ff1660098111156118aa57fe5b60098111156118b557fe5b8152505095506118d2866000015187606001518860800151613592565b94506118dc613aeb565b73ffffffffffffffffffffffffffffffffffffffff1663db47b45487600001518860600151886040518463ffffffff167c0100000000000000000000000000000000000000000000000000000000028152600401808473ffffffffffffffffffffffffffffffffffffffff1673ffffffffffffffffffffffffffffffffffffffff1681526020018373ffffffffffffffffffffffffffffffffffffffff1673ffffffffffffffffffffffffffffffffffffffff1681526020018281526020019350505050600060405180830381600087803b1580156119ba57600080fd5b505af11580156119ce573d6000803e3d6000fd5b505050506119dc3388613bef565b3373ffffffffffffffffffffffffffffffffffffffff16877f58f64e02b3a6d2a3bd28b7700a0a0d6699545bcb55bf917ac0ff670f3a509efb60405160405180910390a350505050505050565b611a31612200565b1515611a3c57600080fd5b600073ffffffffffffffffffffffffffffffffffffffff166000809054906101000a900473ffffffffffffffffffffffffffffffffffffffff1673ffffffffffffffffffffffffffffffffffffffff167f8be0079c531659141344cd1fd0a4f28419497f9722a3daafe3b4186f6b6457e060405160405180910390a360008060006101000a81548173ffffffffffffffffffffffffffffffffffffffff021916908373ffffffffffffffffffffffffffffffffffffffff160217905550565b600c60205281600052604060002081815481101515611b1657fe5b90600052602060002001600091509150505481565b600b6020528060005260406000206000915090505481565b600360009054906101000a900473ffffffffffffffffffffffffffffffffffffffff1681565b60008060009054906101000a900473ffffffffffffffffffffffffffffffffffffffff16905090565b60008460046005816009811115611ba557fe5b6009600085815260200190815260200160002060080160009054906101000a900460ff166009811115611bd457fe5b1480611c185750806009811115611be757fe5b6009600085815260200190815260200160002060080160009054906101000a900460ff166009811115611c1657fe5b145b1515611c2357600080fd5b87611c2c614b32565b6009600083815260200190815260200160002061014060405190810160405290816000820160009054906101000a900473ffffffffffffffffffffffffffffffffffffffff1673ffffffffffffffffffffffffffffffffffffffff1673ffffffffffffffffffffffffffffffffffffffff1681526020016001820160009054906101000a900473ffffffffffffffffffffffffffffffffffffffff1673ffffffffffffffffffffffffffffffffffffffff1673ffffffffffffffffffffffffffffffffffffffff1681526020016002820160009054906101000a900473ffffffffffffffffffffffffffffffffffffffff1673ffffffffffffffffffffffffffffffffffffffff1673ffffffffffffffffffffffffffffffffffffffff1681526020016003820160009054906101000a900473ffffffffffffffffffffffffffffffffffffffff1673ffffffffffffffffffffffffffffffffffffffff1673ffffffffffffffffffffffffffffffffffffffff168152602001600482015481526020016005820160009054906101000a900460ff166003811115611dcc57fe5b6003811115611dd757fe5b81526020016005820160019054906101000a900460ff166003811115611df957fe5b6003811115611e0457fe5b81526020016006820154600019166000191681526020016007820154600019166000191681526020016008820160009054906101000a900460ff166009811115611e4a57fe5b6009811115611e5557fe5b815250509050806000015173ffffffffffffffffffffffffffffffffffffffff163373ffffffffffffffffffffffffffffffffffffffff161480611ec85750806020015173ffffffffffffffffffffffffffffffffffffffff163373ffffffffffffffffffffffffffffffffffffffff16145b1515611ed357600080fd5b600360149054906101000a900460ff16151515611eef57600080fd5b600960008b8152602001908152602001600020955060006001026000191686600601546000191614151515611f2357600080fd5b60006001026000191686600701546000191614151515611f4257600080fd5b611f7f8a8a8a8a8080601f016020809104026020016040519081016040528093929190818152602001838380828437820191505050505050613da5565b1515611f8a57600080fd5b8560000160009054906101000a900473ffffffffffffffffffffffffffffffffffffffff1673ffffffffffffffffffffffffffffffffffffffff163373ffffffffffffffffffffffffffffffffffffffff1614156120425760006003811115611fef57fe5b8660050160009054906101000a900460ff16600381111561200c57fe5b14151561201857600080fd5b888660050160006101000a81548160ff0219169083600381111561203857fe5b021790555061209e565b6000600381111561204f57fe5b8660050160019054906101000a900460ff16600381111561206c57fe5b14151561207857600080fd5b888660050160016101000a81548160ff0219169083600381111561209857fe5b02179055505b897fd77afd661b696dda60ba1de96592d2e2de6d8b1a9f1deca5719d504053c828ea33604051808273ffffffffffffffffffffffffffffffffffffffff1673ffffffffffffffffffffffffffffffffffffffff16815260200191505060405180910390a261210a61415f565b73ffffffffffffffffffffffffffffffffffffffff1663e65777ef6040518163ffffffff167c0100000000000000000000000000000000000000000000000000000000028152600401600060405180830381600087803b15801561216d57600080fd5b505af1158015612181573d6000803e3d6000fd5b505050506000600381111561219257fe5b8660050160009054906101000a900460ff1660038111156121af57fe5b141580156121e55750600060038111156121c557fe5b8660050160019054906101000a900460ff1660038111156121e257fe5b14155b156121f4576121f38a614263565b5b50505050505050505050565b60008060009054906101000a900473ffffffffffffffffffffffffffffffffffffffff1673ffffffffffffffffffffffffffffffffffffffff163373ffffffffffffffffffffffffffffffffffffffff1614905090565b60055481565b600080600360149054906101000a900460ff1615151561227c57600080fd5b600073ffffffffffffffffffffffffffffffffffffffff168473ffffffffffffffffffffffffffffffffffffffff16141515156122b857600080fd5b60055483101515156122c957600080fd5b6122d1613aeb565b91506000341115612391578173ffffffffffffffffffffffffffffffffffffffff16634faa8a2634336040518363ffffffff167c0100000000000000000000000000000000000000000000000000000000028152600401808273ffffffffffffffffffffffffffffffffffffffff1673ffffffffffffffffffffffffffffffffffffffff1681526020019150506000604051808303818588803b15801561237757600080fd5b505af115801561238b573d6000803e3d6000fd5b50505050505b8173ffffffffffffffffffffffffffffffffffffffff166393cf99e63386866040518463ffffffff167c0100000000000000000000000000000000000000000000000000000000028152600401808473ffffffffffffffffffffffffffffffffffffffff1673ffffffffffffffffffffffffffffffffffffffff1681526020018373ffffffffffffffffffffffffffffffffffffffff1673ffffffffffffffffffffffffffffffffffffffff1681526020018281526020019350505050600060405180830381600087803b15801561246857600080fd5b505af115801561247c573d6000803e3d6000fd5b50505050600073ffffffffffffffffffffffffffffffffffffffff168573ffffffffffffffffffffffffffffffffffffffff16141515612682576124be61482b565b73ffffffffffffffffffffffffffffffffffffffff16637543e3f033876040518363ffffffff167c0100000000000000000000000000000000000000000000000000000000028152600401808373ffffffffffffffffffffffffffffffffffffffff1673ffffffffffffffffffffffffffffffffffffffff1681526020018273ffffffffffffffffffffffffffffffffffffffff1673ffffffffffffffffffffffffffffffffffffffff16815260200192505050600060405180830381600087803b15801561258c57600080fd5b505af11580156125a0573d6000803e3d6000fd5b505050503373ffffffffffffffffffffffffffffffffffffffff168573ffffffffffffffffffffffffffffffffffffffff167fdf63218877cb126f6c003f2b7f77327674cd6a0b53ad51deac392548ec12b0ed60405160405180910390a361260661415f565b73ffffffffffffffffffffffffffffffffffffffff16633e5224586040518163ffffffff167c0100000000000000000000000000000000000000000000000000000000028152600401600060405180830381600087803b15801561266957600080fd5b505af115801561267d573d6000803e3d6000fd5b505050505b6004600081548092919060010191905055506009600060045481526020019081526020016000209050338160000160006101000a81548173ffffffffffffffffffffffffffffffffffffffff021916908373ffffffffffffffffffffffffffffffffffffffff160217905550838160030160006101000a81548173ffffffffffffffffffffffffffffffffffffffff021916908373ffffffffffffffffffffffffffffffffffffffff1602179055508281600401819055506127476004546001613398565b6127533360045461492f565b3373ffffffffffffffffffffffffffffffffffffffff166004547fc3e0f84839dc888c892a013d10c8f9d6dc05a21a879d0ce468ca558013e9121c60405160405180910390a35050505050565b6060600a8054806020026020016040519081016040528092919081815260200182805480156127ee57602002820191906000526020600020905b8154815260200190600101908083116127da575b5050505050905090565b600080612803612200565b151561280e57600080fd5b600073ffffffffffffffffffffffffffffffffffffffff168373ffffffffffffffffffffffffffffffffffffffff161415151561284a57600080fd5b8273ffffffffffffffffffffffffffffffffffffffff16600160009054906101000a900473ffffffffffffffffffffffffffffffffffffffff1673ffffffffffffffffffffffffffffffffffffffff16141515156128a757600080fd5b6128b08361499c565b15156128bb57600080fd5b600160009054906101000a900473ffffffffffffffffffffffffffffffffffffffff16905082600160006101000a81548173ffffffffffffffffffffffffffffffffffffffff021916908373ffffffffffffffffffffffffffffffffffffffff1602179055507f3684250ce1e33b790ed973c23080f312db0adb21a6d98c61a5c9ff99e4babc178184604051808373ffffffffffffffffffffffffffffffffffffffff1673ffffffffffffffffffffffffffffffffffffffff1681526020018273ffffffffffffffffffffffffffffffffffffffff1673ffffffffffffffffffffffffffffffffffffffff1681526020019250505060405180910390a16001915050919050565b60075481565b6000808260018060098111156129da57fe5b6009600084815260200190815260200160002060080160009054906101000a900460ff166009811115612a0957fe5b141515612a1557600080fd5b600360149054906101000a900460ff16151515612a3157600080fd5b612a39613aeb565b9350600960008681526020019081526020016000209250600073ffffffffffffffffffffffffffffffffffffffff168360000160009054906101000a900473ffffffffffffffffffffffffffffffffffffffff1673ffffffffffffffffffffffffffffffffffffffff1614151515612ab057600080fd5b8260000160009054906101000a900473ffffffffffffffffffffffffffffffffffffffff1673ffffffffffffffffffffffffffffffffffffffff163373ffffffffffffffffffffffffffffffffffffffff1614151515612b0f57600080fd5b600073ffffffffffffffffffffffffffffffffffffffff168360010160009054906101000a900473ffffffffffffffffffffffffffffffffffffffff1673ffffffffffffffffffffffffffffffffffffffff16141515612b6e57600080fd5b6000341115612c2c578373ffffffffffffffffffffffffffffffffffffffff16634faa8a2634336040518363ffffffff167c0100000000000000000000000000000000000000000000000000000000028152600401808273ffffffffffffffffffffffffffffffffffffffff1673ffffffffffffffffffffffffffffffffffffffff1681526020019150506000604051808303818588803b158015612c1257600080fd5b505af1158015612c26573d6000803e3d6000fd5b50505050505b8373ffffffffffffffffffffffffffffffffffffffff166393cf99e6338560030160009054906101000a900473ffffffffffffffffffffffffffffffffffffffff1686600401546040518463ffffffff167c0100000000000000000000000000000000000000000000000000000000028152600401808473ffffffffffffffffffffffffffffffffffffffff1673ffffffffffffffffffffffffffffffffffffffff1681526020018373ffffffffffffffffffffffffffffffffffffffff1673ffffffffffffffffffffffffffffffffffffffff1681526020018281526020019350505050600060405180830381600087803b158015612d2b57600080fd5b505af1158015612d3f573d6000803e3d6000fd5b50505050600073ffffffffffffffffffffffffffffffffffffffff168673ffffffffffffffffffffffffffffffffffffffff16141515612f4557612d8161482b565b73ffffffffffffffffffffffffffffffffffffffff16637543e3f033886040518363ffffffff167c0100000000000000000000000000000000000000000000000000000000028152600401808373ffffffffffffffffffffffffffffffffffffffff1673ffffffffffffffffffffffffffffffffffffffff1681526020018273ffffffffffffffffffffffffffffffffffffffff1673ffffffffffffffffffffffffffffffffffffffff16815260200192505050600060405180830381600087803b158015612e4f57600080fd5b505af1158015612e63573d6000803e3d6000fd5b505050503373ffffffffffffffffffffffffffffffffffffffff168673ffffffffffffffffffffffffffffffffffffffff167fdf63218877cb126f6c003f2b7f77327674cd6a0b53ad51deac392548ec12b0ed60405160405180910390a3612ec961415f565b73ffffffffffffffffffffffffffffffffffffffff16633e5224586040518163ffffffff167c0100000000000000000000000000000000000000000000000000000000028152600401600060405180830381600087803b158015612f2c57600080fd5b505af1158015612f40573d6000803e3d6000fd5b505050505b338360010160006101000a81548173ffffffffffffffffffffffffffffffffffffffff021916908373ffffffffffffffffffffffffffffffffffffffff160217905550612f93856003613398565b612f9d338661492f565b3373ffffffffffffffffffffffffffffffffffffffff168360000160009054906101000a900473ffffffffffffffffffffffffffffffffffffffff1673ffffffffffffffffffffffffffffffffffffffff16867f8ca5b55df47712c5e59e7aaddc402fc30e6399e3498efec70a7e440bb9d2fac860405160405180910390a4505050505050565b600d6020528060005260406000206000915090505481565b600080613047612200565b151561305257600080fd5b600073ffffffffffffffffffffffffffffffffffffffff168373ffffffffffffffffffffffffffffffffffffffff161415151561308e57600080fd5b8273ffffffffffffffffffffffffffffffffffffffff16600260009054906101000a900473ffffffffffffffffffffffffffffffffffffffff1673ffffffffffffffffffffffffffffffffffffffff16141515156130eb57600080fd5b6130f48361499c565b15156130ff57600080fd5b600260009054906101000a900473ffffffffffffffffffffffffffffffffffffffff16905082600260006101000a81548173ffffffffffffffffffffffffffffffffffffffff021916908373ffffffffffffffffffffffffffffffffffffffff1602179055507f3684250ce1e33b790ed973c23080f312db0adb21a6d98c61a5c9ff99e4babc178184604051808373ffffffffffffffffffffffffffffffffffffffff1673ffffffffffffffffffffffffffffffffffffffff1681526020018273ffffffffffffffffffffffffffffffffffffffff1673ffffffffffffffffffffffffffffffffffffffff1681526020019250505060405180910390a16001915050919050565b60065481565b60085481565b61321a612200565b151561322557600080fd5b61322e816149af565b50565b613239611b69565b73ffffffffffffffffffffffffffffffffffffffff163373ffffffffffffffffffffffffffffffffffffffff1614151561327257600080fd5b600260149054906101000a900460ff1615151561328e57600080fd5b6001600260146101000a81548160ff0219169083151502179055506132b28561499c565b15156132bd57600080fd5b600583101515156132cd57600080fd5b8082111515156132dc57600080fd5b8181101515156132eb57600080fd5b84600360006101000a81548173ffffffffffffffffffffffffffffffffffffffff021916908373ffffffffffffffffffffffffffffffffffffffff160217905550836005819055508260068190555081600781905550806008819055505050505050565b600160009054906101000a900473ffffffffffffffffffffffffffffffffffffffff1681565b600a8181548110151561338457fe5b906000526020600020016000915090505481565b60008060006009600086815260200190815260200160002060080160009054906101000a900460ff169250600060098111156133d057fe5b8360098111156133dc57fe5b1480156133ff5750600160098111156133f157fe5b8460098111156133fd57fe5b145b1561343157600a8590806001815401808255809150509060018203906000526020600020016000909192909190915055505b6001600981111561343e57fe5b83600981111561344a57fe5b14801561346e57506001600981111561345f57fe5b84600981111561346b57fe5b14155b1561351b57600b6000868152602001908152602001600020549150600a6134a46001600a80549050614aa990919063ffffffff16565b8154811015156134b057fe5b9060005260206000200154905080600a838154811015156134cd57fe5b90600052602060002001819055506134f46001600a80549050614aa990919063ffffffff16565b600a816135019190614c05565b5081600b6000838152602001908152602001600020819055505b836009600087815260200190815260200160002060080160006101000a81548160ff0219169083600981111561354d57fe5b021790555083600981111561355e57fe5b857f5dea685f51eb021b820f697ac820348c0aa0635ac833c31b190077813d406e7660405160405180910390a35050505050565b60008060008060008060006135c66103e86135b86008548b614aca90919063ffffffff16565b614b0890919063ffffffff16565b95506135db8689614aa990919063ffffffff16565b94506135e561482b565b73ffffffffffffffffffffffffffffffffffffffff16633b0f0f2f8b6040518263ffffffff167c0100000000000000000000000000000000000000000000000000000000028152600401808273ffffffffffffffffffffffffffffffffffffffff1673ffffffffffffffffffffffffffffffffffffffff168152602001915050602060405180830381600087803b15801561367f57600080fd5b505af1158015613693573d6000803e3d6000fd5b505050506040513d60208110156136a957600080fd5b810190808051906020019092919050505093506136c4611b69565b9250600073ffffffffffffffffffffffffffffffffffffffff168473ffffffffffffffffffffffffffffffffffffffff161415156137f2576137256103e86137176007548b614aca90919063ffffffff16565b614b0890919063ffffffff16565b915061373a8287614aa990919063ffffffff16565b955061376182613753888b614aa990919063ffffffff16565b614aa990919063ffffffff16565b945061376b61415f565b73ffffffffffffffffffffffffffffffffffffffff16639e7cc2bf836040518263ffffffff167c010000000000000000000000000000000000000000000000000000000002815260040180828152602001915050600060405180830381600087803b1580156137d957600080fd5b505af11580156137ed573d6000803e3d6000fd5b505050505b6137fa613aeb565b90508073ffffffffffffffffffffffffffffffffffffffff16636fa8cbc08b8b868a6040518563ffffffff167c0100000000000000000000000000000000000000000000000000000000028152600401808573ffffffffffffffffffffffffffffffffffffffff1673ffffffffffffffffffffffffffffffffffffffff1681526020018473ffffffffffffffffffffffffffffffffffffffff1673ffffffffffffffffffffffffffffffffffffffff1681526020018373ffffffffffffffffffffffffffffffffffffffff1673ffffffffffffffffffffffffffffffffffffffff168152602001828152602001945050505050600060405180830381600087803b15801561390757600080fd5b505af115801561391b573d6000803e3d6000fd5b505050508073ffffffffffffffffffffffffffffffffffffffff16636fa8cbc08b8b87866040518563ffffffff167c0100000000000000000000000000000000000000000000000000000000028152600401808573ffffffffffffffffffffffffffffffffffffffff1673ffffffffffffffffffffffffffffffffffffffff1681526020018473ffffffffffffffffffffffffffffffffffffffff1673ffffffffffffffffffffffffffffffffffffffff1681526020018373ffffffffffffffffffffffffffffffffffffffff1673ffffffffffffffffffffffffffffffffffffffff168152602001828152602001945050505050600060405180830381600087803b158015613a2a57600080fd5b505af1158015613a3e573d6000803e3d6000fd5b505050508373ffffffffffffffffffffffffffffffffffffffff168973ffffffffffffffffffffffffffffffffffffffff167f7bc8117fccc0610fda4c3e1d09b833d7e90f929891a6609d76d19a745545422d8c85604051808373ffffffffffffffffffffffffffffffffffffffff1673ffffffffffffffffffffffffffffffffffffffff1681526020018281526020019250505060405180910390a38496505050505050509392505050565b6000600360009054906101000a900473ffffffffffffffffffffffffffffffffffffffff1673ffffffffffffffffffffffffffffffffffffffff1663b319c9e46040518163ffffffff167c01000000000000000000000000000000000000000000000000000000000281526004018080602001828103825260048152602001807f42616e6b00000000000000000000000000000000000000000000000000000000815250602001915050602060405180830381600087803b158015613baf57600080fd5b505af1158015613bc3573d6000803e3d6000fd5b505050506040513d6020811015613bd957600080fd5b8101908080519060200190929190505050905090565b600080600c60008573ffffffffffffffffffffffffffffffffffffffff1673ffffffffffffffffffffffffffffffffffffffff16815260200190815260200160002080549050111515613c4157600080fd5b600d6000838152602001908152602001600020549050600c60008473ffffffffffffffffffffffffffffffffffffffff1673ffffffffffffffffffffffffffffffffffffffff1681526020019081526020016000206001600c60008673ffffffffffffffffffffffffffffffffffffffff1673ffffffffffffffffffffffffffffffffffffffff1681526020019081526020016000208054905003815481101515613ce857fe5b9060005260206000200154600c60008573ffffffffffffffffffffffffffffffffffffffff1673ffffffffffffffffffffffffffffffffffffffff16815260200190815260200160002082815481101515613d3f57fe5b9060005260206000200181905550600c60008473ffffffffffffffffffffffffffffffffffffffff1673ffffffffffffffffffffffffffffffffffffffff168152602001908152602001600020805480919060019003613d9f9190614c05565b50505050565b600080613db0614b32565b6009600087815260200190815260200160002061014060405190810160405290816000820160009054906101000a900473ffffffffffffffffffffffffffffffffffffffff1673ffffffffffffffffffffffffffffffffffffffff1673ffffffffffffffffffffffffffffffffffffffff1681526020016001820160009054906101000a900473ffffffffffffffffffffffffffffffffffffffff1673ffffffffffffffffffffffffffffffffffffffff1673ffffffffffffffffffffffffffffffffffffffff1681526020016002820160009054906101000a900473ffffffffffffffffffffffffffffffffffffffff1673ffffffffffffffffffffffffffffffffffffffff1673ffffffffffffffffffffffffffffffffffffffff1681526020016003820160009054906101000a900473ffffffffffffffffffffffffffffffffffffffff1673ffffffffffffffffffffffffffffffffffffffff1673ffffffffffffffffffffffffffffffffffffffff168152602001600482015481526020016005820160009054906101000a900460ff166003811115613f5057fe5b6003811115613f5b57fe5b81526020016005820160019054906101000a900460ff166003811115613f7d57fe5b6003811115613f8857fe5b81526020016006820154600019166000191681526020016007820154600019166000191681526020016008820160009054906101000a900460ff166009811115613fce57fe5b6009811115613fd957fe5b815250509050806000015173ffffffffffffffffffffffffffffffffffffffff163373ffffffffffffffffffffffffffffffffffffffff16141561401f578060e0015191505b806020015173ffffffffffffffffffffffffffffffffffffffff163373ffffffffffffffffffffffffffffffffffffffff1614156140605780610100015191505b81600019168686600381111561407257fe5b866040516020018084815260200183815260200182805190602001908083835b6020831015156140b75780518252602082019150602081019050602083039250614092565b6001836020036101000a03801982511681845116808217855250505050505090500193505050506040516020818303038152906040526040518082805190602001908083835b60208310151561412257805182526020820191506020810190506020830392506140fd565b6001836020036101000a03801982511681845116808217855250505050505090500191505060405180910390206000191614925050509392505050565b6000600360009054906101000a900473ffffffffffffffffffffffffffffffffffffffff1673ffffffffffffffffffffffffffffffffffffffff1663b319c9e46040518163ffffffff167c010000000000000000000000000000000000000000000000000000000002815260040180806020018281038252600a8152602001807f5374617469737469637300000000000000000000000000000000000000000000815250602001915050602060405180830381600087803b15801561422357600080fd5b505af1158015614237573d6000803e3d6000fd5b505050506040513d602081101561424d57600080fd5b8101908080519060200190929190505050905090565b6000806000806000806009600088815260200190815260200160002095508560050160009054906101000a900460ff1694508560050160019054906101000a900460ff1693508560000160009054906101000a900473ffffffffffffffffffffffffffffffffffffffff1692508560010160009054906101000a900473ffffffffffffffffffffffffffffffffffffffff16915083600381111561430357fe5b85600381111561430f57fe5b141561438057614320876007613398565b8173ffffffffffffffffffffffffffffffffffffffff168373ffffffffffffffffffffffffffffffffffffffff16887f2a7d6d92e0d3b8ab88d4119ef10064881e1f27c1540005fe659cdc99afff28d060405160405180910390a4614822565b6001600381111561438d57fe5b85600381111561439957fe5b1480156143bc5750600260038111156143ae57fe5b8460038111156143ba57fe5b145b1561440957818660020160006101000a81548173ffffffffffffffffffffffffffffffffffffffff021916908373ffffffffffffffffffffffffffffffffffffffff1602179055506146b3565b6001600381111561441657fe5b85600381111561442257fe5b148015614444575060038081111561443657fe5b84600381111561444257fe5b145b1561449157828660020160006101000a81548173ffffffffffffffffffffffffffffffffffffffff021916908373ffffffffffffffffffffffffffffffffffffffff1602179055506146b2565b6002600381111561449e57fe5b8560038111156144aa57fe5b1480156144cd5750600160038111156144bf57fe5b8460038111156144cb57fe5b145b1561451a57828660020160006101000a81548173ffffffffffffffffffffffffffffffffffffffff021916908373ffffffffffffffffffffffffffffffffffffffff1602179055506146b1565b6002600381111561452757fe5b85600381111561453357fe5b148015614555575060038081111561454757fe5b84600381111561455357fe5b145b156145a257818660020160006101000a81548173ffffffffffffffffffffffffffffffffffffffff021916908373ffffffffffffffffffffffffffffffffffffffff1602179055506146b0565b6003808111156145ae57fe5b8560038111156145ba57fe5b1480156145dd5750600160038111156145cf57fe5b8460038111156145db57fe5b145b1561462a57818660020160006101000a81548173ffffffffffffffffffffffffffffffffffffffff021916908373ffffffffffffffffffffffffffffffffffffffff1602179055506146af565b60038081111561463657fe5b85600381111561464257fe5b14801561466557506002600381111561465757fe5b84600381111561466357fe5b145b156146ae57828660020160006101000a81548173ffffffffffffffffffffffffffffffffffffffff021916908373ffffffffffffffffffffffffffffffffffffffff1602179055505b5b5b5b5b5b6146be876008613398565b6146c661415f565b73ffffffffffffffffffffffffffffffffffffffff1663e9536a866040518163ffffffff167c0100000000000000000000000000000000000000000000000000000000028152600401600060405180830381600087803b15801561472957600080fd5b505af115801561473d573d6000803e3d6000fd5b505050508273ffffffffffffffffffffffffffffffffffffffff168660020160009054906101000a900473ffffffffffffffffffffffffffffffffffffffff1673ffffffffffffffffffffffffffffffffffffffff161461479e57826147a0565b815b90508073ffffffffffffffffffffffffffffffffffffffff168660020160009054906101000a900473ffffffffffffffffffffffffffffffffffffffff1673ffffffffffffffffffffffffffffffffffffffff16887fc1687643aebedb03e13efe9814eb027021238e2b00749b9b3a6571255db6f53360405160405180910390a45b50505050505050565b6000600360009054906101000a900473ffffffffffffffffffffffffffffffffffffffff1673ffffffffffffffffffffffffffffffffffffffff1663b319c9e46040518163ffffffff167c01000000000000000000000000000000000000000000000000000000000281526004018080602001828103825260098152602001807f526566657272616c730000000000000000000000000000000000000000000000815250602001915050602060405180830381600087803b1580156148ef57600080fd5b505af1158015614903573d6000803e3d6000fd5b505050506040513d602081101561491957600080fd5b8101908080519060200190929190505050905090565b600c60008373ffffffffffffffffffffffffffffffffffffffff1673ffffffffffffffffffffffffffffffffffffffff1681526020019081526020016000208190806001815401808255809150509060018203906000526020600020016000909192909190915055505050565b600080823b905060008111915050919050565b600073ffffffffffffffffffffffffffffffffffffffff168173ffffffffffffffffffffffffffffffffffffffff16141515156149eb57600080fd5b8073ffffffffffffffffffffffffffffffffffffffff166000809054906101000a900473ffffffffffffffffffffffffffffffffffffffff1673ffffffffffffffffffffffffffffffffffffffff167f8be0079c531659141344cd1fd0a4f28419497f9722a3daafe3b4186f6b6457e060405160405180910390a3806000806101000a81548173ffffffffffffffffffffffffffffffffffffffff021916908373ffffffffffffffffffffffffffffffffffffffff16021790555050565b600080838311151515614abb57600080fd5b82840390508091505092915050565b6000806000841415614adf5760009150614b01565b8284029050828482811515614af057fe5b04141515614afd57600080fd5b8091505b5092915050565b600080600083111515614b1a57600080fd5b8284811515614b2557fe5b0490508091505092915050565b61014060405190810160405280600073ffffffffffffffffffffffffffffffffffffffff168152602001600073ffffffffffffffffffffffffffffffffffffffff168152602001600073ffffffffffffffffffffffffffffffffffffffff168152602001600073ffffffffffffffffffffffffffffffffffffffff1681526020016000815260200160006003811115614bc757fe5b815260200160006003811115614bd957fe5b8152602001600080191681526020016000801916815260200160006009811115614bff57fe5b81525090565b815481835581811115614c2c57818360005260206000209182019101614c2b9190614c31565b5b505050565b614c5391905b80821115614c4f576000816000905550600101614c37565b5090565b905600a165627a7a723058208bd671ba857f3f41fbd44d90400b7fff11a395fb4431c81bc890116f71b1fe8e0029",
  "source": "pragma solidity ^0.4.25;\n\n// contracts\nimport \"./RockPaperScissorsCommon.sol\";\n\n\ncontract RockPaperScissorsCore is RockPaperScissorsCommon {\n\n  function choiceSecretMatches(\n    uint256 _gameId,\n    Choice _choice,\n    bytes _sig\n  )\n    internal\n    view\n    returns (bool)\n  {\n    bytes32 _secret;\n    Game memory _game = games[_gameId];\n\n    if (msg.sender == _game.addressP1) {\n      _secret = _game.choiceSecretP1;\n    }\n\n    if (msg.sender == _game.addressP2) {\n      _secret = _game.choiceSecretP2;\n    }\n\n    return keccak256(\n      abi.encodePacked(\n        _gameId,\n        uint256(_choice),\n        _sig\n    )) == _secret;\n  }\n\n  function initialize(\n    address _registryAddress,\n    uint256 _minBet,\n    uint256 _timeoutInSeconds,\n    uint256 _referralFeePerMille,\n    uint256 _feePerMille\n  )\n    external\n    initOneTimeOnly\n  {\n    require(isContract(_registryAddress));\n    require(_timeoutInSeconds >= 5);\n    require(_referralFeePerMille <= _feePerMille);\n    require(_feePerMille >= _referralFeePerMille);\n\n    registry = IRegistry(_registryAddress);\n    minBet = _minBet;\n    timeoutInSeconds = _timeoutInSeconds;\n    referralFeePerMille = _referralFeePerMille;\n    feePerMille = _feePerMille;\n  }\n\n  function allOpenGames()\n    external\n    view\n    returns (uint256[])\n  {\n    return openGames;\n  }\n\n  function openGamesLength()\n    external\n    view\n    returns (uint256)\n  {\n    return openGames.length;\n  }\n\n  function allActiveGamesOf(\n    address _address\n  )\n    external\n    view\n    returns (uint256[])\n  {\n    return activeGamesOf[_address];\n  }\n\n  function allActiveGamesOfLength(\n    address _address\n  )\n    external\n    view\n    returns (uint256)\n  {\n    return activeGamesOf[_address].length;\n  }\n\n  function gameHasTimedOut(\n    uint256 _gameId\n  )\n    external\n    view\n    returns (bool)\n  {\n    return block.timestamp >= timingOutGames[_gameId] && timingOutGames[_gameId] != 0;\n  }\n\n  //\n  // start game actions\n  //\n\n  function createGame(\n    address _referrer,\n    address _tokenAddress,\n    uint256 _value\n  )\n    external\n    payable\n    whenNotPaused\n  {\n    require(_tokenAddress != address(0));\n    require(_value >= minBet);\n\n    IBank _bank = getBank();\n\n    if (msg.value > 0) {\n      _bank.depositEtherFor.value(msg.value)(msg.sender);\n    }\n\n    _bank.allocateTokensOf(msg.sender, _tokenAddress, _value);\n\n    if (_referrer != address(0)) {\n      getReferrals().setReferral(msg.sender, _referrer);\n\n      emit ReferralSet(_referrer, msg.sender);\n\n      getStatistics().incrementTotalReferralCount();\n    }\n\n    lastGameId++;\n\n    Game storage _newGame = games[lastGameId];\n    _newGame.addressP1 = msg.sender;\n    _newGame.tokenAddress = _tokenAddress;\n    _newGame.bet = _value;\n\n    enterStage(lastGameId, Stage.Created);\n\n    addActiveGameOf(msg.sender, lastGameId);\n\n    emit GameCreated(lastGameId, msg.sender);\n  }\n\n  function cancelGame(\n    uint256 _gameId\n  )\n    external\n    onlyGameParticipant(_gameId)\n    atStage(_gameId, Stage.Created)\n    whenNotPaused\n  {\n    enterStage(_gameId, Stage.Cancelled);\n    Game memory _game = games[_gameId];\n    uint256 _refundAfterFees = processFee(_game.addressP1, _game.tokenAddress, _game.bet);\n\n    getBank().deAllocateTokensOf(_game.addressP1, _game.tokenAddress, _refundAfterFees);\n\n    removeActiveGameOf(msg.sender, _gameId);\n\n    emit GameCancelled(_gameId, msg.sender);\n  }\n\n  function joinGame(\n    address _referrer,\n    uint256 _gameId\n  )\n    external\n    payable\n    atStage(_gameId, Stage.Created)\n    whenNotPaused\n  {\n    IBank _bank = getBank();\n    Game storage _game = games[_gameId];\n\n    require(_game.addressP1 != address(0));\n    require(msg.sender != _game.addressP1);\n    require(_game.addressP2 == address(0));\n\n    if (msg.value > 0) {\n      _bank.depositEtherFor.value(msg.value)(msg.sender);\n    }\n    \n    _bank.allocateTokensOf(msg.sender, _game.tokenAddress, _game.bet);\n\n    if (_referrer != address(0)) {\n      getReferrals().setReferral(msg.sender, _referrer);\n\n      emit ReferralSet(_referrer, msg.sender);\n\n      getStatistics().incrementTotalReferralCount();\n    }\n\n    _game.addressP2 = msg.sender;\n\n    enterStage(_gameId, Stage.Ready);\n\n    addActiveGameOf(msg.sender, _gameId);\n\n    emit GameJoined(_gameId, _game.addressP1, msg.sender);\n  }\n\n  function commitChoice(\n    uint256 _gameId,\n    bytes32 _hash\n  )\n    external\n    atEitherStage(_gameId, Stage.Ready, Stage.TimingOut)\n    onlyGameParticipant(_gameId)\n    whenNotPaused\n  {\n    Game storage _game = games[_gameId];\n    if (msg.sender == _game.addressP1) {\n      require(_game.choiceSecretP1 == bytes32(0));\n      _game.choiceSecretP1 = _hash;\n    } else {\n      require(_game.choiceSecretP2 == bytes32(0));\n      _game.choiceSecretP2 = _hash;\n    }\n\n    emit ChoiceCommitted(_gameId, msg.sender);\n\n    if (_game.choiceSecretP1 != bytes32(0) && _game.choiceSecretP2 != bytes32(0)) {\n      enterStage(_gameId, Stage.Committed);\n    }\n  }\n\n  function revealChoice(\n    uint256 _gameId,\n    Choice _choice,\n    bytes _sig\n  )\n    external\n    atEitherStage(_gameId, Stage.Committed, Stage.TimingOut)\n    onlyGameParticipant(_gameId)\n    whenNotPaused\n  {\n    Game storage _game = games[_gameId];\n    require(_game.choiceSecretP1 != bytes32(0));\n    require(_game.choiceSecretP2 != bytes32(0));\n    require(choiceSecretMatches(_gameId, _choice, _sig));\n\n    if (msg.sender == _game.addressP1) {\n      require(_game.choiceP1 == Choice.Undecided);\n      _game.choiceP1 = _choice;\n    } else {\n      require(_game.choiceP2 == Choice.Undecided);\n      _game.choiceP2 = _choice;\n    }\n\n    emit ChoiceRevealed(_gameId, msg.sender);\n\n    getStatistics().incrementTotalPlayCount();\n\n    if (_game.choiceP1 != Choice.Undecided && _game.choiceP2 != Choice.Undecided) {\n      computeWinner(_gameId);\n    }\n  }\n\n  //\n  // end game actions\n  //\n\n  function()\n    external\n    payable\n  {\n    assembly {\n      // load value using *_slot suffix\n      let rpsManagement := sload(rpsManagement_slot)\n      // calldatacopy(t, f, s)\n      calldatacopy(\n        0x0, // t = mem position to\n        0x0, // f = mem position from\n        calldatasize // s = size bytes\n      )\n\n      // delegatecall(g, a, in, insize, out, outsize) => 0 on error 1 on success\n      let result := delegatecall(\n        gas, // g = gas\n        rpsManagement, // a = address\n        0x0, // in = mem in  mem[in..(in+insize)\n        calldatasize, // insize = mem insize  mem[in..(in+insize)\n        0x0, // out = mem out  mem[out..(out+outsize)\n        0 // outsize = mem outsize  mem[out..(out+outsize)\n      )\n\n      // check if call was a success and return if no errors & revert if errors\n      if iszero(result) {\n        revert(0, 0)\n      }\n\n      // returndatacopy(t, f, s)\n      returndatacopy(\n        0x0, // t = mem position to\n        0x0,  // f = mem position from\n        returndatasize // s = size bytes\n      )\n\n      return(\n        0x0,\n        returndatasize\n      )\n    }\n  }\n}",
  "sourcePath": "/Users/tovarishfin/dev/personal/rps/contracts/RockPaperScissorsCore.sol",
  "compiler": {
    "name": "solc",
    "version": "0.4.25+commit.59dbf8f1.Emscripten.clang"
  },
  "schemaVersion": "3.0.0",
  "updatedAt": "2018-12-31T00:26:15.494Z",
  "devdoc": {
    "methods": {
      "isOwner()": {
        "return": "true if `msg.sender` is the owner of the contract."
      },
      "owner()": {
        "return": "the address of the owner."
      },
      "renounceOwnership()": {
        "details": "Allows the current owner to relinquish control of the contract."
      },
      "transferOwnership(address)": {
        "details": "Allows the current owner to transfer control of the contract to a newOwner.",
        "params": {
          "newOwner": "The address to transfer ownership to."
        }
      }
    }
  },
  "userdoc": {
    "methods": {
      "renounceOwnership()": {
        "notice": "Renouncing to ownership will leave the contract without an owner. It will not be possible to call the functions with the `onlyOwner` modifier anymore."
      }
    }
  }
}