{
  "contractName": "RockPaperScissorsManagement",
  "abi": [
    {
      "constant": true,
      "inputs": [
        {
          "name": "",
          "type": "uint256"
        }
      ],
      "name": "games",
      "outputs": [
        {
          "name": "addressP1",
          "type": "address"
        },
        {
          "name": "addressP2",
          "type": "address"
        },
        {
          "name": "winner",
          "type": "address"
        },
        {
          "name": "tokenAddress",
          "type": "address"
        },
        {
          "name": "bet",
          "type": "uint256"
        },
        {
          "name": "choiceP1",
          "type": "uint8"
        },
        {
          "name": "choiceP2",
          "type": "uint8"
        },
        {
          "name": "choiceSecretP1",
          "type": "bytes32"
        },
        {
          "name": "choiceSecretP2",
          "type": "bytes32"
        },
        {
          "name": "stage",
          "type": "uint8"
        }
      ],
      "payable": false,
      "stateMutability": "view",
      "type": "function",
      "signature": "0x117a5b90"
    },
    {
      "constant": true,
      "inputs": [],
      "name": "initialized",
      "outputs": [
        {
          "name": "",
          "type": "bool"
        }
      ],
      "payable": false,
      "stateMutability": "view",
      "type": "function",
      "signature": "0x158ef93e"
    },
    {
      "constant": true,
      "inputs": [],
      "name": "rpsManagement",
      "outputs": [
        {
          "name": "",
          "type": "address"
        }
      ],
      "payable": false,
      "stateMutability": "view",
      "type": "function",
      "signature": "0x3721c9d7"
    },
    {
      "constant": true,
      "inputs": [],
      "name": "lastGameId",
      "outputs": [
        {
          "name": "",
          "type": "uint256"
        }
      ],
      "payable": false,
      "stateMutability": "view",
      "type": "function",
      "signature": "0x3ee9d648"
    },
    {
      "constant": true,
      "inputs": [
        {
          "name": "",
          "type": "uint256"
        }
      ],
      "name": "timingOutGames",
      "outputs": [
        {
          "name": "",
          "type": "uint256"
        }
      ],
      "payable": false,
      "stateMutability": "view",
      "type": "function",
      "signature": "0x4c470e7d"
    },
    {
      "constant": true,
      "inputs": [],
      "name": "paused",
      "outputs": [
        {
          "name": "",
          "type": "bool"
        }
      ],
      "payable": false,
      "stateMutability": "view",
      "type": "function",
      "signature": "0x5c975abb"
    },
    {
      "constant": false,
      "inputs": [],
      "name": "renounceOwnership",
      "outputs": [],
      "payable": false,
      "stateMutability": "nonpayable",
      "type": "function",
      "signature": "0x715018a6"
    },
    {
      "constant": true,
      "inputs": [
        {
          "name": "",
          "type": "address"
        },
        {
          "name": "",
          "type": "uint256"
        }
      ],
      "name": "activeGamesOf",
      "outputs": [
        {
          "name": "",
          "type": "uint256"
        }
      ],
      "payable": false,
      "stateMutability": "view",
      "type": "function",
      "signature": "0x722f74bb"
    },
    {
      "constant": true,
      "inputs": [
        {
          "name": "",
          "type": "uint256"
        }
      ],
      "name": "openGameIndex",
      "outputs": [
        {
          "name": "",
          "type": "uint256"
        }
      ],
      "payable": false,
      "stateMutability": "view",
      "type": "function",
      "signature": "0x781e7a29"
    },
    {
      "constant": true,
      "inputs": [],
      "name": "registry",
      "outputs": [
        {
          "name": "",
          "type": "address"
        }
      ],
      "payable": false,
      "stateMutability": "view",
      "type": "function",
      "signature": "0x7b103999"
    },
    {
      "constant": true,
      "inputs": [],
      "name": "owner",
      "outputs": [
        {
          "name": "",
          "type": "address"
        }
      ],
      "payable": false,
      "stateMutability": "view",
      "type": "function",
      "signature": "0x8da5cb5b"
    },
    {
      "constant": true,
      "inputs": [],
      "name": "isOwner",
      "outputs": [
        {
          "name": "",
          "type": "bool"
        }
      ],
      "payable": false,
      "stateMutability": "view",
      "type": "function",
      "signature": "0x8f32d59b"
    },
    {
      "constant": true,
      "inputs": [],
      "name": "minBet",
      "outputs": [
        {
          "name": "",
          "type": "uint256"
        }
      ],
      "payable": false,
      "stateMutability": "view",
      "type": "function",
      "signature": "0x9619367d"
    },
    {
      "constant": false,
      "inputs": [
        {
          "name": "_rpsCore",
          "type": "address"
        }
      ],
      "name": "upgradeRockPaperScissorsCore",
      "outputs": [
        {
          "name": "",
          "type": "bool"
        }
      ],
      "payable": false,
      "stateMutability": "nonpayable",
      "type": "function",
      "signature": "0xc1ef8f60"
    },
    {
      "constant": true,
      "inputs": [],
      "name": "referralFeePerMille",
      "outputs": [
        {
          "name": "",
          "type": "uint256"
        }
      ],
      "payable": false,
      "stateMutability": "view",
      "type": "function",
      "signature": "0xcc0d630f"
    },
    {
      "constant": true,
      "inputs": [
        {
          "name": "",
          "type": "uint256"
        }
      ],
      "name": "activeGameOfIndex",
      "outputs": [
        {
          "name": "",
          "type": "uint256"
        }
      ],
      "payable": false,
      "stateMutability": "view",
      "type": "function",
      "signature": "0xd63e96fa"
    },
    {
      "constant": false,
      "inputs": [
        {
          "name": "_rpsManagement",
          "type": "address"
        }
      ],
      "name": "upgradeRockPaperScissorsManagement",
      "outputs": [
        {
          "name": "",
          "type": "bool"
        }
      ],
      "payable": false,
      "stateMutability": "nonpayable",
      "type": "function",
      "signature": "0xeed6a925"
    },
    {
      "constant": true,
      "inputs": [],
      "name": "timeoutInSeconds",
      "outputs": [
        {
          "name": "",
          "type": "uint256"
        }
      ],
      "payable": false,
      "stateMutability": "view",
      "type": "function",
      "signature": "0xefec6cd4"
    },
    {
      "constant": true,
      "inputs": [],
      "name": "feePerMille",
      "outputs": [
        {
          "name": "",
          "type": "uint256"
        }
      ],
      "payable": false,
      "stateMutability": "view",
      "type": "function",
      "signature": "0xf08e2581"
    },
    {
      "constant": false,
      "inputs": [
        {
          "name": "newOwner",
          "type": "address"
        }
      ],
      "name": "transferOwnership",
      "outputs": [],
      "payable": false,
      "stateMutability": "nonpayable",
      "type": "function",
      "signature": "0xf2fde38b"
    },
    {
      "constant": true,
      "inputs": [],
      "name": "rpsCore",
      "outputs": [
        {
          "name": "",
          "type": "address"
        }
      ],
      "payable": false,
      "stateMutability": "view",
      "type": "function",
      "signature": "0xfab0e95e"
    },
    {
      "constant": true,
      "inputs": [
        {
          "name": "",
          "type": "uint256"
        }
      ],
      "name": "openGames",
      "outputs": [
        {
          "name": "",
          "type": "uint256"
        }
      ],
      "payable": false,
      "stateMutability": "view",
      "type": "function",
      "signature": "0xfd22a6cf"
    },
    {
      "anonymous": false,
      "inputs": [],
      "name": "Paused",
      "type": "event",
      "signature": "0x9e87fac88ff661f02d44f95383c817fece4bce600a3dab7a54406878b965e752"
    },
    {
      "anonymous": false,
      "inputs": [],
      "name": "Unpaused",
      "type": "event",
      "signature": "0xa45f47fdea8a1efdd9029a5691c7f759c32b7c698632b563573e155625d16933"
    },
    {
      "anonymous": false,
      "inputs": [
        {
          "indexed": true,
          "name": "gameId",
          "type": "uint256"
        },
        {
          "indexed": true,
          "name": "stage",
          "type": "uint256"
        }
      ],
      "name": "StageChanged",
      "type": "event",
      "signature": "0x5dea685f51eb021b820f697ac820348c0aa0635ac833c31b190077813d406e76"
    },
    {
      "anonymous": false,
      "inputs": [
        {
          "indexed": true,
          "name": "gameId",
          "type": "uint256"
        },
        {
          "indexed": true,
          "name": "creator",
          "type": "address"
        }
      ],
      "name": "GameCreated",
      "type": "event",
      "signature": "0xc3e0f84839dc888c892a013d10c8f9d6dc05a21a879d0ce468ca558013e9121c"
    },
    {
      "anonymous": false,
      "inputs": [
        {
          "indexed": true,
          "name": "gameId",
          "type": "uint256"
        },
        {
          "indexed": true,
          "name": "cancellor",
          "type": "address"
        }
      ],
      "name": "GameCancelled",
      "type": "event",
      "signature": "0x58f64e02b3a6d2a3bd28b7700a0a0d6699545bcb55bf917ac0ff670f3a509efb"
    },
    {
      "anonymous": false,
      "inputs": [
        {
          "indexed": true,
          "name": "gameId",
          "type": "uint256"
        },
        {
          "indexed": true,
          "name": "creator",
          "type": "address"
        },
        {
          "indexed": true,
          "name": "joiner",
          "type": "address"
        }
      ],
      "name": "GameJoined",
      "type": "event",
      "signature": "0x8ca5b55df47712c5e59e7aaddc402fc30e6399e3498efec70a7e440bb9d2fac8"
    },
    {
      "anonymous": false,
      "inputs": [
        {
          "indexed": true,
          "name": "gameId",
          "type": "uint256"
        },
        {
          "indexed": false,
          "name": "committer",
          "type": "address"
        }
      ],
      "name": "ChoiceCommitted",
      "type": "event",
      "signature": "0x83e359f891d0a4ccad86acdab41f05e3ed86b2daa1571e0c73b7b2d712e1b8af"
    },
    {
      "anonymous": false,
      "inputs": [
        {
          "indexed": true,
          "name": "gameId",
          "type": "uint256"
        },
        {
          "indexed": false,
          "name": "revealer",
          "type": "address"
        }
      ],
      "name": "ChoiceRevealed",
      "type": "event",
      "signature": "0xd77afd661b696dda60ba1de96592d2e2de6d8b1a9f1deca5719d504053c828ea"
    },
    {
      "anonymous": false,
      "inputs": [
        {
          "indexed": true,
          "name": "gameId",
          "type": "uint256"
        },
        {
          "indexed": true,
          "name": "initiator",
          "type": "address"
        },
        {
          "indexed": true,
          "name": "delayer",
          "type": "address"
        }
      ],
      "name": "TimeoutStarted",
      "type": "event",
      "signature": "0x2db65e2fe5797ddf058773a1668f8deaa867fcc2f70eee9949b06002fa7a1156"
    },
    {
      "anonymous": false,
      "inputs": [
        {
          "indexed": true,
          "name": "gameId",
          "type": "uint256"
        },
        {
          "indexed": true,
          "name": "winner",
          "type": "address"
        },
        {
          "indexed": true,
          "name": "loser",
          "type": "address"
        }
      ],
      "name": "TimedOut",
      "type": "event",
      "signature": "0x9d64dde12a7003ff91ddc34366380564dc534bd5e91baa6eb00ffdcf7d3cc61d"
    },
    {
      "anonymous": false,
      "inputs": [
        {
          "indexed": true,
          "name": "gameId",
          "type": "uint256"
        },
        {
          "indexed": true,
          "name": "player1",
          "type": "address"
        },
        {
          "indexed": true,
          "name": "player2",
          "type": "address"
        }
      ],
      "name": "Tied",
      "type": "event",
      "signature": "0x2a7d6d92e0d3b8ab88d4119ef10064881e1f27c1540005fe659cdc99afff28d0"
    },
    {
      "anonymous": false,
      "inputs": [
        {
          "indexed": true,
          "name": "gameId",
          "type": "uint256"
        },
        {
          "indexed": true,
          "name": "winner",
          "type": "address"
        },
        {
          "indexed": true,
          "name": "loser",
          "type": "address"
        }
      ],
      "name": "WinnerDecided",
      "type": "event",
      "signature": "0xc1687643aebedb03e13efe9814eb027021238e2b00749b9b3a6571255db6f533"
    },
    {
      "anonymous": false,
      "inputs": [
        {
          "indexed": true,
          "name": "gameId",
          "type": "uint256"
        },
        {
          "indexed": true,
          "name": "settler",
          "type": "address"
        },
        {
          "indexed": false,
          "name": "winnings",
          "type": "uint256"
        }
      ],
      "name": "BetSettled",
      "type": "event",
      "signature": "0x6f277b50171c654e40c771d9c2bbf19e070eeb21cce6f8e9a80334564279e395"
    },
    {
      "anonymous": false,
      "inputs": [
        {
          "indexed": true,
          "name": "referrer",
          "type": "address"
        },
        {
          "indexed": true,
          "name": "referree",
          "type": "address"
        }
      ],
      "name": "ReferralSet",
      "type": "event",
      "signature": "0xdf63218877cb126f6c003f2b7f77327674cd6a0b53ad51deac392548ec12b0ed"
    },
    {
      "anonymous": false,
      "inputs": [
        {
          "indexed": true,
          "name": "tokenAddress",
          "type": "address"
        },
        {
          "indexed": false,
          "name": "referred",
          "type": "address"
        },
        {
          "indexed": true,
          "name": "referrer",
          "type": "address"
        },
        {
          "indexed": false,
          "name": "value",
          "type": "uint256"
        }
      ],
      "name": "ReferralPaid",
      "type": "event",
      "signature": "0x7bc8117fccc0610fda4c3e1d09b833d7e90f929891a6609d76d19a745545422d"
    },
    {
      "anonymous": false,
      "inputs": [
        {
          "indexed": false,
          "name": "oldMinBet",
          "type": "uint256"
        },
        {
          "indexed": false,
          "name": "newMinBet",
          "type": "uint256"
        }
      ],
      "name": "MinBetUpdated",
      "type": "event",
      "signature": "0x3719cd5401c2d4ed5d6b10ce00a5f7334a6b3aab412ada7853cadec7e109c136"
    },
    {
      "anonymous": false,
      "inputs": [
        {
          "indexed": false,
          "name": "oldTimeout",
          "type": "uint256"
        },
        {
          "indexed": false,
          "name": "newTimeout",
          "type": "uint256"
        }
      ],
      "name": "TimeoutUpdated",
      "type": "event",
      "signature": "0xd39d06a36d5d84d4b605e6fae01c0508c0c2b4ce8b947edca81cd73d9242fd02"
    },
    {
      "anonymous": false,
      "inputs": [
        {
          "indexed": false,
          "name": "oldReferralFee",
          "type": "uint256"
        },
        {
          "indexed": false,
          "name": "newReferralFee",
          "type": "uint256"
        }
      ],
      "name": "ReferralFeeUpdated",
      "type": "event",
      "signature": "0xe6a16ded5057640d8831f18cd4885a75642c76b3fde5215975c3d9735027fa20"
    },
    {
      "anonymous": false,
      "inputs": [
        {
          "indexed": false,
          "name": "oldFee",
          "type": "uint256"
        },
        {
          "indexed": false,
          "name": "newFee",
          "type": "uint256"
        }
      ],
      "name": "FeeUpdated",
      "type": "event",
      "signature": "0x528d9479e9f9889a87a3c30c7f7ba537e5e59c4c85a37733b16e57c62df61302"
    },
    {
      "anonymous": false,
      "inputs": [
        {
          "indexed": false,
          "name": "upgradedFrom",
          "type": "address"
        },
        {
          "indexed": false,
          "name": "upgradedTo",
          "type": "address"
        }
      ],
      "name": "ProxyUpgraded",
      "type": "event",
      "signature": "0x3684250ce1e33b790ed973c23080f312db0adb21a6d98c61a5c9ff99e4babc17"
    },
    {
      "anonymous": false,
      "inputs": [
        {
          "indexed": true,
          "name": "previousOwner",
          "type": "address"
        },
        {
          "indexed": true,
          "name": "newOwner",
          "type": "address"
        }
      ],
      "name": "OwnershipTransferred",
      "type": "event",
      "signature": "0x8be0079c531659141344cd1fd0a4f28419497f9722a3daafe3b4186f6b6457e0"
    },
    {
      "constant": false,
      "inputs": [
        {
          "name": "_gameId",
          "type": "uint256"
        }
      ],
      "name": "removeActiveGame",
      "outputs": [],
      "payable": false,
      "stateMutability": "nonpayable",
      "type": "function",
      "signature": "0xccff0170"
    },
    {
      "constant": false,
      "inputs": [
        {
          "name": "_gameId",
          "type": "uint256"
        }
      ],
      "name": "startGameTimeout",
      "outputs": [],
      "payable": false,
      "stateMutability": "nonpayable",
      "type": "function",
      "signature": "0x8b566de1"
    },
    {
      "constant": false,
      "inputs": [
        {
          "name": "_gameId",
          "type": "uint256"
        }
      ],
      "name": "timeoutGame",
      "outputs": [],
      "payable": false,
      "stateMutability": "nonpayable",
      "type": "function",
      "signature": "0xb0d78a1d"
    },
    {
      "constant": false,
      "inputs": [
        {
          "name": "_gameId",
          "type": "uint256"
        }
      ],
      "name": "settleBet",
      "outputs": [],
      "payable": false,
      "stateMutability": "nonpayable",
      "type": "function",
      "signature": "0x16fd381a"
    },
    {
      "constant": false,
      "inputs": [],
      "name": "pause",
      "outputs": [],
      "payable": false,
      "stateMutability": "nonpayable",
      "type": "function",
      "signature": "0x8456cb59"
    },
    {
      "constant": false,
      "inputs": [],
      "name": "unpause",
      "outputs": [],
      "payable": false,
      "stateMutability": "nonpayable",
      "type": "function",
      "signature": "0x3f4ba83a"
    },
    {
      "constant": false,
      "inputs": [
        {
          "name": "_newMinBet",
          "type": "uint256"
        }
      ],
      "name": "updateMinBet",
      "outputs": [],
      "payable": false,
      "stateMutability": "nonpayable",
      "type": "function",
      "signature": "0xf7cf0aa1"
    },
    {
      "constant": false,
      "inputs": [
        {
          "name": "_newTimeoutInSeconds",
          "type": "uint256"
        }
      ],
      "name": "updateTimeout",
      "outputs": [],
      "payable": false,
      "stateMutability": "nonpayable",
      "type": "function",
      "signature": "0xa330214e"
    },
    {
      "constant": false,
      "inputs": [
        {
          "name": "_newReferralFeePerMille",
          "type": "uint256"
        }
      ],
      "name": "updateReferralFeePerMille",
      "outputs": [],
      "payable": false,
      "stateMutability": "nonpayable",
      "type": "function",
      "signature": "0xcec0a151"
    },
    {
      "constant": false,
      "inputs": [
        {
          "name": "_newFeePerMille",
          "type": "uint256"
        }
      ],
      "name": "updateFeePerMille",
      "outputs": [],
      "payable": false,
      "stateMutability": "nonpayable",
      "type": "function",
      "signature": "0x625c852f"
    }
  ],
  "bytecode": "0x6080604052336000806101000a81548173ffffffffffffffffffffffffffffffffffffffff021916908373ffffffffffffffffffffffffffffffffffffffff1602179055506000809054906101000a900473ffffffffffffffffffffffffffffffffffffffff1673ffffffffffffffffffffffffffffffffffffffff16600073ffffffffffffffffffffffffffffffffffffffff167f8be0079c531659141344cd1fd0a4f28419497f9722a3daafe3b4186f6b6457e060405160405180910390a361426c806100cf6000396000f300608060405260043610610196576000357c0100000000000000000000000000000000000000000000000000000000900463ffffffff168063117a5b901461019b578063158ef93e1461030557806316fd381a146103345780633721c9d7146103615780633ee9d648146103b85780633f4ba83a146103e35780634c470e7d146103fa5780635c975abb1461043b578063625c852f1461046a578063715018a614610497578063722f74bb146104ae578063781e7a291461050f5780637b103999146105505780638456cb59146105a75780638b566de1146105be5780638da5cb5b146105eb5780638f32d59b146106425780639619367d14610671578063a330214e1461069c578063b0d78a1d146106c9578063c1ef8f60146106f6578063cc0d630f14610751578063ccff01701461077c578063cec0a151146107a9578063d63e96fa146107d6578063eed6a92514610817578063efec6cd414610872578063f08e25811461089d578063f2fde38b146108c8578063f7cf0aa11461090b578063fab0e95e14610938578063fd22a6cf1461098f575b600080fd5b3480156101a757600080fd5b506101c6600480360381019080803590602001909291905050506109d0565b604051808b73ffffffffffffffffffffffffffffffffffffffff1673ffffffffffffffffffffffffffffffffffffffff1681526020018a73ffffffffffffffffffffffffffffffffffffffff1673ffffffffffffffffffffffffffffffffffffffff1681526020018973ffffffffffffffffffffffffffffffffffffffff1673ffffffffffffffffffffffffffffffffffffffff1681526020018873ffffffffffffffffffffffffffffffffffffffff1673ffffffffffffffffffffffffffffffffffffffff1681526020018781526020018660038111156102a457fe5b60ff1681526020018560038111156102b857fe5b60ff168152602001846000191660001916815260200183600019166000191681526020018260098111156102e857fe5b60ff1681526020019a505050505050505050505060405180910390f35b34801561031157600080fd5b5061031a610acb565b604051808215151515815260200191505060405180910390f35b34801561034057600080fd5b5061035f60048036038101908080359060200190929190505050610ade565b005b34801561036d57600080fd5b50610376610ef1565b604051808273ffffffffffffffffffffffffffffffffffffffff1673ffffffffffffffffffffffffffffffffffffffff16815260200191505060405180910390f35b3480156103c457600080fd5b506103cd610f17565b6040518082815260200191505060405180910390f35b3480156103ef57600080fd5b506103f8610f1d565b005b34801561040657600080fd5b5061042560048036038101908080359060200190929190505050610f94565b6040518082815260200191505060405180910390f35b34801561044757600080fd5b50610450610fac565b604051808215151515815260200191505060405180910390f35b34801561047657600080fd5b5061049560048036038101908080359060200190929190505050610fbf565b005b3480156104a357600080fd5b506104ac611034565b005b3480156104ba57600080fd5b506104f9600480360381019080803573ffffffffffffffffffffffffffffffffffffffff16906020019092919080359060200190929190505050611106565b6040518082815260200191505060405180910390f35b34801561051b57600080fd5b5061053a60048036038101908080359060200190929190505050611136565b6040518082815260200191505060405180910390f35b34801561055c57600080fd5b5061056561114e565b604051808273ffffffffffffffffffffffffffffffffffffffff1673ffffffffffffffffffffffffffffffffffffffff16815260200191505060405180910390f35b3480156105b357600080fd5b506105bc611174565b005b3480156105ca57600080fd5b506105e9600480360381019080803590602001909291905050506111ec565b005b3480156105f757600080fd5b50610600611bfb565b604051808273ffffffffffffffffffffffffffffffffffffffff1673ffffffffffffffffffffffffffffffffffffffff16815260200191505060405180910390f35b34801561064e57600080fd5b50610657611c24565b604051808215151515815260200191505060405180910390f35b34801561067d57600080fd5b50610686611c7b565b6040518082815260200191505060405180910390f35b3480156106a857600080fd5b506106c760048036038101908080359060200190929190505050611c81565b005b3480156106d557600080fd5b506106f460048036038101908080359060200190929190505050611cf5565b005b34801561070257600080fd5b50610737600480360381019080803573ffffffffffffffffffffffffffffffffffffffff16906020019092919050505061280d565b604051808215151515815260200191505060405180910390f35b34801561075d57600080fd5b506107666129d7565b6040518082815260200191505060405180910390f35b34801561078857600080fd5b506107a7600480360381019080803590602001909291905050506129dd565b005b3480156107b557600080fd5b506107d460048036038101908080359060200190929190505050612a06565b005b3480156107e257600080fd5b5061080160048036038101908080359060200190929190505050612a7b565b6040518082815260200191505060405180910390f35b34801561082357600080fd5b50610858600480360381019080803573ffffffffffffffffffffffffffffffffffffffff169060200190929190505050612a93565b604051808215151515815260200191505060405180910390f35b34801561087e57600080fd5b50610887612c5d565b6040518082815260200191505060405180910390f35b3480156108a957600080fd5b506108b2612c63565b6040518082815260200191505060405180910390f35b3480156108d457600080fd5b50610909600480360381019080803573ffffffffffffffffffffffffffffffffffffffff169060200190929190505050612c69565b005b34801561091757600080fd5b5061093660048036038101908080359060200190929190505050612c88565b005b34801561094457600080fd5b5061094d612cec565b604051808273ffffffffffffffffffffffffffffffffffffffff1673ffffffffffffffffffffffffffffffffffffffff16815260200191505060405180910390f35b34801561099b57600080fd5b506109ba60048036038101908080359060200190929190505050612d12565b6040518082815260200191505060405180910390f35b60096020528060005260406000206000915090508060000160009054906101000a900473ffffffffffffffffffffffffffffffffffffffff16908060010160009054906101000a900473ffffffffffffffffffffffffffffffffffffffff16908060020160009054906101000a900473ffffffffffffffffffffffffffffffffffffffff16908060030160009054906101000a900473ffffffffffffffffffffffffffffffffffffffff16908060040154908060050160009054906101000a900460ff16908060050160019054906101000a900460ff16908060060154908060070154908060080160009054906101000a900460ff1690508a565b600260149054906101000a900460ff1681565b610ae661411c565b600080600360149054906101000a900460ff16151515610b0557600080fd5b6009600085815260200190815260200160002061014060405190810160405290816000820160009054906101000a900473ffffffffffffffffffffffffffffffffffffffff1673ffffffffffffffffffffffffffffffffffffffff1673ffffffffffffffffffffffffffffffffffffffff1681526020016001820160009054906101000a900473ffffffffffffffffffffffffffffffffffffffff1673ffffffffffffffffffffffffffffffffffffffff1673ffffffffffffffffffffffffffffffffffffffff1681526020016002820160009054906101000a900473ffffffffffffffffffffffffffffffffffffffff1673ffffffffffffffffffffffffffffffffffffffff1673ffffffffffffffffffffffffffffffffffffffff1681526020016003820160009054906101000a900473ffffffffffffffffffffffffffffffffffffffff1673ffffffffffffffffffffffffffffffffffffffff1673ffffffffffffffffffffffffffffffffffffffff168152602001600482015481526020016005820160009054906101000a900460ff166003811115610ca557fe5b6003811115610cb057fe5b81526020016005820160019054906101000a900460ff166003811115610cd257fe5b6003811115610cdd57fe5b81526020016006820154600019166000191681526020016007820154600019166000191681526020016008820160009054906101000a900460ff166009811115610d2357fe5b6009811115610d2e57fe5b81525050925060068361012001516009811115610d4757fe5b10158015610d66575060088361012001516009811115610d6357fe5b11155b1515610d7157600080fd5b610d88836000015184606001518560800151612d35565b9150610da1836020015184606001518560800151612d35565b905060086009811115610db057fe5b8361012001516009811115610dc157fe5b1415610dd857610dd38484848461328e565b610e40565b60076009811115610de557fe5b8361012001516009811115610df657fe5b1415610e0d57610e0884848484613602565b610e3f565b60066009811115610e1a57fe5b8361012001516009811115610e2b57fe5b1415610e3e57610e3d8484848461328e565b5b5b5b610e4b8460096138a9565b610e53613aa3565b73ffffffffffffffffffffffffffffffffffffffff1663467d3eb1610e818385613ba790919063ffffffff16565b6040518263ffffffff167c010000000000000000000000000000000000000000000000000000000002815260040180828152602001915050600060405180830381600087803b158015610ed357600080fd5b505af1158015610ee7573d6000803e3d6000fd5b5050505050505050565b600260009054906101000a900473ffffffffffffffffffffffffffffffffffffffff1681565b60045481565b610f25611c24565b1515610f3057600080fd5b600360149054906101000a900460ff161515610f4b57600080fd5b6000600360146101000a81548160ff0219169083151502179055507fa45f47fdea8a1efdd9029a5691c7f759c32b7c698632b563573e155625d1693360405160405180910390a1565b600e6020528060005260406000206000915090505481565b600360149054906101000a900460ff1681565b6000610fc9611c24565b1515610fd457600080fd5b6007548210151515610fe557600080fd5b6008549050816008819055507f528d9479e9f9889a87a3c30c7f7ba537e5e59c4c85a37733b16e57c62df613028183604051808381526020018281526020019250505060405180910390a15050565b61103c611c24565b151561104757600080fd5b600073ffffffffffffffffffffffffffffffffffffffff166000809054906101000a900473ffffffffffffffffffffffffffffffffffffffff1673ffffffffffffffffffffffffffffffffffffffff167f8be0079c531659141344cd1fd0a4f28419497f9722a3daafe3b4186f6b6457e060405160405180910390a360008060006101000a81548173ffffffffffffffffffffffffffffffffffffffff021916908373ffffffffffffffffffffffffffffffffffffffff160217905550565b600c6020528160005260406000208181548110151561112157fe5b90600052602060002001600091509150505481565b600b6020528060005260406000206000915090505481565b600360009054906101000a900473ffffffffffffffffffffffffffffffffffffffff1681565b61117c611c24565b151561118757600080fd5b600360149054906101000a900460ff161515156111a357600080fd5b6001600360146101000a81548160ff0219169083151502179055507f9e87fac88ff661f02d44f95383c817fece4bce600a3dab7a54406878b965e75260405160405180910390a1565b6111f461411c565b6000600360149054906101000a900460ff1615151561121257600080fd5b826003600481600981111561122357fe5b6009600085815260200190815260200160002060080160009054906101000a900460ff16600981111561125257fe5b1480611296575080600981111561126557fe5b6009600085815260200190815260200160002060080160009054906101000a900460ff16600981111561129457fe5b145b15156112a157600080fd5b856112aa61411c565b6009600083815260200190815260200160002061014060405190810160405290816000820160009054906101000a900473ffffffffffffffffffffffffffffffffffffffff1673ffffffffffffffffffffffffffffffffffffffff1673ffffffffffffffffffffffffffffffffffffffff1681526020016001820160009054906101000a900473ffffffffffffffffffffffffffffffffffffffff1673ffffffffffffffffffffffffffffffffffffffff1673ffffffffffffffffffffffffffffffffffffffff1681526020016002820160009054906101000a900473ffffffffffffffffffffffffffffffffffffffff1673ffffffffffffffffffffffffffffffffffffffff1673ffffffffffffffffffffffffffffffffffffffff1681526020016003820160009054906101000a900473ffffffffffffffffffffffffffffffffffffffff1673ffffffffffffffffffffffffffffffffffffffff1673ffffffffffffffffffffffffffffffffffffffff168152602001600482015481526020016005820160009054906101000a900460ff16600381111561144a57fe5b600381111561145557fe5b81526020016005820160019054906101000a900460ff16600381111561147757fe5b600381111561148257fe5b81526020016006820154600019166000191681526020016007820154600019166000191681526020016008820160009054906101000a900460ff1660098111156114c857fe5b60098111156114d357fe5b815250509050806000015173ffffffffffffffffffffffffffffffffffffffff163373ffffffffffffffffffffffffffffffffffffffff1614806115465750806020015173ffffffffffffffffffffffffffffffffffffffff163373ffffffffffffffffffffffffffffffffffffffff16145b151561155157600080fd5b8761155a61411c565b6009600083815260200190815260200160002061014060405190810160405290816000820160009054906101000a900473ffffffffffffffffffffffffffffffffffffffff1673ffffffffffffffffffffffffffffffffffffffff1673ffffffffffffffffffffffffffffffffffffffff1681526020016001820160009054906101000a900473ffffffffffffffffffffffffffffffffffffffff1673ffffffffffffffffffffffffffffffffffffffff1673ffffffffffffffffffffffffffffffffffffffff1681526020016002820160009054906101000a900473ffffffffffffffffffffffffffffffffffffffff1673ffffffffffffffffffffffffffffffffffffffff1673ffffffffffffffffffffffffffffffffffffffff1681526020016003820160009054906101000a900473ffffffffffffffffffffffffffffffffffffffff1673ffffffffffffffffffffffffffffffffffffffff1673ffffffffffffffffffffffffffffffffffffffff168152602001600482015481526020016005820160009054906101000a900460ff1660038111156116fa57fe5b600381111561170557fe5b81526020016005820160019054906101000a900460ff16600381111561172757fe5b600381111561173257fe5b81526020016006820154600019166000191681526020016007820154600019166000191681526020016008820160009054906101000a900460ff16600981111561177857fe5b600981111561178357fe5b8152505090506003600981111561179657fe5b81610120015160098111156117a757fe5b1415611822576000600102600019168160e001516000191614806117db575060006001026000191681610100015160001916145b15156117e657600080fd5b6000600102600019168160e001516000191614158061181657506000600102600019168161010001516000191614155b151561182157600080fd5b5b6004600981111561182f57fe5b816101200151600981111561184057fe5b14156118e5576000600381111561185357fe5b8160a00151600381111561186357fe5b148061188957506000600381111561187757fe5b8160c00151600381111561188757fe5b145b151561189457600080fd5b600060038111156118a157fe5b8160a0015160038111156118b157fe5b1415806118d95750600060038111156118c657fe5b8160c0015160038111156118d657fe5b14155b15156118e457600080fd5b5b6118fa60065442613ba790919063ffffffff16565b600e60008c81526020019081526020016000208190555061191c8a60056138a9565b600960008b815260200190815260200160002061014060405190810160405290816000820160009054906101000a900473ffffffffffffffffffffffffffffffffffffffff1673ffffffffffffffffffffffffffffffffffffffff1673ffffffffffffffffffffffffffffffffffffffff1681526020016001820160009054906101000a900473ffffffffffffffffffffffffffffffffffffffff1673ffffffffffffffffffffffffffffffffffffffff1673ffffffffffffffffffffffffffffffffffffffff1681526020016002820160009054906101000a900473ffffffffffffffffffffffffffffffffffffffff1673ffffffffffffffffffffffffffffffffffffffff1673ffffffffffffffffffffffffffffffffffffffff1681526020016003820160009054906101000a900473ffffffffffffffffffffffffffffffffffffffff1673ffffffffffffffffffffffffffffffffffffffff1673ffffffffffffffffffffffffffffffffffffffff168152602001600482015481526020016005820160009054906101000a900460ff166003811115611abc57fe5b6003811115611ac757fe5b81526020016005820160019054906101000a900460ff166003811115611ae957fe5b6003811115611af457fe5b81526020016006820154600019166000191681526020016007820154600019166000191681526020016008820160009054906101000a900460ff166009811115611b3a57fe5b6009811115611b4557fe5b815250509850886000015173ffffffffffffffffffffffffffffffffffffffff163373ffffffffffffffffffffffffffffffffffffffff1614611b8c578860000151611b92565b88602001515b97508773ffffffffffffffffffffffffffffffffffffffff163373ffffffffffffffffffffffffffffffffffffffff168b7f2db65e2fe5797ddf058773a1668f8deaa867fcc2f70eee9949b06002fa7a115660405160405180910390a450505050505050505050565b60008060009054906101000a900473ffffffffffffffffffffffffffffffffffffffff16905090565b60008060009054906101000a900473ffffffffffffffffffffffffffffffffffffffff1673ffffffffffffffffffffffffffffffffffffffff163373ffffffffffffffffffffffffffffffffffffffff1614905090565b60055481565b6000611c8b611c24565b1515611c9657600080fd5b603c8210151515611ca657600080fd5b6006549050816006819055507fd39d06a36d5d84d4b605e6fae01c0508c0c2b4ce8b947edca81cd73d9242fd028183604051808381526020018281526020019250505060405180910390a15050565b600080600360149054906101000a900460ff16151515611d1457600080fd5b826005806009811115611d2357fe5b6009600084815260200190815260200160002060080160009054906101000a900460ff166009811115611d5257fe5b141515611d5e57600080fd5b84611d6761411c565b6009600083815260200190815260200160002061014060405190810160405290816000820160009054906101000a900473ffffffffffffffffffffffffffffffffffffffff1673ffffffffffffffffffffffffffffffffffffffff1673ffffffffffffffffffffffffffffffffffffffff1681526020016001820160009054906101000a900473ffffffffffffffffffffffffffffffffffffffff1673ffffffffffffffffffffffffffffffffffffffff1673ffffffffffffffffffffffffffffffffffffffff1681526020016002820160009054906101000a900473ffffffffffffffffffffffffffffffffffffffff1673ffffffffffffffffffffffffffffffffffffffff1673ffffffffffffffffffffffffffffffffffffffff1681526020016003820160009054906101000a900473ffffffffffffffffffffffffffffffffffffffff1673ffffffffffffffffffffffffffffffffffffffff1673ffffffffffffffffffffffffffffffffffffffff168152602001600482015481526020016005820160009054906101000a900460ff166003811115611f0757fe5b6003811115611f1257fe5b81526020016005820160019054906101000a900460ff166003811115611f3457fe5b6003811115611f3f57fe5b81526020016006820154600019166000191681526020016007820154600019166000191681526020016008820160009054906101000a900460ff166009811115611f8557fe5b6009811115611f9057fe5b815250509050806000015173ffffffffffffffffffffffffffffffffffffffff163373ffffffffffffffffffffffffffffffffffffffff1614806120035750806020015173ffffffffffffffffffffffffffffffffffffffff163373ffffffffffffffffffffffffffffffffffffffff16145b151561200e57600080fd5b8661201761411c565b6009600083815260200190815260200160002061014060405190810160405290816000820160009054906101000a900473ffffffffffffffffffffffffffffffffffffffff1673ffffffffffffffffffffffffffffffffffffffff1673ffffffffffffffffffffffffffffffffffffffff1681526020016001820160009054906101000a900473ffffffffffffffffffffffffffffffffffffffff1673ffffffffffffffffffffffffffffffffffffffff1673ffffffffffffffffffffffffffffffffffffffff1681526020016002820160009054906101000a900473ffffffffffffffffffffffffffffffffffffffff1673ffffffffffffffffffffffffffffffffffffffff1673ffffffffffffffffffffffffffffffffffffffff1681526020016003820160009054906101000a900473ffffffffffffffffffffffffffffffffffffffff1673ffffffffffffffffffffffffffffffffffffffff1673ffffffffffffffffffffffffffffffffffffffff168152602001600482015481526020016005820160009054906101000a900460ff1660038111156121b757fe5b60038111156121c257fe5b81526020016005820160019054906101000a900460ff1660038111156121e457fe5b60038111156121ef57fe5b81526020016006820154600019166000191681526020016007820154600019166000191681526020016008820160009054906101000a900460ff16600981111561223557fe5b600981111561224057fe5b8152505090506003600981111561225357fe5b816101200151600981111561226457fe5b14156122df576000600102600019168160e00151600019161480612298575060006001026000191681610100015160001916145b15156122a357600080fd5b6000600102600019168160e00151600019161415806122d357506000600102600019168161010001516000191614155b15156122de57600080fd5b5b600460098111156122ec57fe5b81610120015160098111156122fd57fe5b14156123a2576000600381111561231057fe5b8160a00151600381111561232057fe5b148061234657506000600381111561233457fe5b8160c00151600381111561234457fe5b145b151561235157600080fd5b6000600381111561235e57fe5b8160a00151600381111561236e57fe5b14158061239657506000600381111561238357fe5b8160c00151600381111561239357fe5b14155b15156123a157600080fd5b5b600e60008a81526020019081526020016000205442101515156123c457600080fd5b600960008a8152602001908152602001600020975060006001026000191688600601546000191614806124065750600060010260001916886007015460001916145b15612586576000600102600019168860060154600019161461244c578760000160009054906101000a900473ffffffffffffffffffffffffffffffffffffffff16612472565b8760010160009054906101000a900473ffffffffffffffffffffffffffffffffffffffff165b8860020160006101000a81548173ffffffffffffffffffffffffffffffffffffffff021916908373ffffffffffffffffffffffffffffffffffffffff1602179055508760000160009054906101000a900473ffffffffffffffffffffffffffffffffffffffff1673ffffffffffffffffffffffffffffffffffffffff168860020160009054906101000a900473ffffffffffffffffffffffffffffffffffffffff1673ffffffffffffffffffffffffffffffffffffffff1614612559578760000160009054906101000a900473ffffffffffffffffffffffffffffffffffffffff1661257f565b8760010160009054906101000a900473ffffffffffffffffffffffffffffffffffffffff165b9650612778565b6000600381111561259357fe5b8860050160009054906101000a900460ff1660038111156125b057fe5b14806125e35750600060038111156125c457fe5b8860050160019054906101000a900460ff1660038111156125e157fe5b145b1561277757600060038111156125f557fe5b8860050160009054906101000a900460ff16600381111561261257fe5b14612641578760000160009054906101000a900473ffffffffffffffffffffffffffffffffffffffff16612667565b8760010160009054906101000a900473ffffffffffffffffffffffffffffffffffffffff165b8860020160006101000a81548173ffffffffffffffffffffffffffffffffffffffff021916908373ffffffffffffffffffffffffffffffffffffffff1602179055508760000160009054906101000a900473ffffffffffffffffffffffffffffffffffffffff1673ffffffffffffffffffffffffffffffffffffffff168860020160009054906101000a900473ffffffffffffffffffffffffffffffffffffffff1673ffffffffffffffffffffffffffffffffffffffff161461274e578760000160009054906101000a900473ffffffffffffffffffffffffffffffffffffffff16612774565b8760010160009054906101000a900473ffffffffffffffffffffffffffffffffffffffff165b96505b5b6127838960066138a9565b8673ffffffffffffffffffffffffffffffffffffffff168860020160009054906101000a900473ffffffffffffffffffffffffffffffffffffffff1673ffffffffffffffffffffffffffffffffffffffff168a7f9d64dde12a7003ff91ddc34366380564dc534bd5e91baa6eb00ffdcf7d3cc61d60405160405180910390a4505050505050505050565b600080612818611c24565b151561282357600080fd5b600073ffffffffffffffffffffffffffffffffffffffff168373ffffffffffffffffffffffffffffffffffffffff161415151561285f57600080fd5b8273ffffffffffffffffffffffffffffffffffffffff16600160009054906101000a900473ffffffffffffffffffffffffffffffffffffffff1673ffffffffffffffffffffffffffffffffffffffff16141515156128bc57600080fd5b6128c583613bc8565b15156128d057600080fd5b600160009054906101000a900473ffffffffffffffffffffffffffffffffffffffff16905082600160006101000a81548173ffffffffffffffffffffffffffffffffffffffff021916908373ffffffffffffffffffffffffffffffffffffffff1602179055507f3684250ce1e33b790ed973c23080f312db0adb21a6d98c61a5c9ff99e4babc178184604051808373ffffffffffffffffffffffffffffffffffffffff1673ffffffffffffffffffffffffffffffffffffffff1681526020018273ffffffffffffffffffffffffffffffffffffffff1673ffffffffffffffffffffffffffffffffffffffff1681526020019250505060405180910390a16001915050919050565b60075481565b600360149054906101000a900460ff161515156129f957600080fd5b612a033382613bdb565b50565b6000612a10611c24565b1515612a1b57600080fd5b6008548211151515612a2c57600080fd5b6007549050816007819055507fe6a16ded5057640d8831f18cd4885a75642c76b3fde5215975c3d9735027fa208183604051808381526020018281526020019250505060405180910390a15050565b600d6020528060005260406000206000915090505481565b600080612a9e611c24565b1515612aa957600080fd5b600073ffffffffffffffffffffffffffffffffffffffff168373ffffffffffffffffffffffffffffffffffffffff1614151515612ae557600080fd5b8273ffffffffffffffffffffffffffffffffffffffff16600260009054906101000a900473ffffffffffffffffffffffffffffffffffffffff1673ffffffffffffffffffffffffffffffffffffffff1614151515612b4257600080fd5b612b4b83613bc8565b1515612b5657600080fd5b600260009054906101000a900473ffffffffffffffffffffffffffffffffffffffff16905082600260006101000a81548173ffffffffffffffffffffffffffffffffffffffff021916908373ffffffffffffffffffffffffffffffffffffffff1602179055507f3684250ce1e33b790ed973c23080f312db0adb21a6d98c61a5c9ff99e4babc178184604051808373ffffffffffffffffffffffffffffffffffffffff1673ffffffffffffffffffffffffffffffffffffffff1681526020018273ffffffffffffffffffffffffffffffffffffffff1673ffffffffffffffffffffffffffffffffffffffff1681526020019250505060405180910390a16001915050919050565b60065481565b60085481565b612c71611c24565b1515612c7c57600080fd5b612c8581613d91565b50565b6000612c92611c24565b1515612c9d57600080fd5b6005549050816005819055507f3719cd5401c2d4ed5d6b10ce00a5f7334a6b3aab412ada7853cadec7e109c1368183604051808381526020018281526020019250505060405180910390a15050565b600160009054906101000a900473ffffffffffffffffffffffffffffffffffffffff1681565b600a81815481101515612d2157fe5b906000526020600020016000915090505481565b6000806000806000806000612d696103e8612d5b6008548b613e8b90919063ffffffff16565b613ec990919063ffffffff16565b9550612d7e8689613ef390919063ffffffff16565b9450612d88613f14565b73ffffffffffffffffffffffffffffffffffffffff16633b0f0f2f8b6040518263ffffffff167c0100000000000000000000000000000000000000000000000000000000028152600401808273ffffffffffffffffffffffffffffffffffffffff1673ffffffffffffffffffffffffffffffffffffffff168152602001915050602060405180830381600087803b158015612e2257600080fd5b505af1158015612e36573d6000803e3d6000fd5b505050506040513d6020811015612e4c57600080fd5b81019080805190602001909291905050509350612e67611bfb565b9250600073ffffffffffffffffffffffffffffffffffffffff168473ffffffffffffffffffffffffffffffffffffffff16141515612f9557612ec86103e8612eba6007548b613e8b90919063ffffffff16565b613ec990919063ffffffff16565b9150612edd8287613ef390919063ffffffff16565b9550612f0482612ef6888b613ef390919063ffffffff16565b613ef390919063ffffffff16565b9450612f0e613aa3565b73ffffffffffffffffffffffffffffffffffffffff16639e7cc2bf836040518263ffffffff167c010000000000000000000000000000000000000000000000000000000002815260040180828152602001915050600060405180830381600087803b158015612f7c57600080fd5b505af1158015612f90573d6000803e3d6000fd5b505050505b612f9d614018565b90508073ffffffffffffffffffffffffffffffffffffffff16636fa8cbc08b8b868a6040518563ffffffff167c0100000000000000000000000000000000000000000000000000000000028152600401808573ffffffffffffffffffffffffffffffffffffffff1673ffffffffffffffffffffffffffffffffffffffff1681526020018473ffffffffffffffffffffffffffffffffffffffff1673ffffffffffffffffffffffffffffffffffffffff1681526020018373ffffffffffffffffffffffffffffffffffffffff1673ffffffffffffffffffffffffffffffffffffffff168152602001828152602001945050505050600060405180830381600087803b1580156130aa57600080fd5b505af11580156130be573d6000803e3d6000fd5b505050508073ffffffffffffffffffffffffffffffffffffffff16636fa8cbc08b8b87866040518563ffffffff167c0100000000000000000000000000000000000000000000000000000000028152600401808573ffffffffffffffffffffffffffffffffffffffff1673ffffffffffffffffffffffffffffffffffffffff1681526020018473ffffffffffffffffffffffffffffffffffffffff1673ffffffffffffffffffffffffffffffffffffffff1681526020018373ffffffffffffffffffffffffffffffffffffffff1673ffffffffffffffffffffffffffffffffffffffff168152602001828152602001945050505050600060405180830381600087803b1580156131cd57600080fd5b505af11580156131e1573d6000803e3d6000fd5b505050508373ffffffffffffffffffffffffffffffffffffffff168973ffffffffffffffffffffffffffffffffffffffff167f7bc8117fccc0610fda4c3e1d09b833d7e90f929891a6609d76d19a745545422d8c85604051808373ffffffffffffffffffffffffffffffffffffffff1673ffffffffffffffffffffffffffffffffffffffff1681526020018281526020019250505060405180910390a38496505050505050509392505050565b60008060008061329c614018565b9350866000015173ffffffffffffffffffffffffffffffffffffffff16876040015173ffffffffffffffffffffffffffffffffffffffff16146132e35786600001516132e9565b86602001515b9250866000015173ffffffffffffffffffffffffffffffffffffffff16876040015173ffffffffffffffffffffffffffffffffffffffff161461332c578461332e565b855b9150866000015173ffffffffffffffffffffffffffffffffffffffff168373ffffffffffffffffffffffffffffffffffffffff161461336d578461336f565b855b90508373ffffffffffffffffffffffffffffffffffffffff1663db47b45488604001518960600151856040518463ffffffff167c0100000000000000000000000000000000000000000000000000000000028152600401808473ffffffffffffffffffffffffffffffffffffffff1673ffffffffffffffffffffffffffffffffffffffff1681526020018373ffffffffffffffffffffffffffffffffffffffff1673ffffffffffffffffffffffffffffffffffffffff1681526020018281526020019350505050600060405180830381600087803b15801561345057600080fd5b505af1158015613464573d6000803e3d6000fd5b505050508373ffffffffffffffffffffffffffffffffffffffff16636fa8cbc08489606001518a60400151856040518563ffffffff167c0100000000000000000000000000000000000000000000000000000000028152600401808573ffffffffffffffffffffffffffffffffffffffff1673ffffffffffffffffffffffffffffffffffffffff1681526020018473ffffffffffffffffffffffffffffffffffffffff1673ffffffffffffffffffffffffffffffffffffffff1681526020018373ffffffffffffffffffffffffffffffffffffffff1673ffffffffffffffffffffffffffffffffffffffff168152602001828152602001945050505050600060405180830381600087803b15801561357b57600080fd5b505af115801561358f573d6000803e3d6000fd5b50505050866040015173ffffffffffffffffffffffffffffffffffffffff16887f6f277b50171c654e40c771d9c2bbf19e070eeb21cce6f8e9a80334564279e3956135e38486613ba790919063ffffffff16565b6040518082815260200191505060405180910390a35050505050505050565b600061360c614018565b90508073ffffffffffffffffffffffffffffffffffffffff1663db47b45485600001518660600151866040518463ffffffff167c0100000000000000000000000000000000000000000000000000000000028152600401808473ffffffffffffffffffffffffffffffffffffffff1673ffffffffffffffffffffffffffffffffffffffff1681526020018373ffffffffffffffffffffffffffffffffffffffff1673ffffffffffffffffffffffffffffffffffffffff1681526020018281526020019350505050600060405180830381600087803b1580156136ed57600080fd5b505af1158015613701573d6000803e3d6000fd5b505050508073ffffffffffffffffffffffffffffffffffffffff1663db47b45485602001518660600151856040518463ffffffff167c0100000000000000000000000000000000000000000000000000000000028152600401808473ffffffffffffffffffffffffffffffffffffffff1673ffffffffffffffffffffffffffffffffffffffff1681526020018373ffffffffffffffffffffffffffffffffffffffff1673ffffffffffffffffffffffffffffffffffffffff1681526020018281526020019350505050600060405180830381600087803b1580156137e457600080fd5b505af11580156137f8573d6000803e3d6000fd5b50505050836000015173ffffffffffffffffffffffffffffffffffffffff16857f6f277b50171c654e40c771d9c2bbf19e070eeb21cce6f8e9a80334564279e395856040518082815260200191505060405180910390a3836020015173ffffffffffffffffffffffffffffffffffffffff16857f6f277b50171c654e40c771d9c2bbf19e070eeb21cce6f8e9a80334564279e395846040518082815260200191505060405180910390a35050505050565b60008060006009600086815260200190815260200160002060080160009054906101000a900460ff169250600060098111156138e157fe5b8360098111156138ed57fe5b14801561391057506001600981111561390257fe5b84600981111561390e57fe5b145b1561394257600a8590806001815401808255809150509060018203906000526020600020016000909192909190915055505b6001600981111561394f57fe5b83600981111561395b57fe5b14801561397f57506001600981111561397057fe5b84600981111561397c57fe5b14155b15613a2c57600b6000868152602001908152602001600020549150600a6139b56001600a80549050613ef390919063ffffffff16565b8154811015156139c157fe5b9060005260206000200154905080600a838154811015156139de57fe5b9060005260206000200181905550613a056001600a80549050613ef390919063ffffffff16565b600a81613a1291906141ef565b5081600b6000838152602001908152602001600020819055505b836009600087815260200190815260200160002060080160006101000a81548160ff02191690836009811115613a5e57fe5b0217905550836009811115613a6f57fe5b857f5dea685f51eb021b820f697ac820348c0aa0635ac833c31b190077813d406e7660405160405180910390a35050505050565b6000600360009054906101000a900473ffffffffffffffffffffffffffffffffffffffff1673ffffffffffffffffffffffffffffffffffffffff1663b319c9e46040518163ffffffff167c010000000000000000000000000000000000000000000000000000000002815260040180806020018281038252600a8152602001807f5374617469737469637300000000000000000000000000000000000000000000815250602001915050602060405180830381600087803b158015613b6757600080fd5b505af1158015613b7b573d6000803e3d6000fd5b505050506040513d6020811015613b9157600080fd5b8101908080519060200190929190505050905090565b6000808284019050838110151515613bbe57600080fd5b8091505092915050565b600080823b905060008111915050919050565b600080600c60008573ffffffffffffffffffffffffffffffffffffffff1673ffffffffffffffffffffffffffffffffffffffff16815260200190815260200160002080549050111515613c2d57600080fd5b600d6000838152602001908152602001600020549050600c60008473ffffffffffffffffffffffffffffffffffffffff1673ffffffffffffffffffffffffffffffffffffffff1681526020019081526020016000206001600c60008673ffffffffffffffffffffffffffffffffffffffff1673ffffffffffffffffffffffffffffffffffffffff1681526020019081526020016000208054905003815481101515613cd457fe5b9060005260206000200154600c60008573ffffffffffffffffffffffffffffffffffffffff1673ffffffffffffffffffffffffffffffffffffffff16815260200190815260200160002082815481101515613d2b57fe5b9060005260206000200181905550600c60008473ffffffffffffffffffffffffffffffffffffffff1673ffffffffffffffffffffffffffffffffffffffff168152602001908152602001600020805480919060019003613d8b91906141ef565b50505050565b600073ffffffffffffffffffffffffffffffffffffffff168173ffffffffffffffffffffffffffffffffffffffff1614151515613dcd57600080fd5b8073ffffffffffffffffffffffffffffffffffffffff166000809054906101000a900473ffffffffffffffffffffffffffffffffffffffff1673ffffffffffffffffffffffffffffffffffffffff167f8be0079c531659141344cd1fd0a4f28419497f9722a3daafe3b4186f6b6457e060405160405180910390a3806000806101000a81548173ffffffffffffffffffffffffffffffffffffffff021916908373ffffffffffffffffffffffffffffffffffffffff16021790555050565b6000806000841415613ea05760009150613ec2565b8284029050828482811515613eb157fe5b04141515613ebe57600080fd5b8091505b5092915050565b600080600083111515613edb57600080fd5b8284811515613ee657fe5b0490508091505092915050565b600080838311151515613f0557600080fd5b82840390508091505092915050565b6000600360009054906101000a900473ffffffffffffffffffffffffffffffffffffffff1673ffffffffffffffffffffffffffffffffffffffff1663b319c9e46040518163ffffffff167c01000000000000000000000000000000000000000000000000000000000281526004018080602001828103825260098152602001807f526566657272616c730000000000000000000000000000000000000000000000815250602001915050602060405180830381600087803b158015613fd857600080fd5b505af1158015613fec573d6000803e3d6000fd5b505050506040513d602081101561400257600080fd5b8101908080519060200190929190505050905090565b6000600360009054906101000a900473ffffffffffffffffffffffffffffffffffffffff1673ffffffffffffffffffffffffffffffffffffffff1663b319c9e46040518163ffffffff167c01000000000000000000000000000000000000000000000000000000000281526004018080602001828103825260048152602001807f42616e6b00000000000000000000000000000000000000000000000000000000815250602001915050602060405180830381600087803b1580156140dc57600080fd5b505af11580156140f0573d6000803e3d6000fd5b505050506040513d602081101561410657600080fd5b8101908080519060200190929190505050905090565b61014060405190810160405280600073ffffffffffffffffffffffffffffffffffffffff168152602001600073ffffffffffffffffffffffffffffffffffffffff168152602001600073ffffffffffffffffffffffffffffffffffffffff168152602001600073ffffffffffffffffffffffffffffffffffffffff16815260200160008152602001600060038111156141b157fe5b8152602001600060038111156141c357fe5b81526020016000801916815260200160008019168152602001600060098111156141e957fe5b81525090565b81548183558181111561421657818360005260206000209182019101614215919061421b565b5b505050565b61423d91905b80821115614239576000816000905550600101614221565b5090565b905600a165627a7a723058205b51479baf2019de22ec5ce322d47a3a77e9db1e06985cb8fbb64cc7eff8bd730029",
  "source": "pragma solidity ^0.4.25;\n\nimport \"./RockPaperScissorsCommon.sol\";\n\n\ncontract RockPaperScissorsManagement is RockPaperScissorsCommon {\n\n  //\n  // start game management functions\n  //\n\n  function removeActiveGame(\n    uint256 _gameId\n  )\n    external\n    whenNotPaused\n  {\n    removeActiveGameOf(msg.sender, _gameId);\n  }\n\n  function startGameTimeout(\n    uint256 _gameId\n  )\n    external\n    whenNotPaused\n    atEitherStage(_gameId, Stage.Ready, Stage.Committed)\n    onlyGameParticipant(_gameId)\n    timeoutAllowed(_gameId)\n  {\n    timingOutGames[_gameId] = block.timestamp.add(timeoutInSeconds);\n\n    enterStage(_gameId, Stage.TimingOut);\n\n    Game memory _game = games[_gameId];\n    address _delayer = msg.sender == _game.addressP1 ? _game.addressP2 : _game.addressP1;\n\n    emit TimeoutStarted(_gameId, msg.sender, _delayer);\n  }\n\n  function timeoutGame(\n    uint256 _gameId\n  )\n    external\n    whenNotPaused\n    atStage(_gameId, Stage.TimingOut)\n    onlyGameParticipant(_gameId)\n    timeoutAllowed(_gameId)\n  {\n    require(block.timestamp >= timingOutGames[_gameId]);\n    Game storage _game = games[_gameId];\n    address _loser;\n    \n    if (_game.choiceSecretP1 == bytes32(0) || _game.choiceSecretP2 == bytes32(0)) {\n      _game.winner = _game.choiceSecretP1 == bytes32(0) \n        ? _game.addressP2 \n        : _game.addressP1;\n\n      _loser = _game.winner == _game.addressP1 ? _game.addressP2 : _game.addressP1;\n    } else if (_game.choiceP1 == Choice.Undecided || _game.choiceP2 == Choice.Undecided) {\n      _game.winner = _game.choiceP1 == Choice.Undecided\n        ? _game.addressP2\n        : _game.addressP1;\n\n      _loser = _game.winner == _game.addressP1 ? _game.addressP2 : _game.addressP1;\n    }\n\n    enterStage(_gameId, Stage.TimedOut);\n\n    emit TimedOut(_gameId, _game.winner, _loser);\n  }\n\n  function settleWinner(\n    uint256 _gameId,\n    Game memory _game,\n    uint256 _bet1AfterFees,\n    uint256 _bet2AfterFees\n  )\n    internal\n  {\n    IBank _bank = getBank();\n    address _loser = _game.winner == _game.addressP1 ? _game.addressP2 : _game.addressP1;\n    uint256 _deAllocationAmount = _game.winner == _game.addressP1 ? _bet1AfterFees : _bet2AfterFees;\n    uint256 _transferAmount = _loser == _game.addressP1 ? _bet1AfterFees : _bet2AfterFees;\n    _bank.deAllocateTokensOf(_game.winner, _game.tokenAddress, _deAllocationAmount);\n    _bank.transferAllocatedTokensOf(\n      _loser, \n      _game.tokenAddress, \n      _game.winner, \n      _transferAmount\n    );\n\n    emit BetSettled(\n      _gameId,\n      _game.winner,\n      _deAllocationAmount.add(_transferAmount)\n    );\n  }\n\n  function settleTied(\n    uint256 _gameId,\n    Game memory _game,\n    uint256 _bet1AfterFees,\n    uint256 _bet2AfterFees\n  )\n    internal\n  {\n    IBank _bank = getBank();\n    _bank.deAllocateTokensOf(_game.addressP1, _game.tokenAddress, _bet1AfterFees);\n    _bank.deAllocateTokensOf(_game.addressP2, _game.tokenAddress, _bet2AfterFees);\n\n    emit BetSettled(\n      _gameId,\n      _game.addressP1,\n      _bet1AfterFees\n    );\n\n    emit BetSettled(\n      _gameId,\n      _game.addressP2,\n      _bet2AfterFees\n    );\n  }\n\n  function settleBet(\n    uint256 _gameId\n  )\n    external\n    whenNotPaused\n  {\n    Game memory _game = games[_gameId];\n    // IMPORTANT: ensure this matches when/if stages are updated!\n    // ensure that Stage is any of: TimedOut, Tied, WinnerDecided\n    require(uint256(_game.stage) >= 6 && uint256(_game.stage) <= 8);\n    uint256 _bet1AfterFees = processFee(_game.addressP1, _game.tokenAddress, _game.bet);\n    uint256 _bet2AfterFees = processFee(_game.addressP2, _game.tokenAddress, _game.bet);\n\n    if (_game.stage == Stage.WinnerDecided) {\n      settleWinner(_gameId, _game, _bet1AfterFees, _bet2AfterFees);\n    } else if (_game.stage == Stage.Tied) {\n      settleTied(_gameId, _game, _bet1AfterFees, _bet2AfterFees);\n    } else if (_game.stage == Stage.TimedOut) {\n      settleWinner(_gameId, _game, _bet1AfterFees, _bet2AfterFees);\n    }\n\n    enterStage(_gameId, Stage.Paid);\n\n    getStatistics().incrementTotalWinVolume(_bet1AfterFees.add(_bet2AfterFees));\n  }\n\n  //\n  // end game management functions\n  //\n\n  //\n  // start owner only functions\n  //\n\n  function pause()\n    external\n    onlyOwner \n    whenNotPaused \n  {\n    paused = true;\n    emit Paused();\n  }\n\n  function unpause()\n    external \n    onlyOwner \n    whenPaused \n  {\n    paused = false;\n    emit Unpaused();\n  }\n\n  function updateMinBet(\n    uint256 _newMinBet\n  )\n    external\n    onlyOwner\n  {\n    uint256 _oldMinBet = minBet;\n    minBet = _newMinBet;\n\n    emit MinBetUpdated(_oldMinBet, _newMinBet);\n  }\n\n  function updateTimeout(\n    uint256 _newTimeoutInSeconds\n  )\n    external\n    onlyOwner\n  {\n    require(_newTimeoutInSeconds >= 60);\n\n    uint256 _oldTimeoutInSeconds = timeoutInSeconds;\n    timeoutInSeconds = _newTimeoutInSeconds;\n\n    emit TimeoutUpdated(_oldTimeoutInSeconds, _newTimeoutInSeconds);\n  }\n\n  function updateReferralFeePerMille(\n    uint256 _newReferralFeePerMille\n  )\n    external\n    onlyOwner\n  {\n    require(_newReferralFeePerMille <= feePerMille);\n\n    uint256 _oldReferralFeePerMille = referralFeePerMille;\n    referralFeePerMille = _newReferralFeePerMille;\n\n    emit ReferralFeeUpdated(_oldReferralFeePerMille, _newReferralFeePerMille);\n  }\n\n  function updateFeePerMille(\n    uint256 _newFeePerMille\n  )\n    external\n    onlyOwner\n  {\n    require(_newFeePerMille >= referralFeePerMille);\n\n    uint256 _oldFeePerMille = feePerMille;\n    feePerMille = _newFeePerMille;\n\n    emit FeeUpdated(_oldFeePerMille, _newFeePerMille);\n  }\n\n  //\n  // end owner only functions\n  //\n}",
  "sourcePath": "/Users/tovarishfin/dev/personal/rps/contracts/RockPaperScissorsManagement.sol",
  "compiler": {
    "name": "solc",
    "version": "0.4.25+commit.59dbf8f1.Emscripten.clang"
  },
  "schemaVersion": "3.0.0",
  "updatedAt": "2018-12-31T00:26:15.462Z",
  "devdoc": {
    "methods": {
      "isOwner()": {
        "return": "true if `msg.sender` is the owner of the contract."
      },
      "owner()": {
        "return": "the address of the owner."
      },
      "renounceOwnership()": {
        "details": "Allows the current owner to relinquish control of the contract."
      },
      "transferOwnership(address)": {
        "details": "Allows the current owner to transfer control of the contract to a newOwner.",
        "params": {
          "newOwner": "The address to transfer ownership to."
        }
      }
    }
  },
  "userdoc": {
    "methods": {
      "renounceOwnership()": {
        "notice": "Renouncing to ownership will leave the contract without an owner. It will not be possible to call the functions with the `onlyOwner` modifier anymore."
      }
    }
  }
}