{
  "contractName": "RockPaperScissors",
  "abi": [
    {
      "constant": true,
      "inputs": [
        {
          "name": "",
          "type": "uint256"
        }
      ],
      "name": "games",
      "outputs": [
        {
          "name": "addressP1",
          "type": "address"
        },
        {
          "name": "addressP2",
          "type": "address"
        },
        {
          "name": "winner",
          "type": "address"
        },
        {
          "name": "tokenAddress",
          "type": "address"
        },
        {
          "name": "bet",
          "type": "uint256"
        },
        {
          "name": "choiceP1",
          "type": "uint8"
        },
        {
          "name": "choiceP2",
          "type": "uint8"
        },
        {
          "name": "choiceSecretP1",
          "type": "bytes32"
        },
        {
          "name": "choiceSecretP2",
          "type": "bytes32"
        },
        {
          "name": "stage",
          "type": "uint8"
        }
      ],
      "payable": false,
      "stateMutability": "view",
      "type": "function"
    },
    {
      "constant": true,
      "inputs": [
        {
          "name": "",
          "type": "uint256"
        }
      ],
      "name": "activeGameIndex",
      "outputs": [
        {
          "name": "",
          "type": "uint256"
        }
      ],
      "payable": false,
      "stateMutability": "view",
      "type": "function"
    },
    {
      "constant": true,
      "inputs": [],
      "name": "lastGameId",
      "outputs": [
        {
          "name": "",
          "type": "uint256"
        }
      ],
      "payable": false,
      "stateMutability": "view",
      "type": "function"
    },
    {
      "constant": true,
      "inputs": [
        {
          "name": "",
          "type": "uint256"
        }
      ],
      "name": "timingOutGames",
      "outputs": [
        {
          "name": "",
          "type": "uint256"
        }
      ],
      "payable": false,
      "stateMutability": "view",
      "type": "function"
    },
    {
      "constant": false,
      "inputs": [],
      "name": "renounceOwnership",
      "outputs": [],
      "payable": false,
      "stateMutability": "nonpayable",
      "type": "function"
    },
    {
      "constant": true,
      "inputs": [
        {
          "name": "",
          "type": "address"
        },
        {
          "name": "",
          "type": "uint256"
        }
      ],
      "name": "activeGamesOf",
      "outputs": [
        {
          "name": "",
          "type": "uint256"
        }
      ],
      "payable": false,
      "stateMutability": "view",
      "type": "function"
    },
    {
      "constant": true,
      "inputs": [],
      "name": "registry",
      "outputs": [
        {
          "name": "",
          "type": "address"
        }
      ],
      "payable": false,
      "stateMutability": "view",
      "type": "function"
    },
    {
      "constant": true,
      "inputs": [],
      "name": "owner",
      "outputs": [
        {
          "name": "",
          "type": "address"
        }
      ],
      "payable": false,
      "stateMutability": "view",
      "type": "function"
    },
    {
      "constant": true,
      "inputs": [
        {
          "name": "",
          "type": "uint256"
        }
      ],
      "name": "rematchesFrom",
      "outputs": [
        {
          "name": "",
          "type": "uint256"
        }
      ],
      "payable": false,
      "stateMutability": "view",
      "type": "function"
    },
    {
      "constant": true,
      "inputs": [],
      "name": "isOwner",
      "outputs": [
        {
          "name": "",
          "type": "bool"
        }
      ],
      "payable": false,
      "stateMutability": "view",
      "type": "function"
    },
    {
      "constant": true,
      "inputs": [],
      "name": "minBet",
      "outputs": [
        {
          "name": "",
          "type": "uint256"
        }
      ],
      "payable": false,
      "stateMutability": "view",
      "type": "function"
    },
    {
      "constant": true,
      "inputs": [],
      "name": "referralFeePerMille",
      "outputs": [
        {
          "name": "",
          "type": "uint256"
        }
      ],
      "payable": false,
      "stateMutability": "view",
      "type": "function"
    },
    {
      "constant": true,
      "inputs": [],
      "name": "stats",
      "outputs": [
        {
          "name": "",
          "type": "address"
        }
      ],
      "payable": false,
      "stateMutability": "view",
      "type": "function"
    },
    {
      "constant": true,
      "inputs": [],
      "name": "timeoutInSeconds",
      "outputs": [
        {
          "name": "",
          "type": "uint256"
        }
      ],
      "payable": false,
      "stateMutability": "view",
      "type": "function"
    },
    {
      "constant": true,
      "inputs": [],
      "name": "feePerMille",
      "outputs": [
        {
          "name": "",
          "type": "uint256"
        }
      ],
      "payable": false,
      "stateMutability": "view",
      "type": "function"
    },
    {
      "constant": false,
      "inputs": [
        {
          "name": "newOwner",
          "type": "address"
        }
      ],
      "name": "transferOwnership",
      "outputs": [],
      "payable": false,
      "stateMutability": "nonpayable",
      "type": "function"
    },
    {
      "anonymous": false,
      "inputs": [
        {
          "indexed": true,
          "name": "gameId",
          "type": "uint256"
        },
        {
          "indexed": true,
          "name": "stage",
          "type": "uint256"
        }
      ],
      "name": "StageChanged",
      "type": "event"
    },
    {
      "anonymous": false,
      "inputs": [
        {
          "indexed": true,
          "name": "gameId",
          "type": "uint256"
        },
        {
          "indexed": false,
          "name": "committer",
          "type": "address"
        }
      ],
      "name": "ChoiceCommitted",
      "type": "event"
    },
    {
      "anonymous": false,
      "inputs": [
        {
          "indexed": true,
          "name": "gameId",
          "type": "uint256"
        },
        {
          "indexed": false,
          "name": "committer",
          "type": "address"
        }
      ],
      "name": "ChoiceRevealed",
      "type": "event"
    },
    {
      "anonymous": false,
      "inputs": [
        {
          "indexed": true,
          "name": "referrer",
          "type": "address"
        },
        {
          "indexed": true,
          "name": "referree",
          "type": "address"
        }
      ],
      "name": "ReferralSet",
      "type": "event"
    },
    {
      "anonymous": false,
      "inputs": [
        {
          "indexed": false,
          "name": "gameId",
          "type": "uint256"
        },
        {
          "indexed": false,
          "name": "rematchGameId",
          "type": "uint256"
        },
        {
          "indexed": true,
          "name": "addressP1",
          "type": "address"
        },
        {
          "indexed": true,
          "name": "addressP2",
          "type": "address"
        }
      ],
      "name": "RematchProposed",
      "type": "event"
    },
    {
      "anonymous": false,
      "inputs": [
        {
          "indexed": true,
          "name": "previousOwner",
          "type": "address"
        },
        {
          "indexed": true,
          "name": "newOwner",
          "type": "address"
        }
      ],
      "name": "OwnershipTransferred",
      "type": "event"
    },
    {
      "constant": true,
      "inputs": [
        {
          "name": "_gameId",
          "type": "uint256"
        },
        {
          "name": "_choice",
          "type": "uint8"
        },
        {
          "name": "_sig",
          "type": "bytes"
        }
      ],
      "name": "choiceSecretMatches",
      "outputs": [
        {
          "name": "",
          "type": "bool"
        }
      ],
      "payable": false,
      "stateMutability": "view",
      "type": "function"
    },
    {
      "constant": false,
      "inputs": [
        {
          "name": "_referrer",
          "type": "address"
        },
        {
          "name": "_tokenAddress",
          "type": "address"
        },
        {
          "name": "_value",
          "type": "uint256"
        }
      ],
      "name": "createGame",
      "outputs": [],
      "payable": true,
      "stateMutability": "payable",
      "type": "function"
    },
    {
      "constant": false,
      "inputs": [
        {
          "name": "_gameId",
          "type": "uint256"
        }
      ],
      "name": "cancelGame",
      "outputs": [],
      "payable": false,
      "stateMutability": "nonpayable",
      "type": "function"
    },
    {
      "constant": false,
      "inputs": [
        {
          "name": "_referrer",
          "type": "address"
        },
        {
          "name": "_gameId",
          "type": "uint256"
        }
      ],
      "name": "joinGame",
      "outputs": [],
      "payable": true,
      "stateMutability": "payable",
      "type": "function"
    },
    {
      "constant": false,
      "inputs": [
        {
          "name": "_gameId",
          "type": "uint256"
        }
      ],
      "name": "startGameTimeout",
      "outputs": [],
      "payable": false,
      "stateMutability": "nonpayable",
      "type": "function"
    },
    {
      "constant": false,
      "inputs": [
        {
          "name": "_gameId",
          "type": "uint256"
        }
      ],
      "name": "timeoutGame",
      "outputs": [],
      "payable": false,
      "stateMutability": "nonpayable",
      "type": "function"
    },
    {
      "constant": false,
      "inputs": [
        {
          "name": "_gameId",
          "type": "uint256"
        },
        {
          "name": "_hash",
          "type": "bytes32"
        }
      ],
      "name": "commitChoice",
      "outputs": [],
      "payable": false,
      "stateMutability": "nonpayable",
      "type": "function"
    },
    {
      "constant": false,
      "inputs": [
        {
          "name": "_gameId",
          "type": "uint256"
        },
        {
          "name": "_choice",
          "type": "uint8"
        },
        {
          "name": "_sig",
          "type": "bytes"
        }
      ],
      "name": "revealChoice",
      "outputs": [],
      "payable": false,
      "stateMutability": "nonpayable",
      "type": "function"
    },
    {
      "constant": false,
      "inputs": [
        {
          "name": "_gameId",
          "type": "uint256"
        }
      ],
      "name": "settleBet",
      "outputs": [],
      "payable": false,
      "stateMutability": "nonpayable",
      "type": "function"
    },
    {
      "constant": false,
      "inputs": [
        {
          "name": "_gameId",
          "type": "uint256"
        }
      ],
      "name": "rematch",
      "outputs": [],
      "payable": true,
      "stateMutability": "payable",
      "type": "function"
    },
    {
      "constant": false,
      "inputs": [
        {
          "name": "_newMinBet",
          "type": "uint256"
        }
      ],
      "name": "updateMinBet",
      "outputs": [],
      "payable": false,
      "stateMutability": "nonpayable",
      "type": "function"
    },
    {
      "constant": false,
      "inputs": [
        {
          "name": "_newTimeoutInSeconds",
          "type": "uint256"
        }
      ],
      "name": "updateTimeout",
      "outputs": [],
      "payable": false,
      "stateMutability": "nonpayable",
      "type": "function"
    },
    {
      "constant": false,
      "inputs": [
        {
          "name": "_newReferralFeePerMille",
          "type": "uint256"
        }
      ],
      "name": "updateReferralFeePerMille",
      "outputs": [],
      "payable": false,
      "stateMutability": "nonpayable",
      "type": "function"
    },
    {
      "constant": false,
      "inputs": [
        {
          "name": "_newFeePerMille",
          "type": "uint256"
        }
      ],
      "name": "updateFeePerMille",
      "outputs": [],
      "payable": false,
      "stateMutability": "nonpayable",
      "type": "function"
    }
  ],
  "bytecode": "0x6080604052336000806101000a81548173ffffffffffffffffffffffffffffffffffffffff021916908373ffffffffffffffffffffffffffffffffffffffff1602179055506000809054906101000a900473ffffffffffffffffffffffffffffffffffffffff1673ffffffffffffffffffffffffffffffffffffffff16600073ffffffffffffffffffffffffffffffffffffffff167f8be0079c531659141344cd1fd0a4f28419497f9722a3daafe3b4186f6b6457e060405160405180910390a3616e81806100cf6000396000f300608060405260043610610180576000357c0100000000000000000000000000000000000000000000000000000000900463ffffffff1680630b52538614610185578063117a5b90146101c057806316fd381a1461032a5780633dccf6a9146103575780633ee9d648146103985780634c470e7d146103c3578063625c852f1461040457806369958ab91461043157806370a902201461045e578063715018a61461047e578063722f74bb1461049557806372f0ec97146104f65780637b1039991461058e5780638b566de1146105e55780638da5cb5b146106125780638dc531f5146106695780638de8c05c146106bb5780638f32d59b146106fc5780639619367d1461072b578063a330214e14610756578063b0d78a1d14610783578063b718d70c146107b0578063cc0d630f14610810578063cd7628271461083b578063cec0a1511461087b578063d80528ae146108a8578063efec6cd4146108ff578063f08e25811461092a578063f2fde38b14610955578063f7cf0aa114610998575b600080fd5b34801561019157600080fd5b506101be6004803603810190808035906020019092919080356000191690602001909291905050506109c5565b005b3480156101cc57600080fd5b506101eb60048036038101908080359060200190929190505050610e3a565b604051808b73ffffffffffffffffffffffffffffffffffffffff1673ffffffffffffffffffffffffffffffffffffffff1681526020018a73ffffffffffffffffffffffffffffffffffffffff1673ffffffffffffffffffffffffffffffffffffffff1681526020018973ffffffffffffffffffffffffffffffffffffffff1673ffffffffffffffffffffffffffffffffffffffff1681526020018873ffffffffffffffffffffffffffffffffffffffff1673ffffffffffffffffffffffffffffffffffffffff1681526020018781526020018660038111156102c957fe5b60ff1681526020018560038111156102dd57fe5b60ff1681526020018460001916600019168152602001836000191660001916815260200182600a81111561030d57fe5b60ff1681526020019a505050505050505050505060405180910390f35b34801561033657600080fd5b5061035560048036038101908080359060200190929190505050610f35565b005b34801561036357600080fd5b5061038260048036038101908080359060200190929190505050612419565b6040518082815260200191505060405180910390f35b3480156103a457600080fd5b506103ad612431565b6040518082815260200191505060405180910390f35b3480156103cf57600080fd5b506103ee60048036038101908080359060200190929190505050612437565b6040518082815260200191505060405180910390f35b34801561041057600080fd5b5061042f6004803603810190808035906020019092919050505061244f565b005b34801561043d57600080fd5b5061045c6004803603810190808035906020019092919050505061247d565b005b61047c60048036038101908080359060200190929190505050612972565b005b34801561048a57600080fd5b5061049361375a565b005b3480156104a157600080fd5b506104e0600480360381019080803573ffffffffffffffffffffffffffffffffffffffff1690602001909291908035906020019092919050505061382c565b6040518082815260200191505060405180910390f35b34801561050257600080fd5b5061057460048036038101908080359060200190929190803560ff169060200190929190803590602001908201803590602001908080601f016020809104026020016040519081016040528093929190818152602001838380828437820191505050505050919291929050505061385c565b604051808215151515815260200191505060405180910390f35b34801561059a57600080fd5b506105a3613c16565b604051808273ffffffffffffffffffffffffffffffffffffffff1673ffffffffffffffffffffffffffffffffffffffff16815260200191505060405180910390f35b3480156105f157600080fd5b5061061060048036038101908080359060200190929190505050613c3c565b005b34801561061e57600080fd5b5061062761434e565b604051808273ffffffffffffffffffffffffffffffffffffffff1673ffffffffffffffffffffffffffffffffffffffff16815260200191505060405180910390f35b34801561067557600080fd5b506106b960048036038101908080359060200190929190803560ff169060200190929190803590602001908201803590602001919091929391929390505050614377565b005b3480156106c757600080fd5b506106e660048036038101908080359060200190929190505050614aed565b6040518082815260200191505060405180910390f35b34801561070857600080fd5b50610711614b05565b604051808215151515815260200191505060405180910390f35b34801561073757600080fd5b50610740614b5c565b6040518082815260200191505060405180910390f35b34801561076257600080fd5b5061078160048036038101908080359060200190929190505050614b62565b005b34801561078f57600080fd5b506107ae60048036038101908080359060200190929190505050614b8f565b005b61080e600480360381019080803573ffffffffffffffffffffffffffffffffffffffff169060200190929190803573ffffffffffffffffffffffffffffffffffffffff16906020019092919080359060200190929190505050614ebc565b005b34801561081c57600080fd5b506108256155b5565b6040518082815260200191505060405180910390f35b610879600480360381019080803573ffffffffffffffffffffffffffffffffffffffff169060200190929190803590602001909291905050506155bb565b005b34801561088757600080fd5b506108a660048036038101908080359060200190929190505050615db3565b005b3480156108b457600080fd5b506108bd615de1565b604051808273ffffffffffffffffffffffffffffffffffffffff1673ffffffffffffffffffffffffffffffffffffffff16815260200191505060405180910390f35b34801561090b57600080fd5b50610914615e07565b6040518082815260200191505060405180910390f35b34801561093657600080fd5b5061093f615e0d565b6040518082815260200191505060405180910390f35b34801561096157600080fd5b50610996600480360381019080803573ffffffffffffffffffffffffffffffffffffffff169060200190929190505050615e13565b005b3480156109a457600080fd5b506109c360048036038101908080359060200190929190505050615e32565b005b6000826004600681600a8111156109d857fe5b6008600085815260200190815260200160002060080160009054906101000a900460ff16600a811115610a0757fe5b1480610a4b575080600a811115610a1a57fe5b6008600085815260200190815260200160002060080160009054906101000a900460ff16600a811115610a4957fe5b145b1515610a5657600080fd5b85610a5f616d82565b6008600083815260200190815260200160002061014060405190810160405290816000820160009054906101000a900473ffffffffffffffffffffffffffffffffffffffff1673ffffffffffffffffffffffffffffffffffffffff1673ffffffffffffffffffffffffffffffffffffffff1681526020016001820160009054906101000a900473ffffffffffffffffffffffffffffffffffffffff1673ffffffffffffffffffffffffffffffffffffffff1673ffffffffffffffffffffffffffffffffffffffff1681526020016002820160009054906101000a900473ffffffffffffffffffffffffffffffffffffffff1673ffffffffffffffffffffffffffffffffffffffff1673ffffffffffffffffffffffffffffffffffffffff1681526020016003820160009054906101000a900473ffffffffffffffffffffffffffffffffffffffff1673ffffffffffffffffffffffffffffffffffffffff1673ffffffffffffffffffffffffffffffffffffffff168152602001600482015481526020016005820160009054906101000a900460ff166003811115610bff57fe5b6003811115610c0a57fe5b81526020016005820160019054906101000a900460ff166003811115610c2c57fe5b6003811115610c3757fe5b81526020016006820154600019166000191681526020016007820154600019166000191681526020016008820160009054906101000a900460ff16600a811115610c7d57fe5b600a811115610c8857fe5b815250509050806000015173ffffffffffffffffffffffffffffffffffffffff163373ffffffffffffffffffffffffffffffffffffffff161480610cfb5750806020015173ffffffffffffffffffffffffffffffffffffffff163373ffffffffffffffffffffffffffffffffffffffff16145b1515610d0657600080fd5b6008600089815260200190815260200160002095508560000160009054906101000a900473ffffffffffffffffffffffffffffffffffffffff1673ffffffffffffffffffffffffffffffffffffffff163373ffffffffffffffffffffffffffffffffffffffff161415610d855786866006018160001916905550610d93565b868660070181600019169055505b600060010286600601546000191614158015610dbb5750600060010286600701546000191614155b15610dcc57610dcb886005615e4f565b5b877f83e359f891d0a4ccad86acdab41f05e3ed86b2daa1571e0c73b7b2d712e1b8af33604051808273ffffffffffffffffffffffffffffffffffffffff1673ffffffffffffffffffffffffffffffffffffffff16815260200191505060405180910390a25050505050505050565b60086020528060005260406000206000915090508060000160009054906101000a900473ffffffffffffffffffffffffffffffffffffffff16908060010160009054906101000a900473ffffffffffffffffffffffffffffffffffffffff16908060020160009054906101000a900473ffffffffffffffffffffffffffffffffffffffff16908060030160009054906101000a900473ffffffffffffffffffffffffffffffffffffffff16908060040154908060050160009054906101000a900460ff16908060050160019054906101000a900460ff16908060060154908060070154908060080160009054906101000a900460ff1690508a565b6000806000806000806000806000806000600860008d81526020019081526020016000209a5060078b60080160009054906101000a900460ff16600a811115610f7a57fe5b10158015610fa5575060098b60080160009054906101000a900460ff16600a811115610fa257fe5b11155b1515610fb057600080fd5b6110078b60000160009054906101000a900473ffffffffffffffffffffffffffffffffffffffff168c60030160009054906101000a900473ffffffffffffffffffffffffffffffffffffffff168d60040154615ec3565b99506110608b60010160009054906101000a900473ffffffffffffffffffffffffffffffffffffffff168c60030160009054906101000a900473ffffffffffffffffffffffffffffffffffffffff168d60040154615ec3565b985061106a61654b565b97506009600a81111561107957fe5b8b60080160009054906101000a900460ff16600a81111561109657fe5b1415611747578a60000160009054906101000a900473ffffffffffffffffffffffffffffffffffffffff1673ffffffffffffffffffffffffffffffffffffffff168b60020160009054906101000a900473ffffffffffffffffffffffffffffffffffffffff1673ffffffffffffffffffffffffffffffffffffffff1614611141578a60000160009054906101000a900473ffffffffffffffffffffffffffffffffffffffff16611167565b8a60010160009054906101000a900473ffffffffffffffffffffffffffffffffffffffff165b9650600073ffffffffffffffffffffffffffffffffffffffff168b60030160009054906101000a900473ffffffffffffffffffffffffffffffffffffffff1673ffffffffffffffffffffffffffffffffffffffff16141561149f578a60000160009054906101000a900473ffffffffffffffffffffffffffffffffffffffff1673ffffffffffffffffffffffffffffffffffffffff168b60020160009054906101000a900473ffffffffffffffffffffffffffffffffffffffff1673ffffffffffffffffffffffffffffffffffffffff16146112435788611245565b895b95508a60000160009054906101000a900473ffffffffffffffffffffffffffffffffffffffff1673ffffffffffffffffffffffffffffffffffffffff168773ffffffffffffffffffffffffffffffffffffffff16146112a457886112a6565b895b94508773ffffffffffffffffffffffffffffffffffffffff166377b9ded58c60020160009054906101000a900473ffffffffffffffffffffffffffffffffffffffff16886040518363ffffffff167c0100000000000000000000000000000000000000000000000000000000028152600401808373ffffffffffffffffffffffffffffffffffffffff1673ffffffffffffffffffffffffffffffffffffffff16815260200182815260200192505050600060405180830381600087803b15801561136f57600080fd5b505af1158015611383573d6000803e3d6000fd5b505050508773ffffffffffffffffffffffffffffffffffffffff1663b0437069888d60020160009054906101000a900473ffffffffffffffffffffffffffffffffffffffff16886040518463ffffffff167c0100000000000000000000000000000000000000000000000000000000028152600401808473ffffffffffffffffffffffffffffffffffffffff1673ffffffffffffffffffffffffffffffffffffffff1681526020018373ffffffffffffffffffffffffffffffffffffffff1673ffffffffffffffffffffffffffffffffffffffff1681526020018281526020019350505050600060405180830381600087803b15801561148257600080fd5b505af1158015611496573d6000803e3d6000fd5b50505050611742565b8773ffffffffffffffffffffffffffffffffffffffff1663db47b4548c60020160009054906101000a900473ffffffffffffffffffffffffffffffffffffffff168d60030160009054906101000a900473ffffffffffffffffffffffffffffffffffffffff16896040518463ffffffff167c0100000000000000000000000000000000000000000000000000000000028152600401808473ffffffffffffffffffffffffffffffffffffffff1673ffffffffffffffffffffffffffffffffffffffff1681526020018373ffffffffffffffffffffffffffffffffffffffff1673ffffffffffffffffffffffffffffffffffffffff1681526020018281526020019350505050600060405180830381600087803b1580156115be57600080fd5b505af11580156115d2573d6000803e3d6000fd5b505050508773ffffffffffffffffffffffffffffffffffffffff16636fa8cbc0888d60030160009054906101000a900473ffffffffffffffffffffffffffffffffffffffff168e60020160009054906101000a900473ffffffffffffffffffffffffffffffffffffffff16896040518563ffffffff167c0100000000000000000000000000000000000000000000000000000000028152600401808573ffffffffffffffffffffffffffffffffffffffff1673ffffffffffffffffffffffffffffffffffffffff1681526020018473ffffffffffffffffffffffffffffffffffffffff1673ffffffffffffffffffffffffffffffffffffffff1681526020018373ffffffffffffffffffffffffffffffffffffffff1673ffffffffffffffffffffffffffffffffffffffff168152602001828152602001945050505050600060405180830381600087803b15801561172957600080fd5b505af115801561173d573d6000803e3d6000fd5b505050505b612360565b6008600a81111561175457fe5b8b60080160009054906101000a900460ff16600a81111561177157fe5b1415611c0757600073ffffffffffffffffffffffffffffffffffffffff168b60030160009054906101000a900473ffffffffffffffffffffffffffffffffffffffff1673ffffffffffffffffffffffffffffffffffffffff161415611993578773ffffffffffffffffffffffffffffffffffffffff166377b9ded58c60000160009054906101000a900473ffffffffffffffffffffffffffffffffffffffff168c6040518363ffffffff167c0100000000000000000000000000000000000000000000000000000000028152600401808373ffffffffffffffffffffffffffffffffffffffff1673ffffffffffffffffffffffffffffffffffffffff16815260200182815260200192505050600060405180830381600087803b15801561189757600080fd5b505af11580156118ab573d6000803e3d6000fd5b505050508773ffffffffffffffffffffffffffffffffffffffff166377b9ded58c60010160009054906101000a900473ffffffffffffffffffffffffffffffffffffffff168b6040518363ffffffff167c0100000000000000000000000000000000000000000000000000000000028152600401808373ffffffffffffffffffffffffffffffffffffffff1673ffffffffffffffffffffffffffffffffffffffff16815260200182815260200192505050600060405180830381600087803b15801561197657600080fd5b505af115801561198a573d6000803e3d6000fd5b50505050611c02565b8773ffffffffffffffffffffffffffffffffffffffff1663db47b4548c60000160009054906101000a900473ffffffffffffffffffffffffffffffffffffffff168d60030160009054906101000a900473ffffffffffffffffffffffffffffffffffffffff168d6040518463ffffffff167c0100000000000000000000000000000000000000000000000000000000028152600401808473ffffffffffffffffffffffffffffffffffffffff1673ffffffffffffffffffffffffffffffffffffffff1681526020018373ffffffffffffffffffffffffffffffffffffffff1673ffffffffffffffffffffffffffffffffffffffff1681526020018281526020019350505050600060405180830381600087803b158015611ab257600080fd5b505af1158015611ac6573d6000803e3d6000fd5b505050508773ffffffffffffffffffffffffffffffffffffffff1663db47b4548c60010160009054906101000a900473ffffffffffffffffffffffffffffffffffffffff168d60030160009054906101000a900473ffffffffffffffffffffffffffffffffffffffff168c6040518463ffffffff167c0100000000000000000000000000000000000000000000000000000000028152600401808473ffffffffffffffffffffffffffffffffffffffff1673ffffffffffffffffffffffffffffffffffffffff1681526020018373ffffffffffffffffffffffffffffffffffffffff1673ffffffffffffffffffffffffffffffffffffffff1681526020018281526020019350505050600060405180830381600087803b158015611be957600080fd5b505af1158015611bfd573d6000803e3d6000fd5b505050505b61235f565b6007600a811115611c1457fe5b8b60080160009054906101000a900460ff16600a811115611c3157fe5b141561235e5760006001028b600601546000191614158015611c5f575060006001028b600701546000191614155b15611d6c5760006003811115611c7157fe5b8b60050160009054906101000a900460ff166003811115611c8e57fe5b1415611cbe578a60010160009054906101000a900473ffffffffffffffffffffffffffffffffffffffff16611ce4565b8a60000160009054906101000a900473ffffffffffffffffffffffffffffffffffffffff165b935060006003811115611cf357fe5b8b60050160009054906101000a900460ff166003811115611d1057fe5b14611d3f578a60010160009054906101000a900473ffffffffffffffffffffffffffffffffffffffff16611d65565b8a60000160009054906101000a900473ffffffffffffffffffffffffffffffffffffffff165b9350611e38565b60006001028b60060154600019161415611daa578a60010160009054906101000a900473ffffffffffffffffffffffffffffffffffffffff16611dd0565b8a60000160009054906101000a900473ffffffffffffffffffffffffffffffffffffffff165b935060006001028b600601546000191614611e0f578a60010160009054906101000a900473ffffffffffffffffffffffffffffffffffffffff16611e35565b8a60000160009054906101000a900473ffffffffffffffffffffffffffffffffffffffff165b92505b600073ffffffffffffffffffffffffffffffffffffffff168b60030160009054906101000a900473ffffffffffffffffffffffffffffffffffffffff1673ffffffffffffffffffffffffffffffffffffffff161415612102578a60000160009054906101000a900473ffffffffffffffffffffffffffffffffffffffff1673ffffffffffffffffffffffffffffffffffffffff168473ffffffffffffffffffffffffffffffffffffffff1614611eee5788611ef0565b895b91508a60000160009054906101000a900473ffffffffffffffffffffffffffffffffffffffff1673ffffffffffffffffffffffffffffffffffffffff168373ffffffffffffffffffffffffffffffffffffffff1614611f4f5788611f51565b895b90508773ffffffffffffffffffffffffffffffffffffffff166377b9ded585846040518363ffffffff167c0100000000000000000000000000000000000000000000000000000000028152600401808373ffffffffffffffffffffffffffffffffffffffff1673ffffffffffffffffffffffffffffffffffffffff16815260200182815260200192505050600060405180830381600087803b158015611ff657600080fd5b505af115801561200a573d6000803e3d6000fd5b505050508773ffffffffffffffffffffffffffffffffffffffff1663b04370698486846040518463ffffffff167c0100000000000000000000000000000000000000000000000000000000028152600401808473ffffffffffffffffffffffffffffffffffffffff1673ffffffffffffffffffffffffffffffffffffffff1681526020018373ffffffffffffffffffffffffffffffffffffffff1673ffffffffffffffffffffffffffffffffffffffff1681526020018281526020019350505050600060405180830381600087803b1580156120e557600080fd5b505af11580156120f9573d6000803e3d6000fd5b5050505061235d565b8773ffffffffffffffffffffffffffffffffffffffff1663db47b454858d60030160009054906101000a900473ffffffffffffffffffffffffffffffffffffffff16856040518463ffffffff167c0100000000000000000000000000000000000000000000000000000000028152600401808473ffffffffffffffffffffffffffffffffffffffff1673ffffffffffffffffffffffffffffffffffffffff1681526020018373ffffffffffffffffffffffffffffffffffffffff1673ffffffffffffffffffffffffffffffffffffffff1681526020018281526020019350505050600060405180830381600087803b1580156121fd57600080fd5b505af1158015612211573d6000803e3d6000fd5b505050508773ffffffffffffffffffffffffffffffffffffffff16636fa8cbc0848d60030160009054906101000a900473ffffffffffffffffffffffffffffffffffffffff1687856040518563ffffffff167c0100000000000000000000000000000000000000000000000000000000028152600401808573ffffffffffffffffffffffffffffffffffffffff1673ffffffffffffffffffffffffffffffffffffffff1681526020018473ffffffffffffffffffffffffffffffffffffffff1673ffffffffffffffffffffffffffffffffffffffff1681526020018373ffffffffffffffffffffffffffffffffffffffff1673ffffffffffffffffffffffffffffffffffffffff168152602001828152602001945050505050600060405180830381600087803b15801561234457600080fd5b505af1158015612358573d6000803e3d6000fd5b505050505b5b5b5b61236b8c600a615e4f565b61237361664f565b73ffffffffffffffffffffffffffffffffffffffff16638f5863fa6123a18b8d61675390919063ffffffff16565b6040518263ffffffff167c010000000000000000000000000000000000000000000000000000000002815260040180828152602001915050600060405180830381600087803b1580156123f357600080fd5b505af1158015612407573d6000803e3d6000fd5b50505050505050505050505050505050565b600a6020528060005260406000206000915090505481565b60035481565b600c6020528060005260406000206000915090505481565b612457614b05565b151561246257600080fd5b600654811015151561247357600080fd5b8060078190555050565b612485616d82565b600080836001600281600a81111561249957fe5b6008600085815260200190815260200160002060080160009054906101000a900460ff16600a8111156124c857fe5b148061250c575080600a8111156124db57fe5b6008600085815260200190815260200160002060080160009054906101000a900460ff16600a81111561250a57fe5b145b151561251757600080fd5b612522876003615e4f565b6008600088815260200190815260200160002061014060405190810160405290816000820160009054906101000a900473ffffffffffffffffffffffffffffffffffffffff1673ffffffffffffffffffffffffffffffffffffffff1673ffffffffffffffffffffffffffffffffffffffff1681526020016001820160009054906101000a900473ffffffffffffffffffffffffffffffffffffffff1673ffffffffffffffffffffffffffffffffffffffff1673ffffffffffffffffffffffffffffffffffffffff1681526020016002820160009054906101000a900473ffffffffffffffffffffffffffffffffffffffff1673ffffffffffffffffffffffffffffffffffffffff1673ffffffffffffffffffffffffffffffffffffffff1681526020016003820160009054906101000a900473ffffffffffffffffffffffffffffffffffffffff1673ffffffffffffffffffffffffffffffffffffffff1673ffffffffffffffffffffffffffffffffffffffff168152602001600482015481526020016005820160009054906101000a900460ff1660038111156126c257fe5b60038111156126cd57fe5b81526020016005820160019054906101000a900460ff1660038111156126ef57fe5b60038111156126fa57fe5b81526020016006820154600019166000191681526020016007820154600019166000191681526020016008820160009054906101000a900460ff16600a81111561274057fe5b600a81111561274b57fe5b815250509550612768866000015187606001518860800151615ec3565b945061277261654b565b9350600073ffffffffffffffffffffffffffffffffffffffff16866060015173ffffffffffffffffffffffffffffffffffffffff161415612871578373ffffffffffffffffffffffffffffffffffffffff166377b9ded58760000151876040518363ffffffff167c0100000000000000000000000000000000000000000000000000000000028152600401808373ffffffffffffffffffffffffffffffffffffffff1673ffffffffffffffffffffffffffffffffffffffff16815260200182815260200192505050600060405180830381600087803b15801561285457600080fd5b505af1158015612868573d6000803e3d6000fd5b50505050612969565b8373ffffffffffffffffffffffffffffffffffffffff1663db47b45487600001518860600151886040518463ffffffff167c0100000000000000000000000000000000000000000000000000000000028152600401808473ffffffffffffffffffffffffffffffffffffffff1673ffffffffffffffffffffffffffffffffffffffff1681526020018373ffffffffffffffffffffffffffffffffffffffff1673ffffffffffffffffffffffffffffffffffffffff1681526020018281526020019350505050600060405180830381600087803b15801561295057600080fd5b505af1158015612964573d6000803e3d6000fd5b505050505b50505050505050565b600061297c616d82565b82612985616d82565b6008600083815260200190815260200160002061014060405190810160405290816000820160009054906101000a900473ffffffffffffffffffffffffffffffffffffffff1673ffffffffffffffffffffffffffffffffffffffff1673ffffffffffffffffffffffffffffffffffffffff1681526020016001820160009054906101000a900473ffffffffffffffffffffffffffffffffffffffff1673ffffffffffffffffffffffffffffffffffffffff1673ffffffffffffffffffffffffffffffffffffffff1681526020016002820160009054906101000a900473ffffffffffffffffffffffffffffffffffffffff1673ffffffffffffffffffffffffffffffffffffffff1673ffffffffffffffffffffffffffffffffffffffff1681526020016003820160009054906101000a900473ffffffffffffffffffffffffffffffffffffffff1673ffffffffffffffffffffffffffffffffffffffff1673ffffffffffffffffffffffffffffffffffffffff168152602001600482015481526020016005820160009054906101000a900460ff166003811115612b2557fe5b6003811115612b3057fe5b81526020016005820160019054906101000a900460ff166003811115612b5257fe5b6003811115612b5d57fe5b81526020016006820154600019166000191681526020016007820154600019166000191681526020016008820160009054906101000a900460ff16600a811115612ba357fe5b600a811115612bae57fe5b815250509050806000015173ffffffffffffffffffffffffffffffffffffffff163373ffffffffffffffffffffffffffffffffffffffff161480612c215750806020015173ffffffffffffffffffffffffffffffffffffffff163373ffffffffffffffffffffffffffffffffffffffff16145b1515612c2c57600080fd5b612c3461654b565b93506000341115612cbd578373ffffffffffffffffffffffffffffffffffffffff166398ea5fca346040518263ffffffff167c01000000000000000000000000000000000000000000000000000000000281526004016000604051808303818588803b158015612ca357600080fd5b505af1158015612cb7573d6000803e3d6000fd5b50505050505b6000600b60008781526020019081526020016000205414156132d2576008600086815260200190815260200160002061014060405190810160405290816000820160009054906101000a900473ffffffffffffffffffffffffffffffffffffffff1673ffffffffffffffffffffffffffffffffffffffff1673ffffffffffffffffffffffffffffffffffffffff1681526020016001820160009054906101000a900473ffffffffffffffffffffffffffffffffffffffff1673ffffffffffffffffffffffffffffffffffffffff1673ffffffffffffffffffffffffffffffffffffffff1681526020016002820160009054906101000a900473ffffffffffffffffffffffffffffffffffffffff1673ffffffffffffffffffffffffffffffffffffffff1673ffffffffffffffffffffffffffffffffffffffff1681526020016003820160009054906101000a900473ffffffffffffffffffffffffffffffffffffffff1673ffffffffffffffffffffffffffffffffffffffff1673ffffffffffffffffffffffffffffffffffffffff168152602001600482015481526020016005820160009054906101000a900460ff166003811115612e7957fe5b6003811115612e8457fe5b81526020016005820160019054906101000a900460ff166003811115612ea657fe5b6003811115612eb157fe5b81526020016006820154600019166000191681526020016007820154600019166000191681526020016008820160009054906101000a900460ff16600a811115612ef757fe5b600a811115612f0257fe5b8152505092506009600a811115612f1557fe5b836101200151600a811115612f2657fe5b1480612f4c5750600a80811115612f3957fe5b836101200151600a811115612f4a57fe5b145b1515612f5757600080fd5b84600b60008781526020019081526020016000208190555060036000815480929190600101919050555061014060405190810160405280846000015173ffffffffffffffffffffffffffffffffffffffff168152602001846020015173ffffffffffffffffffffffffffffffffffffffff168152602001600073ffffffffffffffffffffffffffffffffffffffff168152602001846060015173ffffffffffffffffffffffffffffffffffffffff168152602001846080015181526020016000600381111561302257fe5b600381111561302d57fe5b81526020016000600381111561303f57fe5b600381111561304a57fe5b8152602001600060010260001916815260200160006001026000191681526020016001600a81111561307857fe5b81525060086000600354815260200190815260200160002060008201518160000160006101000a81548173ffffffffffffffffffffffffffffffffffffffff021916908373ffffffffffffffffffffffffffffffffffffffff16021790555060208201518160010160006101000a81548173ffffffffffffffffffffffffffffffffffffffff021916908373ffffffffffffffffffffffffffffffffffffffff16021790555060408201518160020160006101000a81548173ffffffffffffffffffffffffffffffffffffffff021916908373ffffffffffffffffffffffffffffffffffffffff16021790555060608201518160030160006101000a81548173ffffffffffffffffffffffffffffffffffffffff021916908373ffffffffffffffffffffffffffffffffffffffff1602179055506080820151816004015560a08201518160050160006101000a81548160ff021916908360038111156131da57fe5b021790555060c08201518160050160016101000a81548160ff0219169083600381111561320357fe5b021790555060e0820151816006019060001916905561010082015181600701906000191690556101208201518160080160006101000a81548160ff0219169083600a81111561324e57fe5b0217905550905050826020015173ffffffffffffffffffffffffffffffffffffffff16836000015173ffffffffffffffffffffffffffffffffffffffff167f16533d02e2576411416356d7ac40fc74f517a19cc93c36adaf5ea9e33566844187600354604051808381526020018281526020019250505060405180910390a361355d565b60086000600b600088815260200190815260200160002054815260200190815260200160002061014060405190810160405290816000820160009054906101000a900473ffffffffffffffffffffffffffffffffffffffff1673ffffffffffffffffffffffffffffffffffffffff1673ffffffffffffffffffffffffffffffffffffffff1681526020016001820160009054906101000a900473ffffffffffffffffffffffffffffffffffffffff1673ffffffffffffffffffffffffffffffffffffffff1673ffffffffffffffffffffffffffffffffffffffff1681526020016002820160009054906101000a900473ffffffffffffffffffffffffffffffffffffffff1673ffffffffffffffffffffffffffffffffffffffff1673ffffffffffffffffffffffffffffffffffffffff1681526020016003820160009054906101000a900473ffffffffffffffffffffffffffffffffffffffff1673ffffffffffffffffffffffffffffffffffffffff1673ffffffffffffffffffffffffffffffffffffffff168152602001600482015481526020016005820160009054906101000a900460ff16600381111561348557fe5b600381111561349057fe5b81526020016005820160019054906101000a900460ff1660038111156134b257fe5b60038111156134bd57fe5b81526020016006820154600019166000191681526020016007820154600019166000191681526020016008820160009054906101000a900460ff16600a81111561350357fe5b600a81111561350e57fe5b8152505092506001600a81111561352157fe5b836101200151600a81111561353257fe5b14151561353e57600080fd5b61355c600b6000878152602001908152602001600020546004615e4f565b5b600073ffffffffffffffffffffffffffffffffffffffff16836060015173ffffffffffffffffffffffffffffffffffffffff16141515613693578373ffffffffffffffffffffffffffffffffffffffff166393cf99e633856060015186608001516040518463ffffffff167c0100000000000000000000000000000000000000000000000000000000028152600401808473ffffffffffffffffffffffffffffffffffffffff1673ffffffffffffffffffffffffffffffffffffffff1681526020018373ffffffffffffffffffffffffffffffffffffffff1673ffffffffffffffffffffffffffffffffffffffff1681526020018281526020019350505050600060405180830381600087803b15801561367657600080fd5b505af115801561368a573d6000803e3d6000fd5b50505050613753565b8373ffffffffffffffffffffffffffffffffffffffff1663d86b8f523385608001516040518363ffffffff167c0100000000000000000000000000000000000000000000000000000000028152600401808373ffffffffffffffffffffffffffffffffffffffff1673ffffffffffffffffffffffffffffffffffffffff16815260200182815260200192505050600060405180830381600087803b15801561373a57600080fd5b505af115801561374e573d6000803e3d6000fd5b505050505b5050505050565b613762614b05565b151561376d57600080fd5b600073ffffffffffffffffffffffffffffffffffffffff166000809054906101000a900473ffffffffffffffffffffffffffffffffffffffff1673ffffffffffffffffffffffffffffffffffffffff167f8be0079c531659141344cd1fd0a4f28419497f9722a3daafe3b4186f6b6457e060405160405180910390a360008060006101000a81548173ffffffffffffffffffffffffffffffffffffffff021916908373ffffffffffffffffffffffffffffffffffffffff160217905550565b60096020528160005260406000208181548110151561384757fe5b90600052602060002001600091509150505481565b600080613867616d82565b6008600087815260200190815260200160002061014060405190810160405290816000820160009054906101000a900473ffffffffffffffffffffffffffffffffffffffff1673ffffffffffffffffffffffffffffffffffffffff1673ffffffffffffffffffffffffffffffffffffffff1681526020016001820160009054906101000a900473ffffffffffffffffffffffffffffffffffffffff1673ffffffffffffffffffffffffffffffffffffffff1673ffffffffffffffffffffffffffffffffffffffff1681526020016002820160009054906101000a900473ffffffffffffffffffffffffffffffffffffffff1673ffffffffffffffffffffffffffffffffffffffff1673ffffffffffffffffffffffffffffffffffffffff1681526020016003820160009054906101000a900473ffffffffffffffffffffffffffffffffffffffff1673ffffffffffffffffffffffffffffffffffffffff1673ffffffffffffffffffffffffffffffffffffffff168152602001600482015481526020016005820160009054906101000a900460ff166003811115613a0757fe5b6003811115613a1257fe5b81526020016005820160019054906101000a900460ff166003811115613a3457fe5b6003811115613a3f57fe5b81526020016006820154600019166000191681526020016007820154600019166000191681526020016008820160009054906101000a900460ff16600a811115613a8557fe5b600a811115613a9057fe5b815250509050806000015173ffffffffffffffffffffffffffffffffffffffff163373ffffffffffffffffffffffffffffffffffffffff161415613ad6578060e0015191505b806020015173ffffffffffffffffffffffffffffffffffffffff163373ffffffffffffffffffffffffffffffffffffffff161415613b175780610100015191505b816000191686866003811115613b2957fe5b866040516020018084815260200183815260200182805190602001908083835b602083101515613b6e5780518252602082019150602081019050602083039250613b49565b6001836020036101000a03801982511681845116808217855250505050505090500193505050506040516020818303038152906040526040518082805190602001908083835b602083101515613bd95780518252602082019150602081019050602083039250613bb4565b6001836020036101000a03801982511681845116808217855250505050505090500191505060405180910390206000191614925050509392505050565b600160009054906101000a900473ffffffffffffffffffffffffffffffffffffffff1681565b806004600581600a811115613c4d57fe5b6008600085815260200190815260200160002060080160009054906101000a900460ff16600a811115613c7c57fe5b1480613cc0575080600a811115613c8f57fe5b6008600085815260200190815260200160002060080160009054906101000a900460ff16600a811115613cbe57fe5b145b1515613ccb57600080fd5b83613cd4616d82565b6008600083815260200190815260200160002061014060405190810160405290816000820160009054906101000a900473ffffffffffffffffffffffffffffffffffffffff1673ffffffffffffffffffffffffffffffffffffffff1673ffffffffffffffffffffffffffffffffffffffff1681526020016001820160009054906101000a900473ffffffffffffffffffffffffffffffffffffffff1673ffffffffffffffffffffffffffffffffffffffff1673ffffffffffffffffffffffffffffffffffffffff1681526020016002820160009054906101000a900473ffffffffffffffffffffffffffffffffffffffff1673ffffffffffffffffffffffffffffffffffffffff1673ffffffffffffffffffffffffffffffffffffffff1681526020016003820160009054906101000a900473ffffffffffffffffffffffffffffffffffffffff1673ffffffffffffffffffffffffffffffffffffffff1673ffffffffffffffffffffffffffffffffffffffff168152602001600482015481526020016005820160009054906101000a900460ff166003811115613e7457fe5b6003811115613e7f57fe5b81526020016005820160019054906101000a900460ff166003811115613ea157fe5b6003811115613eac57fe5b81526020016006820154600019166000191681526020016007820154600019166000191681526020016008820160009054906101000a900460ff16600a811115613ef257fe5b600a811115613efd57fe5b815250509050806000015173ffffffffffffffffffffffffffffffffffffffff163373ffffffffffffffffffffffffffffffffffffffff161480613f705750806020015173ffffffffffffffffffffffffffffffffffffffff163373ffffffffffffffffffffffffffffffffffffffff16145b1515613f7b57600080fd5b85613f84616d82565b6000600c600084815260200190815260200160002054141515613fa657600080fd5b6008600083815260200190815260200160002061014060405190810160405290816000820160009054906101000a900473ffffffffffffffffffffffffffffffffffffffff1673ffffffffffffffffffffffffffffffffffffffff1673ffffffffffffffffffffffffffffffffffffffff1681526020016001820160009054906101000a900473ffffffffffffffffffffffffffffffffffffffff1673ffffffffffffffffffffffffffffffffffffffff1673ffffffffffffffffffffffffffffffffffffffff1681526020016002820160009054906101000a900473ffffffffffffffffffffffffffffffffffffffff1673ffffffffffffffffffffffffffffffffffffffff1673ffffffffffffffffffffffffffffffffffffffff1681526020016003820160009054906101000a900473ffffffffffffffffffffffffffffffffffffffff1673ffffffffffffffffffffffffffffffffffffffff1673ffffffffffffffffffffffffffffffffffffffff168152602001600482015481526020016005820160009054906101000a900460ff16600381111561414657fe5b600381111561415157fe5b81526020016005820160019054906101000a900460ff16600381111561417357fe5b600381111561417e57fe5b81526020016006820154600019166000191681526020016007820154600019166000191681526020016008820160009054906101000a900460ff16600a8111156141c457fe5b600a8111156141cf57fe5b8152505090506004600a8111156141e257fe5b816101200151600a8111156141f357fe5b141561425e5760006001028160e0015160001916148061421f5750600060010281610100015160001916145b151561422a57600080fd5b60006001028160e0015160001916141580614252575060006001028161010001516000191614155b151561425d57600080fd5b5b6005600a81111561426b57fe5b816101200151600a81111561427c57fe5b1415614321576000600381111561428f57fe5b8160a00151600381111561429f57fe5b14806142c55750600060038111156142b357fe5b8160c0015160038111156142c357fe5b145b15156142d057600080fd5b600060038111156142dd57fe5b8160a0015160038111156142ed57fe5b14158061431557506000600381111561430257fe5b8160c00151600381111561431257fe5b14155b151561432057600080fd5b5b42600c60008a815260200190815260200160002081905550614344886006615e4f565b5050505050505050565b60008060009054906101000a900473ffffffffffffffffffffffffffffffffffffffff16905090565b61437f616d82565b84600580600a81111561438e57fe5b6008600084815260200190815260200160002060080160009054906101000a900460ff16600a8111156143bd57fe5b1415156143c957600080fd5b866143d2616d82565b6008600083815260200190815260200160002061014060405190810160405290816000820160009054906101000a900473ffffffffffffffffffffffffffffffffffffffff1673ffffffffffffffffffffffffffffffffffffffff1673ffffffffffffffffffffffffffffffffffffffff1681526020016001820160009054906101000a900473ffffffffffffffffffffffffffffffffffffffff1673ffffffffffffffffffffffffffffffffffffffff1673ffffffffffffffffffffffffffffffffffffffff1681526020016002820160009054906101000a900473ffffffffffffffffffffffffffffffffffffffff1673ffffffffffffffffffffffffffffffffffffffff1673ffffffffffffffffffffffffffffffffffffffff1681526020016003820160009054906101000a900473ffffffffffffffffffffffffffffffffffffffff1673ffffffffffffffffffffffffffffffffffffffff1673ffffffffffffffffffffffffffffffffffffffff168152602001600482015481526020016005820160009054906101000a900460ff16600381111561457257fe5b600381111561457d57fe5b81526020016005820160019054906101000a900460ff16600381111561459f57fe5b60038111156145aa57fe5b81526020016006820154600019166000191681526020016007820154600019166000191681526020016008820160009054906101000a900460ff16600a8111156145f057fe5b600a8111156145fb57fe5b815250509050806000015173ffffffffffffffffffffffffffffffffffffffff163373ffffffffffffffffffffffffffffffffffffffff16148061466e5750806020015173ffffffffffffffffffffffffffffffffffffffff163373ffffffffffffffffffffffffffffffffffffffff16145b151561467957600080fd5b6146b6898989898080601f01602080910402602001604051908101604052809392919081815260200183838082843782019150505050505061385c565b15156146c157600080fd5b600860008a815260200190815260200160002061014060405190810160405290816000820160009054906101000a900473ffffffffffffffffffffffffffffffffffffffff1673ffffffffffffffffffffffffffffffffffffffff1673ffffffffffffffffffffffffffffffffffffffff1681526020016001820160009054906101000a900473ffffffffffffffffffffffffffffffffffffffff1673ffffffffffffffffffffffffffffffffffffffff1673ffffffffffffffffffffffffffffffffffffffff1681526020016002820160009054906101000a900473ffffffffffffffffffffffffffffffffffffffff1673ffffffffffffffffffffffffffffffffffffffff1673ffffffffffffffffffffffffffffffffffffffff1681526020016003820160009054906101000a900473ffffffffffffffffffffffffffffffffffffffff1673ffffffffffffffffffffffffffffffffffffffff1673ffffffffffffffffffffffffffffffffffffffff168152602001600482015481526020016005820160009054906101000a900460ff16600381111561486157fe5b600381111561486c57fe5b81526020016005820160019054906101000a900460ff16600381111561488e57fe5b600381111561489957fe5b81526020016006820154600019166000191681526020016007820154600019166000191681526020016008820160009054906101000a900460ff16600a8111156148df57fe5b600a8111156148ea57fe5b815250509450846000015173ffffffffffffffffffffffffffffffffffffffff163373ffffffffffffffffffffffffffffffffffffffff16141561494b57878560a00190600381111561493957fe5b9081600381111561494657fe5b815250505b846020015173ffffffffffffffffffffffffffffffffffffffff163373ffffffffffffffffffffffffffffffffffffffff1614156149a657878560c00190600381111561499457fe5b908160038111156149a157fe5b815250505b600060038111156149b357fe5b8560a0015160038111156149c357fe5b141580156149ec5750600060038111156149d957fe5b8560c0015160038111156149e957fe5b14155b156149fb576149fa89616774565b5b614a0361664f565b73ffffffffffffffffffffffffffffffffffffffff1663513be4af6040518163ffffffff167c0100000000000000000000000000000000000000000000000000000000028152600401600060405180830381600087803b158015614a6657600080fd5b505af1158015614a7a573d6000803e3d6000fd5b50505050887fd77afd661b696dda60ba1de96592d2e2de6d8b1a9f1deca5719d504053c828ea33604051808273ffffffffffffffffffffffffffffffffffffffff1673ffffffffffffffffffffffffffffffffffffffff16815260200191505060405180910390a2505050505050505050565b600b6020528060005260406000206000915090505481565b60008060009054906101000a900473ffffffffffffffffffffffffffffffffffffffff1673ffffffffffffffffffffffffffffffffffffffff163373ffffffffffffffffffffffffffffffffffffffff1614905090565b60045481565b614b6a614b05565b1515614b7557600080fd5b603c8110151515614b8557600080fd5b8060058190555050565b80600680600a811115614b9e57fe5b6008600084815260200190815260200160002060080160009054906101000a900460ff16600a811115614bcd57fe5b141515614bd957600080fd5b82614be2616d82565b6008600083815260200190815260200160002061014060405190810160405290816000820160009054906101000a900473ffffffffffffffffffffffffffffffffffffffff1673ffffffffffffffffffffffffffffffffffffffff1673ffffffffffffffffffffffffffffffffffffffff1681526020016001820160009054906101000a900473ffffffffffffffffffffffffffffffffffffffff1673ffffffffffffffffffffffffffffffffffffffff1673ffffffffffffffffffffffffffffffffffffffff1681526020016002820160009054906101000a900473ffffffffffffffffffffffffffffffffffffffff1673ffffffffffffffffffffffffffffffffffffffff1673ffffffffffffffffffffffffffffffffffffffff1681526020016003820160009054906101000a900473ffffffffffffffffffffffffffffffffffffffff1673ffffffffffffffffffffffffffffffffffffffff1673ffffffffffffffffffffffffffffffffffffffff168152602001600482015481526020016005820160009054906101000a900460ff166003811115614d8257fe5b6003811115614d8d57fe5b81526020016005820160019054906101000a900460ff166003811115614daf57fe5b6003811115614dba57fe5b81526020016006820154600019166000191681526020016007820154600019166000191681526020016008820160009054906101000a900460ff16600a811115614e0057fe5b600a811115614e0b57fe5b815250509050806000015173ffffffffffffffffffffffffffffffffffffffff163373ffffffffffffffffffffffffffffffffffffffff161480614e7e5750806020015173ffffffffffffffffffffffffffffffffffffffff163373ffffffffffffffffffffffffffffffffffffffff16145b1515614e8957600080fd5b600c60008681526020019081526020016000205442111515614eaa57600080fd5b614eb5856007615e4f565b5050505050565b600060045482111515614ece57600080fd5b614ed661654b565b9050600073ffffffffffffffffffffffffffffffffffffffff168373ffffffffffffffffffffffffffffffffffffffff16141515615002578073ffffffffffffffffffffffffffffffffffffffff166393cf99e63385856040518463ffffffff167c0100000000000000000000000000000000000000000000000000000000028152600401808473ffffffffffffffffffffffffffffffffffffffff1673ffffffffffffffffffffffffffffffffffffffff1681526020018373ffffffffffffffffffffffffffffffffffffffff1673ffffffffffffffffffffffffffffffffffffffff1681526020018281526020019350505050600060405180830381600087803b158015614fe557600080fd5b505af1158015614ff9573d6000803e3d6000fd5b50505050615145565b6000341115615089578073ffffffffffffffffffffffffffffffffffffffff166398ea5fca346040518263ffffffff167c01000000000000000000000000000000000000000000000000000000000281526004016000604051808303818588803b15801561506f57600080fd5b505af1158015615083573d6000803e3d6000fd5b50505050505b8073ffffffffffffffffffffffffffffffffffffffff1663d86b8f5233846040518363ffffffff167c0100000000000000000000000000000000000000000000000000000000028152600401808373ffffffffffffffffffffffffffffffffffffffff1673ffffffffffffffffffffffffffffffffffffffff16815260200182815260200192505050600060405180830381600087803b15801561512c57600080fd5b505af1158015615140573d6000803e3d6000fd5b505050505b600073ffffffffffffffffffffffffffffffffffffffff168473ffffffffffffffffffffffffffffffffffffffff161415156152d75783600d60003373ffffffffffffffffffffffffffffffffffffffff1673ffffffffffffffffffffffffffffffffffffffff16815260200190815260200160002060006101000a81548173ffffffffffffffffffffffffffffffffffffffff021916908373ffffffffffffffffffffffffffffffffffffffff1602179055503373ffffffffffffffffffffffffffffffffffffffff168473ffffffffffffffffffffffffffffffffffffffff167fdf63218877cb126f6c003f2b7f77327674cd6a0b53ad51deac392548ec12b0ed60405160405180910390a361525b61664f565b73ffffffffffffffffffffffffffffffffffffffff1663e7a2b1486040518163ffffffff167c0100000000000000000000000000000000000000000000000000000000028152600401600060405180830381600087803b1580156152be57600080fd5b505af11580156152d2573d6000803e3d6000fd5b505050505b600360008154809291906001019190505550610140604051908101604052803373ffffffffffffffffffffffffffffffffffffffff168152602001600073ffffffffffffffffffffffffffffffffffffffff168152602001600073ffffffffffffffffffffffffffffffffffffffff1681526020018473ffffffffffffffffffffffffffffffffffffffff1681526020018381526020016000600381111561537b57fe5b600381111561538657fe5b81526020016000600381111561539857fe5b60038111156153a357fe5b8152602001600060010260001916815260200160006001026000191681526020016002600a8111156153d157fe5b81525060086000600354815260200190815260200160002060008201518160000160006101000a81548173ffffffffffffffffffffffffffffffffffffffff021916908373ffffffffffffffffffffffffffffffffffffffff16021790555060208201518160010160006101000a81548173ffffffffffffffffffffffffffffffffffffffff021916908373ffffffffffffffffffffffffffffffffffffffff16021790555060408201518160020160006101000a81548173ffffffffffffffffffffffffffffffffffffffff021916908373ffffffffffffffffffffffffffffffffffffffff16021790555060608201518160030160006101000a81548173ffffffffffffffffffffffffffffffffffffffff021916908373ffffffffffffffffffffffffffffffffffffffff1602179055506080820151816004015560a08201518160050160006101000a81548160ff0219169083600381111561553357fe5b021790555060c08201518160050160016101000a81548160ff0219169083600381111561555c57fe5b021790555060e0820151816006019060001916905561010082015181600701906000191690556101208201518160080160006101000a81548160ff0219169083600a8111156155a757fe5b021790555090505050505050565b60065481565b600081600280600a8111156155cc57fe5b6008600084815260200190815260200160002060080160009054906101000a900460ff16600a8111156155fb57fe5b14151561560757600080fd5b83615610616d82565b60006008600084815260200190815260200160002061014060405190810160405290816000820160009054906101000a900473ffffffffffffffffffffffffffffffffffffffff1673ffffffffffffffffffffffffffffffffffffffff1673ffffffffffffffffffffffffffffffffffffffff1681526020016001820160009054906101000a900473ffffffffffffffffffffffffffffffffffffffff1673ffffffffffffffffffffffffffffffffffffffff1673ffffffffffffffffffffffffffffffffffffffff1681526020016002820160009054906101000a900473ffffffffffffffffffffffffffffffffffffffff1673ffffffffffffffffffffffffffffffffffffffff1673ffffffffffffffffffffffffffffffffffffffff1681526020016003820160009054906101000a900473ffffffffffffffffffffffffffffffffffffffff1673ffffffffffffffffffffffffffffffffffffffff1673ffffffffffffffffffffffffffffffffffffffff168152602001600482015481526020016005820160009054906101000a900460ff1660038111156157b257fe5b60038111156157bd57fe5b81526020016005820160019054906101000a900460ff1660038111156157df57fe5b60038111156157ea57fe5b81526020016006820154600019166000191681526020016007820154600019166000191681526020016008820160009054906101000a900460ff16600a81111561583057fe5b600a81111561583b57fe5b815250509150600073ffffffffffffffffffffffffffffffffffffffff16826000015173ffffffffffffffffffffffffffffffffffffffff161415151561588157600080fd5b600073ffffffffffffffffffffffffffffffffffffffff16826020015173ffffffffffffffffffffffffffffffffffffffff161415156158c057600080fd5b600073ffffffffffffffffffffffffffffffffffffffff16826060015173ffffffffffffffffffffffffffffffffffffffff161415615a285761590161654b565b73ffffffffffffffffffffffffffffffffffffffff16631bea80063384606001516040518363ffffffff167c0100000000000000000000000000000000000000000000000000000000028152600401808373ffffffffffffffffffffffffffffffffffffffff1673ffffffffffffffffffffffffffffffffffffffff1681526020018273ffffffffffffffffffffffffffffffffffffffff1673ffffffffffffffffffffffffffffffffffffffff16815260200192505050602060405180830381600087803b1580156159d357600080fd5b505af11580156159e7573d6000803e3d6000fd5b505050506040513d60208110156159fd57600080fd5b8101908080519060200190929190505050905081608001518110151515615a2357600080fd5b615a3b565b816080015134141515615a3a57600080fd5b5b600860008881526020019081526020016000209550600073ffffffffffffffffffffffffffffffffffffffff168660030160009054906101000a900473ffffffffffffffffffffffffffffffffffffffff1673ffffffffffffffffffffffffffffffffffffffff16141515615bc957615ab261654b565b73ffffffffffffffffffffffffffffffffffffffff166393cf99e6338860030160009054906101000a900473ffffffffffffffffffffffffffffffffffffffff1689600401546040518463ffffffff167c0100000000000000000000000000000000000000000000000000000000028152600401808473ffffffffffffffffffffffffffffffffffffffff1673ffffffffffffffffffffffffffffffffffffffff1681526020018373ffffffffffffffffffffffffffffffffffffffff1673ffffffffffffffffffffffffffffffffffffffff1681526020018281526020019350505050600060405180830381600087803b158015615bb057600080fd5b505af1158015615bc4573d6000803e3d6000fd5b505050505b600073ffffffffffffffffffffffffffffffffffffffff168873ffffffffffffffffffffffffffffffffffffffff16141515615d5b5787600d60003373ffffffffffffffffffffffffffffffffffffffff1673ffffffffffffffffffffffffffffffffffffffff16815260200190815260200160002060006101000a81548173ffffffffffffffffffffffffffffffffffffffff021916908373ffffffffffffffffffffffffffffffffffffffff1602179055503373ffffffffffffffffffffffffffffffffffffffff168873ffffffffffffffffffffffffffffffffffffffff167fdf63218877cb126f6c003f2b7f77327674cd6a0b53ad51deac392548ec12b0ed60405160405180910390a3615cdf61664f565b73ffffffffffffffffffffffffffffffffffffffff1663e7a2b1486040518163ffffffff167c0100000000000000000000000000000000000000000000000000000000028152600401600060405180830381600087803b158015615d4257600080fd5b505af1158015615d56573d6000803e3d6000fd5b505050505b338660010160006101000a81548173ffffffffffffffffffffffffffffffffffffffff021916908373ffffffffffffffffffffffffffffffffffffffff160217905550615da9876004615e4f565b5050505050505050565b615dbb614b05565b1515615dc657600080fd5b6007548111151515615dd757600080fd5b8060068190555050565b600260009054906101000a900473ffffffffffffffffffffffffffffffffffffffff1681565b60055481565b60075481565b615e1b614b05565b1515615e2657600080fd5b615e2f81616bff565b50565b615e3a614b05565b1515615e4557600080fd5b8060048190555050565b806008600084815260200190815260200160002060080160006101000a81548160ff0219169083600a811115615e8157fe5b021790555080600a811115615e9257fe5b827f5dea685f51eb021b820f697ac820348c0aa0635ac833c31b190077813d406e7660405160405180910390a35050565b6000806000806000806000600d60008b73ffffffffffffffffffffffffffffffffffffffff1673ffffffffffffffffffffffffffffffffffffffff16815260200190815260200160002060009054906101000a900473ffffffffffffffffffffffffffffffffffffffff169250615f3861434e565b9150600073ffffffffffffffffffffffffffffffffffffffff168373ffffffffffffffffffffffffffffffffffffffff161415615fb457615f986103e8615f8a6007548b616cf990919063ffffffff16565b616d3790919063ffffffff16565b9350615fad8489616d6190919063ffffffff16565b95506160d2565b615fdd6103e8615fcf6006548b616cf990919063ffffffff16565b616d3790919063ffffffff16565b945061601a8561600c6103e8615ffe6007548d616cf990919063ffffffff16565b616d3790919063ffffffff16565b616d6190919063ffffffff16565b935061604185616033868b616d6190919063ffffffff16565b616d6190919063ffffffff16565b955061604b61664f565b73ffffffffffffffffffffffffffffffffffffffff16638c121ab7866040518263ffffffff167c010000000000000000000000000000000000000000000000000000000002815260040180828152602001915050600060405180830381600087803b1580156160b957600080fd5b505af11580156160cd573d6000803e3d6000fd5b505050505b6160da61654b565b9050600073ffffffffffffffffffffffffffffffffffffffff168973ffffffffffffffffffffffffffffffffffffffff1614156162f4578073ffffffffffffffffffffffffffffffffffffffff1663b04370698b84876040518463ffffffff167c0100000000000000000000000000000000000000000000000000000000028152600401808473ffffffffffffffffffffffffffffffffffffffff1673ffffffffffffffffffffffffffffffffffffffff1681526020018373ffffffffffffffffffffffffffffffffffffffff1673ffffffffffffffffffffffffffffffffffffffff1681526020018281526020019350505050600060405180830381600087803b1580156161e857600080fd5b505af11580156161fc573d6000803e3d6000fd5b505050508073ffffffffffffffffffffffffffffffffffffffff1663b04370698b85886040518463ffffffff167c0100000000000000000000000000000000000000000000000000000000028152600401808473ffffffffffffffffffffffffffffffffffffffff1673ffffffffffffffffffffffffffffffffffffffff1681526020018373ffffffffffffffffffffffffffffffffffffffff1673ffffffffffffffffffffffffffffffffffffffff1681526020018281526020019350505050600060405180830381600087803b1580156162d757600080fd5b505af11580156162eb573d6000803e3d6000fd5b5050505061653b565b8073ffffffffffffffffffffffffffffffffffffffff16636fa8cbc08b8b85886040518563ffffffff167c0100000000000000000000000000000000000000000000000000000000028152600401808573ffffffffffffffffffffffffffffffffffffffff1673ffffffffffffffffffffffffffffffffffffffff1681526020018473ffffffffffffffffffffffffffffffffffffffff1673ffffffffffffffffffffffffffffffffffffffff1681526020018373ffffffffffffffffffffffffffffffffffffffff1673ffffffffffffffffffffffffffffffffffffffff168152602001828152602001945050505050600060405180830381600087803b1580156163ff57600080fd5b505af1158015616413573d6000803e3d6000fd5b505050508073ffffffffffffffffffffffffffffffffffffffff16636fa8cbc08b8b86886040518563ffffffff167c0100000000000000000000000000000000000000000000000000000000028152600401808573ffffffffffffffffffffffffffffffffffffffff1673ffffffffffffffffffffffffffffffffffffffff1681526020018473ffffffffffffffffffffffffffffffffffffffff1673ffffffffffffffffffffffffffffffffffffffff1681526020018373ffffffffffffffffffffffffffffffffffffffff1673ffffffffffffffffffffffffffffffffffffffff168152602001828152602001945050505050600060405180830381600087803b15801561652257600080fd5b505af1158015616536573d6000803e3d6000fd5b505050505b8596505050505050509392505050565b6000600160009054906101000a900473ffffffffffffffffffffffffffffffffffffffff1673ffffffffffffffffffffffffffffffffffffffff1663b319c9e46040518163ffffffff167c01000000000000000000000000000000000000000000000000000000000281526004018080602001828103825260048152602001807f42616e6b00000000000000000000000000000000000000000000000000000000815250602001915050602060405180830381600087803b15801561660f57600080fd5b505af1158015616623573d6000803e3d6000fd5b505050506040513d602081101561663957600080fd5b8101908080519060200190929190505050905090565b6000600160009054906101000a900473ffffffffffffffffffffffffffffffffffffffff1673ffffffffffffffffffffffffffffffffffffffff1663b319c9e46040518163ffffffff167c01000000000000000000000000000000000000000000000000000000000281526004018080602001828103825260058152602001807f5374617473000000000000000000000000000000000000000000000000000000815250602001915050602060405180830381600087803b15801561671357600080fd5b505af1158015616727573d6000803e3d6000fd5b505050506040513d602081101561673d57600080fd5b8101908080519060200190929190505050905090565b600080828401905083811015151561676a57600080fd5b8091505092915050565b60008060008060006008600087815260200190815260200160002094508460050160009054906101000a900460ff1693508460050160019054906101000a900460ff1692508460000160009054906101000a900473ffffffffffffffffffffffffffffffffffffffff1691508460010160009054906101000a900473ffffffffffffffffffffffffffffffffffffffff16905082600381111561681357fe5b84600381111561681f57fe5b141561683557616830866008615e4f565b616bf7565b6001600381111561684257fe5b84600381111561684e57fe5b14801561687157506002600381111561686357fe5b83600381111561686f57fe5b145b156168be57808560020160006101000a81548173ffffffffffffffffffffffffffffffffffffffff021916908373ffffffffffffffffffffffffffffffffffffffff160217905550616b68565b600160038111156168cb57fe5b8460038111156168d757fe5b1480156168f957506003808111156168eb57fe5b8360038111156168f757fe5b145b1561694657818560020160006101000a81548173ffffffffffffffffffffffffffffffffffffffff021916908373ffffffffffffffffffffffffffffffffffffffff160217905550616b67565b6002600381111561695357fe5b84600381111561695f57fe5b14801561698257506001600381111561697457fe5b83600381111561698057fe5b145b156169cf57818560020160006101000a81548173ffffffffffffffffffffffffffffffffffffffff021916908373ffffffffffffffffffffffffffffffffffffffff160217905550616b66565b600260038111156169dc57fe5b8460038111156169e857fe5b148015616a0a57506003808111156169fc57fe5b836003811115616a0857fe5b145b15616a5757808560020160006101000a81548173ffffffffffffffffffffffffffffffffffffffff021916908373ffffffffffffffffffffffffffffffffffffffff160217905550616b65565b600380811115616a6357fe5b846003811115616a6f57fe5b148015616a92575060016003811115616a8457fe5b836003811115616a9057fe5b145b15616adf57808560020160006101000a81548173ffffffffffffffffffffffffffffffffffffffff021916908373ffffffffffffffffffffffffffffffffffffffff160217905550616b64565b600380811115616aeb57fe5b846003811115616af757fe5b148015616b1a575060026003811115616b0c57fe5b836003811115616b1857fe5b145b15616b6357818560020160006101000a81548173ffffffffffffffffffffffffffffffffffffffff021916908373ffffffffffffffffffffffffffffffffffffffff1602179055505b5b5b5b5b5b616b73866009615e4f565b616b7b61664f565b73ffffffffffffffffffffffffffffffffffffffff16636b42ae276040518163ffffffff167c0100000000000000000000000000000000000000000000000000000000028152600401600060405180830381600087803b158015616bde57600080fd5b505af1158015616bf2573d6000803e3d6000fd5b505050505b505050505050565b600073ffffffffffffffffffffffffffffffffffffffff168173ffffffffffffffffffffffffffffffffffffffff1614151515616c3b57600080fd5b8073ffffffffffffffffffffffffffffffffffffffff166000809054906101000a900473ffffffffffffffffffffffffffffffffffffffff1673ffffffffffffffffffffffffffffffffffffffff167f8be0079c531659141344cd1fd0a4f28419497f9722a3daafe3b4186f6b6457e060405160405180910390a3806000806101000a81548173ffffffffffffffffffffffffffffffffffffffff021916908373ffffffffffffffffffffffffffffffffffffffff16021790555050565b6000806000841415616d0e5760009150616d30565b8284029050828482811515616d1f57fe5b04141515616d2c57600080fd5b8091505b5092915050565b600080600083111515616d4957600080fd5b8284811515616d5457fe5b0490508091505092915050565b600080838311151515616d7357600080fd5b82840390508091505092915050565b61014060405190810160405280600073ffffffffffffffffffffffffffffffffffffffff168152602001600073ffffffffffffffffffffffffffffffffffffffff168152602001600073ffffffffffffffffffffffffffffffffffffffff168152602001600073ffffffffffffffffffffffffffffffffffffffff1681526020016000815260200160006003811115616e1757fe5b815260200160006003811115616e2957fe5b815260200160008019168152602001600080191681526020016000600a811115616e4f57fe5b815250905600a165627a7a723058200c4042cac1c7eec7eb9afd88f2dac0d91304a6ce9433a25793bede4ef6e729d60029",
  "source": "pragma solidity ^0.4.24;\n\nimport \"openzeppelin-solidity/contracts/math/SafeMath.sol\";\nimport \"openzeppelin-solidity/contracts/ownership/Ownable.sol\";\nimport \"./interfaces/IBank.sol\";\nimport \"./interfaces/IRegistry.sol\";\nimport \"./interfaces/IStats.sol\";\n\n\ncontract RockPaperScissors is Ownable {\n  using SafeMath for uint256;\n\n  IRegistry public registry;\n  IStats public stats;\n\n  //\n  // start operating params\n  //\n\n  uint256 public lastGameId;\n  uint256 public minBet;\n  uint256 public timeoutInSeconds;\n  uint256 public referralFeePerMille;\n  uint256 public feePerMille;\n\n  //\n  // end operating params\n  //\n\n  //\n  // start game tracking storage\n  //\n\n  mapping(uint256 => Game) public games;\n  mapping(address => uint256[]) public activeGamesOf;\n  mapping(uint256 => uint256) public activeGameIndex;\n  mapping(uint256 => uint256) public rematchesFrom;\n  mapping(uint256 => uint256) public timingOutGames;\n  mapping(address => address) referredBy;\n\n  //\n  // end game tracking storage\n  //\n\n  enum Stage {\n    Uninitialized, // 0\n    RematchPending, // 1\n    Created, // 2\n    Cancelled, // 3\n    Ready, // 4\n    Committed, // 5\n    TimingOut, // 6\n    TimedOut, // 7\n    Tied, // 8\n    WinnerDecided, // 9\n    Paid // 10\n  }\n\n  enum Choice {\n    Undecided,\n    Rock,\n    Paper,\n    Scissors\n  }\n\n  struct Game {\n    address addressP1;\n    address addressP2;\n    address winner;\n    address tokenAddress;\n    uint256 bet;\n    Choice choiceP1;\n    Choice choiceP2;\n    bytes32 choiceSecretP1;\n    bytes32 choiceSecretP2;\n    Stage stage;\n  }\n\n  //\n  // start events\n  //\n\n  event StageChanged(\n    uint256 indexed gameId,\n    uint256 indexed stage\n  );\n\n  event ChoiceCommitted(\n    uint256 indexed gameId,\n    address committer\n  );\n\n  event ChoiceRevealed(\n    uint256 indexed gameId,\n    address committer\n  );\n\n  event ReferralSet(\n    address indexed referrer,\n    address indexed referree\n  );\n\n  event RematchProposed(\n    uint256 gameId,\n    uint256 rematchGameId,\n    address indexed addressP1,\n    address indexed addressP2\n  );\n\n  //\n  // end events\n  //\n\n  //\n  // start modifiers\n  //\n\n  modifier atStage(\n    uint256 _gameId,\n    Stage _stage\n  ) {\n    require(games[_gameId].stage == _stage);\n\n    _;\n  }\n\n  modifier atEitherStage(\n    uint256 _gameId,\n    Stage _stage,\n    Stage _orStage\n  ) {\n    require(games[_gameId].stage == _stage || games[_gameId].stage == _orStage);\n\n    _;\n  }\n\n  modifier canJoinGame(\n    uint256 _gameId\n  ) {\n    Game memory _game = games[_gameId];\n    require(_game.addressP1 != address(0));\n    require(_game.addressP2 == address(0));\n\n    if (_game.tokenAddress == address(0)) {\n      uint256 _tokenBalance = getBank()\n        .tokenBalanceOf(msg.sender, _game.tokenAddress);\n\n      require(_tokenBalance >= _game.bet);\n    } else {\n      require(msg.value == _game.bet);\n    }\n\n    _;\n  }\n\n  modifier canStartTimeout(\n    uint256 _gameId\n  ) {\n    require(timingOutGames[_gameId] == 0);\n    Game memory _game = games[_gameId];\n\n    if (_game.stage == Stage.Ready) {\n      require(_game.choiceSecretP1 == 0x0 || _game.choiceSecretP2 == 0x0);\n      require(_game.choiceSecretP1 != 0x0 || _game.choiceSecretP2 != 0x0);\n    } \n    \n    if (_game.stage == Stage.Committed) {\n      require(_game.choiceP1 == Choice.Undecided || _game.choiceP2 == Choice.Undecided);\n      require(_game.choiceP1 != Choice.Undecided || _game.choiceP2 != Choice.Undecided);\n    }\n\n    _;\n  }\n\n  modifier onlyGameParticipant(\n    uint256 _gameId\n  ) {\n    Game memory _game = games[_gameId];\n    require(msg.sender == _game.addressP1 || msg.sender == _game.addressP2);\n\n    _;\n  }\n\n  //\n  // end modifiers\n  //\n\n  //\n  // start internal helper functions\n  //\n\n  function isContract(\n    address _address\n  )\n    internal\n    view\n    returns (bool)\n  {\n    uint256 _size;\n    assembly { _size := extcodesize(_address) }\n    return _size > 0;\n  }\n\n  function getBank()\n    internal\n    view\n    returns (IBank)\n  {\n    return IBank(registry.getEntry(\"Bank\"));\n  }\n\n  function getStats()\n    internal\n    view\n    returns (IStats)\n  {\n    return IStats(registry.getEntry(\"Stats\"));\n  }\n\n  function removeActiveGameOf(\n    address _player,\n    uint256 _gameId\n  )\n    internal\n  {\n    uint256 _index = activeGameIndex[_gameId];\n\n    activeGamesOf[_player][_index] = activeGamesOf[_player][activeGamesOf[_player].length - 1];\n\n    activeGamesOf[_player].length--;\n  }\n\n  function addActiveGameOf(\n    address _player,\n    uint256 _gameId\n  )\n    internal\n  {\n    activeGamesOf[_player].push(_gameId);\n  }\n  \n  function enterStage(\n    uint256 _gameId,\n    Stage _stage\n  ) \n    internal\n  {\n    games[_gameId].stage = _stage;\n\n    emit StageChanged(_gameId, uint256(_stage));\n  }\n\n  function computeWinner(\n    uint256 _gameId\n  )\n    internal\n  {\n    Game storage _game = games[_gameId];\n    Choice _c1 = _game.choiceP1;\n    Choice _c2 = _game.choiceP2;\n    address _a1 = _game.addressP1;\n    address _a2 = _game.addressP2;\n\n    if (_c1 == _c2) {\n      enterStage(_gameId, Stage.Tied);\n      return;\n    } else if (_c1 == Choice.Rock && _c2 == Choice.Paper) {\n      _game.winner = _a2;\n    } else if (_c1 == Choice.Rock && _c2 == Choice.Scissors) {\n      _game.winner = _a1;\n    } else if (_c1 == Choice.Paper && _c2 == Choice.Rock) {\n      _game.winner = _a1;\n    } else if (_c1 == Choice.Paper && _c2 == Choice.Scissors) {\n      _game.winner = _a2;\n    } else if (_c1 == Choice.Scissors && _c2 == Choice.Rock) {\n      _game.winner = _a2;\n    } else if (_c1 == Choice.Scissors && _c2 == Choice.Paper) {\n      _game.winner = _a1;\n    }\n\n    enterStage(_gameId, Stage.WinnerDecided);\n\n    getStats().incrementWinCount();\n  }\n\n  function processFee(\n    address _feePayer,\n    address _tokenAddress,\n    uint256 _bet\n  )\n    internal\n    returns (uint256)\n  {\n    uint256 _betAfterFee;\n    uint256 _referralFee;\n    uint256 _ownerFee;\n    address _referrer = referredBy[_feePayer];\n    address _owner = owner();\n\n    if (_referrer == address(0)) {\n      _ownerFee = _bet\n        .mul(feePerMille)\n        .div(1e3);\n\n      _betAfterFee = _bet.sub(_ownerFee);\n    } else {\n      _referralFee = _bet\n        .mul(referralFeePerMille)\n        .div(1e3);\n      _ownerFee = _bet\n        .mul(feePerMille)\n        .div(1e3)\n        .sub(_referralFee);\n\n      _betAfterFee = _bet\n        .sub(_ownerFee)\n        .sub(_referralFee);\n\n      getStats().incrementReferralVolume(_referralFee);\n    }\n\n    IBank _bank = getBank();\n\n    if (_tokenAddress == address(0)) {\n      _bank.transferAllocatedEtherOf(_feePayer, _owner, _ownerFee);\n      _bank.transferAllocatedEtherOf(_feePayer, _referrer, _referralFee);\n    } else {\n      _bank.transferAllocatedTokensOf(\n        _feePayer, \n        _tokenAddress, \n        _owner, \n        _ownerFee\n      );\n      _bank.transferAllocatedTokensOf(\n        _feePayer,\n        _tokenAddress,\n        _referrer,\n        _ownerFee\n      );\n    }\n\n    return _betAfterFee;\n  }\n\n  //\n  // end internal helper functions\n  //\n\n  // constructor(\n  //   address _registryAddress,\n  //   uint256 _minBet,\n  //   uint256 _timeoutInSeconds,\n  //   uint256 _referralFeePerMille,\n  //   uint256 _feePerMille\n  // )\n  //   public\n  // {\n  //   require(isContract(_registryAddress));\n  //   require(_timeoutInSeconds >= 1 * 60);\n  //   require(_referralFeePerMille <= _feePerMille);\n  //   require(_feePerMille >= _referralFeePerMille);\n\n  //   registry = IRegistry(_registryAddress);\n  //   minBet = _minBet;\n  //   timeoutInSeconds = _timeoutInSeconds;\n  //   referralFeePerMille = _referralFeePerMille;\n  //   feePerMille = _feePerMille;\n  // }\n\n  function choiceSecretMatches(\n    uint256 _gameId,\n    Choice _choice,\n    bytes _sig\n  )\n    public\n    view\n    returns (bool)\n  {\n    bytes32 _secret;\n    Game memory _game = games[_gameId];\n\n    if (msg.sender == _game.addressP1) {\n      _secret = _game.choiceSecretP1;\n    }\n\n    if (msg.sender == _game.addressP2) {\n      _secret = _game.choiceSecretP2;\n    }\n\n    return keccak256(\n      abi.encodePacked(\n        _gameId,\n        uint256(_choice),\n        _sig\n    )) == _secret;\n  }\n\n  //\n  // start game actions\n  //\n\n  function createGame(\n    address _referrer,\n    address _tokenAddress,\n    uint256 _value\n  )\n    external\n    payable\n  {\n    require(_value > minBet);\n\n    IBank _bank = getBank();\n\n    if (_tokenAddress != address(0)) {\n      _bank.allocateTokensOf(msg.sender, _tokenAddress, _value);\n    } else {\n      if (msg.value > 0) {\n        _bank.depositEther.value(msg.value)();\n      }\n\n      _bank.allocateEtherOf(msg.sender, _value);\n    }\n\n    if (_referrer != address(0)) {\n      referredBy[msg.sender] = _referrer;\n\n      emit ReferralSet(_referrer, msg.sender);\n\n      getStats().incrementReferralCount();\n    }\n\n    lastGameId++;\n    games[lastGameId] = Game(\n      msg.sender,\n      address(0),\n      address(0),\n      _tokenAddress,\n      _value,\n      Choice(0),\n      Choice(0),\n      0x0,\n      0x0,\n      Stage.Created\n    );\n  }\n\n  function cancelGame(\n    uint256 _gameId\n  )\n    external\n    atEitherStage(_gameId, Stage.RematchPending, Stage.Created)\n  {\n    enterStage(_gameId, Stage.Cancelled);\n    Game memory _game = games[_gameId];\n    uint256 _refundAfterFees = processFee(_game.addressP1, _game.tokenAddress, _game.bet);\n    \n    IBank _bank = getBank();\n\n    if (_game.tokenAddress == address(0)) {\n      _bank.deAllocateEtherOf(_game.addressP1, _refundAfterFees);\n    } else {\n      _bank.deAllocateTokensOf(_game.addressP1, _game.tokenAddress, _refundAfterFees);\n    }\n  }\n\n  function joinGame(\n    address _referrer,\n    uint256 _gameId\n  )\n    external\n    payable\n    atStage(_gameId, Stage.Created)\n    canJoinGame(_gameId)\n  {\n    Game storage _game = games[_gameId];\n    \n    if (_game.tokenAddress != address(0)) {\n      getBank()\n        .allocateTokensOf(msg.sender, _game.tokenAddress, _game.bet);\n    }\n\n    if (_referrer != address(0)) {\n      referredBy[msg.sender] = _referrer;\n\n      emit ReferralSet(_referrer, msg.sender);\n\n      getStats().incrementReferralCount();\n    }\n\n    _game.addressP2 = msg.sender;\n\n    enterStage(_gameId, Stage.Ready);\n  }\n\n  function startGameTimeout(\n    uint256 _gameId\n  )\n    external\n    atEitherStage(_gameId, Stage.Ready, Stage.Committed)\n    onlyGameParticipant(_gameId)\n    canStartTimeout(_gameId)\n  {\n    timingOutGames[_gameId] = block.timestamp;\n    enterStage(_gameId, Stage.TimingOut);\n  }\n\n  function timeoutGame(\n    uint256 _gameId\n  )\n    external\n    atStage(_gameId, Stage.TimingOut)\n    onlyGameParticipant(_gameId)\n  {\n    require(block.timestamp > timingOutGames[_gameId]);\n    enterStage(_gameId, Stage.TimedOut);\n  }\n\n  function commitChoice(\n    uint256 _gameId,\n    bytes32 _hash\n  )\n    external\n    atEitherStage(_gameId, Stage.Ready, Stage.TimingOut)\n    onlyGameParticipant(_gameId)\n  {\n    Game storage _game = games[_gameId];\n    if (msg.sender == _game.addressP1) {\n      _game.choiceSecretP1 = _hash;\n    } else {\n      _game.choiceSecretP2 = _hash;\n    }\n\n    if (_game.choiceSecretP1 != 0x0 && _game.choiceSecretP2 != 0x0) {\n      enterStage(_gameId, Stage.Committed);\n    }\n\n    emit ChoiceCommitted(_gameId, msg.sender);\n  }\n\n  function revealChoice(\n    uint256 _gameId,\n    Choice _choice,\n    bytes _sig\n  )\n    external\n    atStage(_gameId, Stage.Committed)\n    onlyGameParticipant(_gameId)\n  {\n    require(choiceSecretMatches(_gameId, _choice, _sig));\n\n    Game memory _game = games[_gameId];\n    if (msg.sender == _game.addressP1) {\n      _game.choiceP1 = _choice;\n    }\n\n    if (msg.sender == _game.addressP2) {\n      _game.choiceP2 = _choice;\n    }\n\n    if (_game.choiceP1 != Choice.Undecided && _game.choiceP2 != Choice.Undecided) {\n      computeWinner(_gameId);\n    }\n\n    getStats().incrementPlayCount();\n\n    emit ChoiceRevealed(_gameId, msg.sender);\n  }\n\n  function settleBet(\n    uint256 _gameId\n  )\n    external\n  {\n    Game storage _game = games[_gameId];\n    // IMPORTANT: ensure this matches when/if stages are updated!\n    // ensure that Stage is any of: TimedOut, Tied, WinnerDecided\n    require(uint256(_game.stage) >= 7 && uint256(_game.stage) <= 9);\n    uint256 _bet1AfterFees = processFee(_game.addressP1, _game.tokenAddress, _game.bet);\n    uint256 _bet2AfterFees = processFee(_game.addressP2, _game.tokenAddress, _game.bet);\n\n    IBank _bank = getBank();\n\n    if (_game.stage == Stage.WinnerDecided) {\n      address _loser = _game.winner == _game.addressP1 ? _game.addressP2 : _game.addressP1;\n\n      if (_game.tokenAddress == address(0)) {\n        uint256 _deAllocationAmount = _game.winner == _game.addressP1 ? _bet1AfterFees : _bet2AfterFees;\n        uint256 _transferAmount = _loser == _game.addressP1 ? _bet1AfterFees : _bet2AfterFees;\n        _bank.deAllocateEtherOf(_game.winner, _deAllocationAmount);\n        _bank.transferAllocatedEtherOf(_loser, _game.winner, _transferAmount);\n      } else {\n        _bank.deAllocateTokensOf(_game.winner, _game.tokenAddress, _deAllocationAmount);\n        _bank.transferAllocatedTokensOf(\n          _loser, \n          _game.tokenAddress, \n          _game.winner, \n          _transferAmount\n        );\n      }\n    } else if (_game.stage == Stage.Tied) {\n      if (_game.tokenAddress == address(0)) {\n        _bank.deAllocateEtherOf(_game.addressP1, _bet1AfterFees);\n        _bank.deAllocateEtherOf(_game.addressP2, _bet2AfterFees);\n      } else {\n        _bank.deAllocateTokensOf(_game.addressP1, _game.tokenAddress, _bet1AfterFees);\n        _bank.deAllocateTokensOf(_game.addressP2, _game.tokenAddress, _bet2AfterFees);\n      }\n    } else if (_game.stage == Stage.TimedOut) {\n      address _timeoutWinner;\n      address _timeoutLoser;\n\n      if (_game.choiceSecretP1 != 0x0 && _game.choiceSecretP2 != 0x0) {\n        _timeoutWinner = _game.choiceP1 != Choice.Undecided ? _game.addressP1 : _game.addressP2;\n        _timeoutWinner = _game.choiceP1 == Choice.Undecided ? _game.addressP1 : _game.addressP2;\n      } else {\n        _timeoutWinner = _game.choiceSecretP1 != 0x0 ? _game.addressP1 : _game.addressP2;\n        _timeoutLoser = _game.choiceSecretP1 == 0x0 ? _game.addressP1 : _game.addressP2;\n      }\n\n      if (_game.tokenAddress == address(0)) {\n        uint256 _timeoutDeAllocationAmount = _timeoutWinner == _game.addressP1 ? _bet1AfterFees : _bet2AfterFees;\n        uint256 _timeoutTransferAmount = _timeoutLoser == _game.addressP1 ? _bet1AfterFees : _bet2AfterFees;\n        _bank.deAllocateEtherOf(_timeoutWinner, _timeoutDeAllocationAmount);\n        _bank.transferAllocatedEtherOf(_timeoutLoser, _timeoutWinner, _timeoutTransferAmount);\n      } else {\n        _bank.deAllocateTokensOf(_timeoutWinner, _game.tokenAddress, _timeoutDeAllocationAmount);\n        _bank.transferAllocatedTokensOf(\n          _timeoutLoser, \n          _game.tokenAddress, \n          _timeoutWinner, \n          _timeoutTransferAmount\n        );\n      }\n    }\n\n    enterStage(_gameId, Stage.Paid);\n\n    getStats().incrementWinVolume(_bet1AfterFees.add(_bet2AfterFees));\n  }\n\n  function rematch(\n    uint256 _gameId\n  )\n    external\n    payable\n    onlyGameParticipant(_gameId)\n  {\n    IBank _bank = getBank();\n\n    if (msg.value > 0) {\n      _bank.depositEther.value(msg.value)();\n    }\n\n    Game memory _game;\n\n    if (rematchesFrom[_gameId] == 0) {\n      _game = games[_gameId];\n      require(_game.stage == Stage.WinnerDecided || _game.stage == Stage.Paid);\n      rematchesFrom[_gameId] = _gameId;\n\n      lastGameId++;\n      games[lastGameId] = Game(\n        _game.addressP1,\n        _game.addressP2,\n        address(0),\n        _game.tokenAddress,\n        _game.bet,\n        Choice(0),\n        Choice(0),\n        0x0,\n        0x0,\n        Stage.RematchPending\n      );\n\n      emit RematchProposed(_gameId, lastGameId, _game.addressP1, _game.addressP2);\n    } else {\n      _game = games[rematchesFrom[_gameId]];\n      require(_game.stage == Stage.RematchPending);\n      enterStage(rematchesFrom[_gameId], Stage.Ready);\n    }\n\n    if (_game.tokenAddress != address(0)) {\n      _bank.allocateTokensOf(msg.sender, _game.tokenAddress, _game.bet);\n    } else {\n      _bank.allocateEtherOf(msg.sender, _game.bet);\n    }\n  }\n\n  //\n  // end game actions\n  //\n\n  //\n  // start owner only functions\n  //\n\n  function updateMinBet(\n    uint256 _newMinBet\n  )\n    external\n    onlyOwner\n  {\n    minBet = _newMinBet;\n  }\n\n  function updateTimeout(\n    uint256 _newTimeoutInSeconds\n  )\n    external\n    onlyOwner\n  {\n    require(_newTimeoutInSeconds >= 1 * 60);\n\n    timeoutInSeconds = _newTimeoutInSeconds;\n  }\n\n  function updateReferralFeePerMille(\n    uint256 _newReferralFeePerMille\n  )\n    external\n    onlyOwner\n  {\n    require(_newReferralFeePerMille <= feePerMille);\n\n    referralFeePerMille = _newReferralFeePerMille;\n  }\n\n  function updateFeePerMille(\n    uint256 _newFeePerMille\n  )\n    external\n    onlyOwner\n  {\n    require(_newFeePerMille >= referralFeePerMille);\n\n    feePerMille = _newFeePerMille;\n  }\n\n  //\n  // end owner only functions\n  //\n}",
  "sourcePath": "/Users/tovarishfin/dev/personal/rps/contracts/RockPaperScissors.sol",
  "compiler": {
    "name": "solc",
    "version": "0.4.24+commit.e67f0147.Emscripten.clang"
  },
  "schemaVersion": "2.0.1",
  "updatedAt": "2018-11-25T21:27:37.397Z"
}