{
  "contractName": "RockPaperScissorsCommon",
  "abi": [
    {
      "constant": true,
      "inputs": [
        {
          "name": "",
          "type": "uint256"
        }
      ],
      "name": "games",
      "outputs": [
        {
          "name": "addressP1",
          "type": "address"
        },
        {
          "name": "addressP2",
          "type": "address"
        },
        {
          "name": "winner",
          "type": "address"
        },
        {
          "name": "tokenAddress",
          "type": "address"
        },
        {
          "name": "bet",
          "type": "uint256"
        },
        {
          "name": "choiceP1",
          "type": "uint8"
        },
        {
          "name": "choiceP2",
          "type": "uint8"
        },
        {
          "name": "choiceSecretP1",
          "type": "bytes32"
        },
        {
          "name": "choiceSecretP2",
          "type": "bytes32"
        },
        {
          "name": "stage",
          "type": "uint8"
        }
      ],
      "payable": false,
      "stateMutability": "view",
      "type": "function"
    },
    {
      "constant": true,
      "inputs": [],
      "name": "initialized",
      "outputs": [
        {
          "name": "",
          "type": "bool"
        }
      ],
      "payable": false,
      "stateMutability": "view",
      "type": "function"
    },
    {
      "constant": true,
      "inputs": [],
      "name": "rpsManagement",
      "outputs": [
        {
          "name": "",
          "type": "address"
        }
      ],
      "payable": false,
      "stateMutability": "view",
      "type": "function"
    },
    {
      "constant": true,
      "inputs": [],
      "name": "lastGameId",
      "outputs": [
        {
          "name": "",
          "type": "uint256"
        }
      ],
      "payable": false,
      "stateMutability": "view",
      "type": "function"
    },
    {
      "constant": true,
      "inputs": [
        {
          "name": "",
          "type": "uint256"
        }
      ],
      "name": "timingOutGames",
      "outputs": [
        {
          "name": "",
          "type": "uint256"
        }
      ],
      "payable": false,
      "stateMutability": "view",
      "type": "function"
    },
    {
      "constant": true,
      "inputs": [],
      "name": "paused",
      "outputs": [
        {
          "name": "",
          "type": "bool"
        }
      ],
      "payable": false,
      "stateMutability": "view",
      "type": "function"
    },
    {
      "constant": false,
      "inputs": [],
      "name": "renounceOwnership",
      "outputs": [],
      "payable": false,
      "stateMutability": "nonpayable",
      "type": "function"
    },
    {
      "constant": true,
      "inputs": [
        {
          "name": "",
          "type": "address"
        },
        {
          "name": "",
          "type": "uint256"
        }
      ],
      "name": "activeGamesOf",
      "outputs": [
        {
          "name": "",
          "type": "uint256"
        }
      ],
      "payable": false,
      "stateMutability": "view",
      "type": "function"
    },
    {
      "constant": true,
      "inputs": [
        {
          "name": "",
          "type": "uint256"
        }
      ],
      "name": "openGameIndex",
      "outputs": [
        {
          "name": "",
          "type": "uint256"
        }
      ],
      "payable": false,
      "stateMutability": "view",
      "type": "function"
    },
    {
      "constant": true,
      "inputs": [],
      "name": "registry",
      "outputs": [
        {
          "name": "",
          "type": "address"
        }
      ],
      "payable": false,
      "stateMutability": "view",
      "type": "function"
    },
    {
      "constant": true,
      "inputs": [],
      "name": "owner",
      "outputs": [
        {
          "name": "",
          "type": "address"
        }
      ],
      "payable": false,
      "stateMutability": "view",
      "type": "function"
    },
    {
      "constant": true,
      "inputs": [],
      "name": "isOwner",
      "outputs": [
        {
          "name": "",
          "type": "bool"
        }
      ],
      "payable": false,
      "stateMutability": "view",
      "type": "function"
    },
    {
      "constant": true,
      "inputs": [],
      "name": "minBet",
      "outputs": [
        {
          "name": "",
          "type": "uint256"
        }
      ],
      "payable": false,
      "stateMutability": "view",
      "type": "function"
    },
    {
      "constant": false,
      "inputs": [
        {
          "name": "_rpsCore",
          "type": "address"
        }
      ],
      "name": "upgradeRockPaperScissorsCore",
      "outputs": [
        {
          "name": "",
          "type": "bool"
        }
      ],
      "payable": false,
      "stateMutability": "nonpayable",
      "type": "function"
    },
    {
      "constant": true,
      "inputs": [],
      "name": "referralFeePerMille",
      "outputs": [
        {
          "name": "",
          "type": "uint256"
        }
      ],
      "payable": false,
      "stateMutability": "view",
      "type": "function"
    },
    {
      "constant": true,
      "inputs": [
        {
          "name": "",
          "type": "uint256"
        }
      ],
      "name": "activeGameOfIndex",
      "outputs": [
        {
          "name": "",
          "type": "uint256"
        }
      ],
      "payable": false,
      "stateMutability": "view",
      "type": "function"
    },
    {
      "constant": false,
      "inputs": [
        {
          "name": "_rpsManagement",
          "type": "address"
        }
      ],
      "name": "upgradeRockPaperScissorsManagement",
      "outputs": [
        {
          "name": "",
          "type": "bool"
        }
      ],
      "payable": false,
      "stateMutability": "nonpayable",
      "type": "function"
    },
    {
      "constant": true,
      "inputs": [],
      "name": "timeoutInSeconds",
      "outputs": [
        {
          "name": "",
          "type": "uint256"
        }
      ],
      "payable": false,
      "stateMutability": "view",
      "type": "function"
    },
    {
      "constant": true,
      "inputs": [],
      "name": "feePerMille",
      "outputs": [
        {
          "name": "",
          "type": "uint256"
        }
      ],
      "payable": false,
      "stateMutability": "view",
      "type": "function"
    },
    {
      "constant": false,
      "inputs": [
        {
          "name": "newOwner",
          "type": "address"
        }
      ],
      "name": "transferOwnership",
      "outputs": [],
      "payable": false,
      "stateMutability": "nonpayable",
      "type": "function"
    },
    {
      "constant": true,
      "inputs": [],
      "name": "rpsCore",
      "outputs": [
        {
          "name": "",
          "type": "address"
        }
      ],
      "payable": false,
      "stateMutability": "view",
      "type": "function"
    },
    {
      "constant": true,
      "inputs": [
        {
          "name": "",
          "type": "uint256"
        }
      ],
      "name": "openGames",
      "outputs": [
        {
          "name": "",
          "type": "uint256"
        }
      ],
      "payable": false,
      "stateMutability": "view",
      "type": "function"
    },
    {
      "anonymous": false,
      "inputs": [],
      "name": "Paused",
      "type": "event"
    },
    {
      "anonymous": false,
      "inputs": [],
      "name": "Unpaused",
      "type": "event"
    },
    {
      "anonymous": false,
      "inputs": [
        {
          "indexed": true,
          "name": "gameId",
          "type": "uint256"
        },
        {
          "indexed": true,
          "name": "stage",
          "type": "uint256"
        }
      ],
      "name": "StageChanged",
      "type": "event"
    },
    {
      "anonymous": false,
      "inputs": [
        {
          "indexed": true,
          "name": "gameId",
          "type": "uint256"
        },
        {
          "indexed": true,
          "name": "creator",
          "type": "address"
        }
      ],
      "name": "GameCreated",
      "type": "event"
    },
    {
      "anonymous": false,
      "inputs": [
        {
          "indexed": true,
          "name": "gameId",
          "type": "uint256"
        },
        {
          "indexed": true,
          "name": "cancellor",
          "type": "address"
        }
      ],
      "name": "GameCancelled",
      "type": "event"
    },
    {
      "anonymous": false,
      "inputs": [
        {
          "indexed": true,
          "name": "gameId",
          "type": "uint256"
        },
        {
          "indexed": true,
          "name": "creator",
          "type": "address"
        },
        {
          "indexed": true,
          "name": "joiner",
          "type": "address"
        }
      ],
      "name": "GameJoined",
      "type": "event"
    },
    {
      "anonymous": false,
      "inputs": [
        {
          "indexed": true,
          "name": "gameId",
          "type": "uint256"
        },
        {
          "indexed": false,
          "name": "committer",
          "type": "address"
        }
      ],
      "name": "ChoiceCommitted",
      "type": "event"
    },
    {
      "anonymous": false,
      "inputs": [
        {
          "indexed": true,
          "name": "gameId",
          "type": "uint256"
        },
        {
          "indexed": false,
          "name": "revealer",
          "type": "address"
        }
      ],
      "name": "ChoiceRevealed",
      "type": "event"
    },
    {
      "anonymous": false,
      "inputs": [
        {
          "indexed": true,
          "name": "gameId",
          "type": "uint256"
        },
        {
          "indexed": true,
          "name": "initiator",
          "type": "address"
        },
        {
          "indexed": true,
          "name": "delayer",
          "type": "address"
        }
      ],
      "name": "TimeoutStarted",
      "type": "event"
    },
    {
      "anonymous": false,
      "inputs": [
        {
          "indexed": true,
          "name": "gameId",
          "type": "uint256"
        },
        {
          "indexed": true,
          "name": "winner",
          "type": "address"
        },
        {
          "indexed": true,
          "name": "loser",
          "type": "address"
        }
      ],
      "name": "TimedOut",
      "type": "event"
    },
    {
      "anonymous": false,
      "inputs": [
        {
          "indexed": true,
          "name": "gameId",
          "type": "uint256"
        },
        {
          "indexed": true,
          "name": "player1",
          "type": "address"
        },
        {
          "indexed": true,
          "name": "player2",
          "type": "address"
        }
      ],
      "name": "Tied",
      "type": "event"
    },
    {
      "anonymous": false,
      "inputs": [
        {
          "indexed": true,
          "name": "gameId",
          "type": "uint256"
        },
        {
          "indexed": true,
          "name": "winner",
          "type": "address"
        },
        {
          "indexed": true,
          "name": "loser",
          "type": "address"
        }
      ],
      "name": "WinnerDecided",
      "type": "event"
    },
    {
      "anonymous": false,
      "inputs": [
        {
          "indexed": true,
          "name": "gameId",
          "type": "uint256"
        },
        {
          "indexed": true,
          "name": "settler",
          "type": "address"
        },
        {
          "indexed": false,
          "name": "winnings",
          "type": "uint256"
        }
      ],
      "name": "BetSettled",
      "type": "event"
    },
    {
      "anonymous": false,
      "inputs": [
        {
          "indexed": true,
          "name": "referrer",
          "type": "address"
        },
        {
          "indexed": true,
          "name": "referree",
          "type": "address"
        }
      ],
      "name": "ReferralSet",
      "type": "event"
    },
    {
      "anonymous": false,
      "inputs": [
        {
          "indexed": true,
          "name": "tokenAddress",
          "type": "address"
        },
        {
          "indexed": false,
          "name": "referred",
          "type": "address"
        },
        {
          "indexed": true,
          "name": "referrer",
          "type": "address"
        },
        {
          "indexed": false,
          "name": "value",
          "type": "uint256"
        }
      ],
      "name": "ReferralPaid",
      "type": "event"
    },
    {
      "anonymous": false,
      "inputs": [
        {
          "indexed": false,
          "name": "oldMinBet",
          "type": "uint256"
        },
        {
          "indexed": false,
          "name": "newMinBet",
          "type": "uint256"
        }
      ],
      "name": "MinBetUpdated",
      "type": "event"
    },
    {
      "anonymous": false,
      "inputs": [
        {
          "indexed": false,
          "name": "oldTimeout",
          "type": "uint256"
        },
        {
          "indexed": false,
          "name": "newTimeout",
          "type": "uint256"
        }
      ],
      "name": "TimeoutUpdated",
      "type": "event"
    },
    {
      "anonymous": false,
      "inputs": [
        {
          "indexed": false,
          "name": "oldReferralFee",
          "type": "uint256"
        },
        {
          "indexed": false,
          "name": "newReferralFee",
          "type": "uint256"
        }
      ],
      "name": "ReferralFeeUpdated",
      "type": "event"
    },
    {
      "anonymous": false,
      "inputs": [
        {
          "indexed": false,
          "name": "oldFee",
          "type": "uint256"
        },
        {
          "indexed": false,
          "name": "newFee",
          "type": "uint256"
        }
      ],
      "name": "FeeUpdated",
      "type": "event"
    },
    {
      "anonymous": false,
      "inputs": [
        {
          "indexed": false,
          "name": "upgradedFrom",
          "type": "address"
        },
        {
          "indexed": false,
          "name": "upgradedTo",
          "type": "address"
        }
      ],
      "name": "ProxyUpgraded",
      "type": "event"
    },
    {
      "anonymous": false,
      "inputs": [
        {
          "indexed": true,
          "name": "previousOwner",
          "type": "address"
        },
        {
          "indexed": true,
          "name": "newOwner",
          "type": "address"
        }
      ],
      "name": "OwnershipTransferred",
      "type": "event"
    }
  ],
  "bytecode": "0x6080604052336000806101000a81548173ffffffffffffffffffffffffffffffffffffffff021916908373ffffffffffffffffffffffffffffffffffffffff1602179055506000809054906101000a900473ffffffffffffffffffffffffffffffffffffffff1673ffffffffffffffffffffffffffffffffffffffff16600073ffffffffffffffffffffffffffffffffffffffff167f8be0079c531659141344cd1fd0a4f28419497f9722a3daafe3b4186f6b6457e060405160405180910390a3611056806100cf6000396000f300608060405260043610610128576000357c0100000000000000000000000000000000000000000000000000000000900463ffffffff168063117a5b901461012d578063158ef93e146102975780633721c9d7146102c65780633ee9d6481461031d5780634c470e7d146103485780635c975abb14610389578063715018a6146103b8578063722f74bb146103cf578063781e7a29146104305780637b103999146104715780638da5cb5b146104c85780638f32d59b1461051f5780639619367d1461054e578063c1ef8f6014610579578063cc0d630f146105d4578063d63e96fa146105ff578063eed6a92514610640578063efec6cd41461069b578063f08e2581146106c6578063f2fde38b146106f1578063fab0e95e14610734578063fd22a6cf1461078b575b600080fd5b34801561013957600080fd5b50610158600480360381019080803590602001909291905050506107cc565b604051808b73ffffffffffffffffffffffffffffffffffffffff1673ffffffffffffffffffffffffffffffffffffffff1681526020018a73ffffffffffffffffffffffffffffffffffffffff1673ffffffffffffffffffffffffffffffffffffffff1681526020018973ffffffffffffffffffffffffffffffffffffffff1673ffffffffffffffffffffffffffffffffffffffff1681526020018873ffffffffffffffffffffffffffffffffffffffff1673ffffffffffffffffffffffffffffffffffffffff16815260200187815260200186600381111561023657fe5b60ff16815260200185600381111561024a57fe5b60ff1681526020018460001916600019168152602001836000191660001916815260200182600981111561027a57fe5b60ff1681526020019a505050505050505050505060405180910390f35b3480156102a357600080fd5b506102ac6108c7565b604051808215151515815260200191505060405180910390f35b3480156102d257600080fd5b506102db6108da565b604051808273ffffffffffffffffffffffffffffffffffffffff1673ffffffffffffffffffffffffffffffffffffffff16815260200191505060405180910390f35b34801561032957600080fd5b50610332610900565b6040518082815260200191505060405180910390f35b34801561035457600080fd5b5061037360048036038101908080359060200190929190505050610906565b6040518082815260200191505060405180910390f35b34801561039557600080fd5b5061039e61091e565b604051808215151515815260200191505060405180910390f35b3480156103c457600080fd5b506103cd610931565b005b3480156103db57600080fd5b5061041a600480360381019080803573ffffffffffffffffffffffffffffffffffffffff16906020019092919080359060200190929190505050610a03565b6040518082815260200191505060405180910390f35b34801561043c57600080fd5b5061045b60048036038101908080359060200190929190505050610a33565b6040518082815260200191505060405180910390f35b34801561047d57600080fd5b50610486610a4b565b604051808273ffffffffffffffffffffffffffffffffffffffff1673ffffffffffffffffffffffffffffffffffffffff16815260200191505060405180910390f35b3480156104d457600080fd5b506104dd610a71565b604051808273ffffffffffffffffffffffffffffffffffffffff1673ffffffffffffffffffffffffffffffffffffffff16815260200191505060405180910390f35b34801561052b57600080fd5b50610534610a9a565b604051808215151515815260200191505060405180910390f35b34801561055a57600080fd5b50610563610af1565b6040518082815260200191505060405180910390f35b34801561058557600080fd5b506105ba600480360381019080803573ffffffffffffffffffffffffffffffffffffffff169060200190929190505050610af7565b604051808215151515815260200191505060405180910390f35b3480156105e057600080fd5b506105e9610cc1565b6040518082815260200191505060405180910390f35b34801561060b57600080fd5b5061062a60048036038101908080359060200190929190505050610cc7565b6040518082815260200191505060405180910390f35b34801561064c57600080fd5b50610681600480360381019080803573ffffffffffffffffffffffffffffffffffffffff169060200190929190505050610cdf565b604051808215151515815260200191505060405180910390f35b3480156106a757600080fd5b506106b0610ea9565b6040518082815260200191505060405180910390f35b3480156106d257600080fd5b506106db610eaf565b6040518082815260200191505060405180910390f35b3480156106fd57600080fd5b50610732600480360381019080803573ffffffffffffffffffffffffffffffffffffffff169060200190929190505050610eb5565b005b34801561074057600080fd5b50610749610ed4565b604051808273ffffffffffffffffffffffffffffffffffffffff1673ffffffffffffffffffffffffffffffffffffffff16815260200191505060405180910390f35b34801561079757600080fd5b506107b660048036038101908080359060200190929190505050610efa565b6040518082815260200191505060405180910390f35b60096020528060005260406000206000915090508060000160009054906101000a900473ffffffffffffffffffffffffffffffffffffffff16908060010160009054906101000a900473ffffffffffffffffffffffffffffffffffffffff16908060020160009054906101000a900473ffffffffffffffffffffffffffffffffffffffff16908060030160009054906101000a900473ffffffffffffffffffffffffffffffffffffffff16908060040154908060050160009054906101000a900460ff16908060050160019054906101000a900460ff16908060060154908060070154908060080160009054906101000a900460ff1690508a565b600260149054906101000a900460ff1681565b600260009054906101000a900473ffffffffffffffffffffffffffffffffffffffff1681565b60045481565b600e6020528060005260406000206000915090505481565b600360149054906101000a900460ff1681565b610939610a9a565b151561094457600080fd5b600073ffffffffffffffffffffffffffffffffffffffff166000809054906101000a900473ffffffffffffffffffffffffffffffffffffffff1673ffffffffffffffffffffffffffffffffffffffff167f8be0079c531659141344cd1fd0a4f28419497f9722a3daafe3b4186f6b6457e060405160405180910390a360008060006101000a81548173ffffffffffffffffffffffffffffffffffffffff021916908373ffffffffffffffffffffffffffffffffffffffff160217905550565b600c60205281600052604060002081815481101515610a1e57fe5b90600052602060002001600091509150505481565b600b6020528060005260406000206000915090505481565b600360009054906101000a900473ffffffffffffffffffffffffffffffffffffffff1681565b60008060009054906101000a900473ffffffffffffffffffffffffffffffffffffffff16905090565b60008060009054906101000a900473ffffffffffffffffffffffffffffffffffffffff1673ffffffffffffffffffffffffffffffffffffffff163373ffffffffffffffffffffffffffffffffffffffff1614905090565b60055481565b600080610b02610a9a565b1515610b0d57600080fd5b600073ffffffffffffffffffffffffffffffffffffffff168373ffffffffffffffffffffffffffffffffffffffff1614151515610b4957600080fd5b8273ffffffffffffffffffffffffffffffffffffffff16600160009054906101000a900473ffffffffffffffffffffffffffffffffffffffff1673ffffffffffffffffffffffffffffffffffffffff1614151515610ba657600080fd5b610baf83610f1d565b1515610bba57600080fd5b600160009054906101000a900473ffffffffffffffffffffffffffffffffffffffff16905082600160006101000a81548173ffffffffffffffffffffffffffffffffffffffff021916908373ffffffffffffffffffffffffffffffffffffffff1602179055507f3684250ce1e33b790ed973c23080f312db0adb21a6d98c61a5c9ff99e4babc178184604051808373ffffffffffffffffffffffffffffffffffffffff1673ffffffffffffffffffffffffffffffffffffffff1681526020018273ffffffffffffffffffffffffffffffffffffffff1673ffffffffffffffffffffffffffffffffffffffff1681526020019250505060405180910390a16001915050919050565b60075481565b600d6020528060005260406000206000915090505481565b600080610cea610a9a565b1515610cf557600080fd5b600073ffffffffffffffffffffffffffffffffffffffff168373ffffffffffffffffffffffffffffffffffffffff1614151515610d3157600080fd5b8273ffffffffffffffffffffffffffffffffffffffff16600260009054906101000a900473ffffffffffffffffffffffffffffffffffffffff1673ffffffffffffffffffffffffffffffffffffffff1614151515610d8e57600080fd5b610d9783610f1d565b1515610da257600080fd5b600260009054906101000a900473ffffffffffffffffffffffffffffffffffffffff16905082600260006101000a81548173ffffffffffffffffffffffffffffffffffffffff021916908373ffffffffffffffffffffffffffffffffffffffff1602179055507f3684250ce1e33b790ed973c23080f312db0adb21a6d98c61a5c9ff99e4babc178184604051808373ffffffffffffffffffffffffffffffffffffffff1673ffffffffffffffffffffffffffffffffffffffff1681526020018273ffffffffffffffffffffffffffffffffffffffff1673ffffffffffffffffffffffffffffffffffffffff1681526020019250505060405180910390a16001915050919050565b60065481565b60085481565b610ebd610a9a565b1515610ec857600080fd5b610ed181610f30565b50565b600160009054906101000a900473ffffffffffffffffffffffffffffffffffffffff1681565b600a81815481101515610f0957fe5b906000526020600020016000915090505481565b600080823b905060008111915050919050565b600073ffffffffffffffffffffffffffffffffffffffff168173ffffffffffffffffffffffffffffffffffffffff1614151515610f6c57600080fd5b8073ffffffffffffffffffffffffffffffffffffffff166000809054906101000a900473ffffffffffffffffffffffffffffffffffffffff1673ffffffffffffffffffffffffffffffffffffffff167f8be0079c531659141344cd1fd0a4f28419497f9722a3daafe3b4186f6b6457e060405160405180910390a3806000806101000a81548173ffffffffffffffffffffffffffffffffffffffff021916908373ffffffffffffffffffffffffffffffffffffffff160217905550505600a165627a7a72305820d3e3946433059910909de20fc9b89e3108b4b706801903729ac7b95a27f183520029",
  "source": "pragma solidity ^0.4.25;\n\n// interfaces\nimport \"./interfaces/IRegistry.sol\";\nimport \"./interfaces/IBank.sol\";\nimport \"./interfaces/IStatistics.sol\";\nimport \"./interfaces/IReferrals.sol\";\n// libraries\nimport \"openzeppelin-solidity/contracts/math/SafeMath.sol\";\n// contracts\nimport \"./Upgradeable.sol\";\n\n\ncontract RockPaperScissorsCommon is Upgradeable {\n  using SafeMath for uint256;\n\n  IRegistry public registry;\n\n  //\n  // start operating params\n  //\n\n\n  bool public paused;\n  uint256 public lastGameId;\n  uint256 public minBet;\n  uint256 public timeoutInSeconds;\n  uint256 public referralFeePerMille;\n  uint256 public feePerMille;\n\n  //\n  // end operating params\n  //\n\n  //\n  // start game tracking storage\n  //\n\n  mapping(uint256 => Game) public games;\n  uint256[] public openGames;\n  mapping(uint256 => uint256) public openGameIndex;\n  mapping(address => uint256[]) public activeGamesOf;\n  mapping(uint256 => uint256) public activeGameOfIndex;\n  mapping(uint256 => uint256) public timingOutGames;\n\n  //\n  // end game tracking storage\n  //\n\n  enum Stage {\n    Uninitialized, // 0\n    Created, // 1\n    Cancelled, // 2\n    Ready, // 3\n    Committed, // 4\n    TimingOut, // 5\n    TimedOut, // 6\n    Tied, // 7\n    WinnerDecided, // 8\n    Paid // 9\n  }\n\n  enum Choice {\n    Undecided,\n    Rock,\n    Paper,\n    Scissors\n  }\n\n  struct Game {\n    address addressP1;\n    address addressP2;\n    address winner;\n    address tokenAddress;\n    uint256 bet;\n    Choice choiceP1;\n    Choice choiceP2;\n    bytes32 choiceSecretP1;\n    bytes32 choiceSecretP2;\n    Stage stage;\n  }\n\n  //\n  // start events\n  //\n\n  event Paused();\n\n  event Unpaused();\n\n  event StageChanged(\n    uint256 indexed gameId,\n    uint256 indexed stage\n  );\n\n  event GameCreated(\n    uint256 indexed gameId,\n    address indexed creator\n  );\n\n  event GameCancelled(\n    uint256 indexed gameId,\n    address indexed cancellor\n  );\n\n  event GameJoined(\n    uint256 indexed gameId,\n    address indexed creator,\n    address indexed joiner\n  );\n\n  event ChoiceCommitted(\n    uint256 indexed gameId,\n    address committer\n  );\n\n  event ChoiceRevealed(\n    uint256 indexed gameId,\n    address revealer\n  );\n\n  event TimeoutStarted(\n    uint256 indexed gameId,\n    address indexed initiator,\n    address indexed delayer\n  );\n\n  event TimedOut(\n    uint256 indexed gameId,\n    address indexed winner,\n    address indexed loser\n  );\n\n  event Tied(\n    uint256 indexed gameId,\n    address indexed player1,\n    address indexed player2\n  );\n\n  event WinnerDecided(\n    uint256 indexed gameId,\n    address indexed winner,\n    address indexed loser\n  );\n\n  event BetSettled(\n    uint256 indexed gameId,\n    address indexed settler,\n    uint256 winnings\n  );\n\n  event ReferralSet(\n    address indexed referrer,\n    address indexed referree\n  );\n\n  event ReferralPaid(\n    address indexed tokenAddress,\n    address referred,\n    address indexed referrer,\n    uint256 value\n  );\n\n  event MinBetUpdated(\n    uint256 oldMinBet,\n    uint256 newMinBet\n  );\n\n  event TimeoutUpdated(\n    uint256 oldTimeout,\n    uint256 newTimeout\n  );\n\n  event ReferralFeeUpdated(\n    uint256 oldReferralFee,\n    uint256 newReferralFee\n  );\n\n  event FeeUpdated(\n    uint256 oldFee,\n    uint256 newFee\n  );\n\n  //\n  // end events\n  //\n\n  //\n  // start modifiers\n  //\n\n  modifier whenNotPaused() {\n    require(!paused);\n    _;\n  }\n\n  modifier whenPaused() {\n    require(paused);\n    _;\n  }\n\n  modifier atStage(\n    uint256 _gameId,\n    Stage _stage\n  ) {\n    require(games[_gameId].stage == _stage);\n\n    _;\n  }\n\n  modifier atEitherStage(\n    uint256 _gameId,\n    Stage _stage,\n    Stage _orStage\n  ) {\n    require(games[_gameId].stage == _stage || games[_gameId].stage == _orStage);\n\n    _;\n  }\n\n  modifier timeoutAllowed(\n    uint256 _gameId\n  ) {\n    Game memory _game = games[_gameId];\n\n    if (_game.stage == Stage.Ready) {\n      require(_game.choiceSecretP1 == bytes32(0) || _game.choiceSecretP2 == bytes32(0));\n      require(_game.choiceSecretP1 != bytes32(0) || _game.choiceSecretP2 != bytes32(0));\n    } \n    \n    if (_game.stage == Stage.Committed) {\n      require(_game.choiceP1 == Choice.Undecided || _game.choiceP2 == Choice.Undecided);\n      require(_game.choiceP1 != Choice.Undecided || _game.choiceP2 != Choice.Undecided);\n    }\n\n    _;\n  }\n\n  modifier onlyGameParticipant(\n    uint256 _gameId\n  ) {\n    Game memory _game = games[_gameId];\n    require(msg.sender == _game.addressP1 || msg.sender == _game.addressP2);\n\n    _;\n  }\n\n  //\n  // end modifiers\n  //\n\n  //\n  // start internal helper functions\n  //\n\n  function getBank()\n    internal\n    view\n    returns (IBank)\n  {\n    return IBank(registry.getEntry(\"Bank\"));\n  }\n\n  function getStatistics()\n    internal\n    view\n    returns (IStatistics)\n  {\n    return IStatistics(registry.getEntry(\"Statistics\"));\n  }\n\n  function getReferrals()\n    internal\n    view\n    returns (IReferrals)\n  {\n    return IReferrals(registry.getEntry(\"Referrals\"));\n  }\n\n  function removeActiveGameOf(\n    address _player,\n    uint256 _gameId\n  )\n    internal\n  {\n    require(activeGamesOf[_player].length > 0);\n    uint256 _index = activeGameOfIndex[_gameId];\n\n    activeGamesOf[_player][_index] = activeGamesOf[_player][activeGamesOf[_player].length - 1];\n\n    activeGamesOf[_player].length--;\n  }\n\n  function addActiveGameOf(\n    address _player,\n    uint256 _gameId\n  )\n    internal\n  {\n    activeGamesOf[_player].push(_gameId);\n  }\n  \n  function enterStage(\n    uint256 _gameId,\n    Stage _newStage\n  ) \n    internal\n  {\n    Stage _oldStage = games[_gameId].stage;\n\n    // add gameId to openGames if newly created\n    if (_oldStage == Stage.Uninitialized && _newStage == Stage.Created) {\n      openGames.push(_gameId);\n    }\n\n    // remove gameId from openGames if leaving created status (someone joins/cancels)\n    if (_oldStage == Stage.Created && _newStage != Stage.Created) {\n      uint256 _operatingIndex = openGameIndex[_gameId];\n      uint256 _replacingGameId = openGames[openGames.length.sub(1)];\n      openGames[_operatingIndex] = _replacingGameId;\n      openGames.length = openGames.length.sub(1);\n      openGameIndex[_replacingGameId] = _operatingIndex;\n    }\n\n    games[_gameId].stage = _newStage;\n\n    emit StageChanged(_gameId, uint256(_newStage));\n  }\n\n  function computeWinner(\n    uint256 _gameId\n  )\n    internal\n  {\n    Game storage _game = games[_gameId];\n    Choice _c1 = _game.choiceP1;\n    Choice _c2 = _game.choiceP2;\n    address _a1 = _game.addressP1;\n    address _a2 = _game.addressP2;\n\n    if (_c1 == _c2) {\n      enterStage(_gameId, Stage.Tied);\n\n      emit Tied(_gameId, _a1, _a2);\n\n      return;\n    } else if (_c1 == Choice.Rock && _c2 == Choice.Paper) {\n      _game.winner = _a2;\n    } else if (_c1 == Choice.Rock && _c2 == Choice.Scissors) {\n      _game.winner = _a1;\n    } else if (_c1 == Choice.Paper && _c2 == Choice.Rock) {\n      _game.winner = _a1;\n    } else if (_c1 == Choice.Paper && _c2 == Choice.Scissors) {\n      _game.winner = _a2;\n    } else if (_c1 == Choice.Scissors && _c2 == Choice.Rock) {\n      _game.winner = _a2;\n    } else if (_c1 == Choice.Scissors && _c2 == Choice.Paper) {\n      _game.winner = _a1;\n    }\n\n    enterStage(_gameId, Stage.WinnerDecided);\n\n    getStatistics().incrementTotalWinCount();\n\n    address _loser = _game.winner == _a1 ? _a2 : _a1;\n\n    emit WinnerDecided(_gameId, _game.winner, _loser);\n  }\n\n  function processFee(\n    address _feePayer,\n    address _tokenAddress,\n    uint256 _bet\n  )\n    internal\n    returns (uint256)\n  {\n    uint256 _ownerFee = _bet.mul(feePerMille).div(1e3);\n    uint256 _betAfterFee = _bet.sub(_ownerFee);\n    address _referrer = getReferrals().getReferral(_feePayer);\n    address _owner = owner();\n    uint256 _referralFee;\n\n    if (_referrer != address(0)) {\n      _referralFee = _bet\n        .mul(referralFeePerMille)\n        .div(1e3);\n\n      _ownerFee = _ownerFee.sub(_referralFee);\n\n      _betAfterFee = _bet\n        .sub(_ownerFee)\n        .sub(_referralFee);\n\n      getStatistics().incrementTotalReferralVolume(_referralFee);\n    }\n\n    IBank _bank = getBank();\n\n    _bank.transferAllocatedTokensOf(\n      _feePayer, \n      _tokenAddress, \n      _owner, \n      _ownerFee\n    );\n    _bank.transferAllocatedTokensOf(\n      _feePayer,\n      _tokenAddress,\n      _referrer,\n      _referralFee\n    );\n\n    emit ReferralPaid(\n      _tokenAddress,\n      _feePayer,\n      _referrer,\n      _referralFee\n    );\n\n    return _betAfterFee;\n  }\n\n  //\n  // end internal helper functions\n  //\n}",
  "sourcePath": "/Users/tovarishfin/dev/personal/rps/contracts/RockPaperScissorsCommon.sol",
  "compiler": {
    "name": "solc",
    "version": "0.4.25+commit.59dbf8f1.Emscripten.clang"
  },
  "schemaVersion": "3.0.0",
  "updatedAt": "2018-12-30T23:49:29.381Z",
  "devdoc": {
    "methods": {
      "isOwner()": {
        "return": "true if `msg.sender` is the owner of the contract."
      },
      "owner()": {
        "return": "the address of the owner."
      },
      "renounceOwnership()": {
        "details": "Allows the current owner to relinquish control of the contract."
      },
      "transferOwnership(address)": {
        "details": "Allows the current owner to transfer control of the contract to a newOwner.",
        "params": {
          "newOwner": "The address to transfer ownership to."
        }
      }
    }
  },
  "userdoc": {
    "methods": {
      "renounceOwnership()": {
        "notice": "Renouncing to ownership will leave the contract without an owner. It will not be possible to call the functions with the `onlyOwner` modifier anymore."
      }
    }
  }
}