{
  "contractName": "Statistics",
  "abi": [
    {
      "constant": true,
      "inputs": [],
      "name": "totalWinVolume",
      "outputs": [
        {
          "name": "",
          "type": "uint256"
        }
      ],
      "payable": false,
      "stateMutability": "view",
      "type": "function",
      "signature": "0x0a349282"
    },
    {
      "constant": true,
      "inputs": [],
      "name": "initialized",
      "outputs": [
        {
          "name": "",
          "type": "bool"
        }
      ],
      "payable": false,
      "stateMutability": "view",
      "type": "function",
      "signature": "0x158ef93e"
    },
    {
      "constant": true,
      "inputs": [],
      "name": "rpsManagement",
      "outputs": [
        {
          "name": "",
          "type": "address"
        }
      ],
      "payable": false,
      "stateMutability": "view",
      "type": "function",
      "signature": "0x3721c9d7"
    },
    {
      "constant": true,
      "inputs": [],
      "name": "totalPlayCount",
      "outputs": [
        {
          "name": "",
          "type": "uint256"
        }
      ],
      "payable": false,
      "stateMutability": "view",
      "type": "function",
      "signature": "0x59dfdec8"
    },
    {
      "constant": false,
      "inputs": [],
      "name": "renounceOwnership",
      "outputs": [],
      "payable": false,
      "stateMutability": "nonpayable",
      "type": "function",
      "signature": "0x715018a6"
    },
    {
      "constant": true,
      "inputs": [],
      "name": "registry",
      "outputs": [
        {
          "name": "",
          "type": "address"
        }
      ],
      "payable": false,
      "stateMutability": "view",
      "type": "function",
      "signature": "0x7b103999"
    },
    {
      "constant": true,
      "inputs": [],
      "name": "totalReferralCount",
      "outputs": [
        {
          "name": "",
          "type": "uint256"
        }
      ],
      "payable": false,
      "stateMutability": "view",
      "type": "function",
      "signature": "0x8473cc3a"
    },
    {
      "constant": true,
      "inputs": [],
      "name": "owner",
      "outputs": [
        {
          "name": "",
          "type": "address"
        }
      ],
      "payable": false,
      "stateMutability": "view",
      "type": "function",
      "signature": "0x8da5cb5b"
    },
    {
      "constant": true,
      "inputs": [],
      "name": "isOwner",
      "outputs": [
        {
          "name": "",
          "type": "bool"
        }
      ],
      "payable": false,
      "stateMutability": "view",
      "type": "function",
      "signature": "0x8f32d59b"
    },
    {
      "constant": true,
      "inputs": [],
      "name": "totalReferralVolume",
      "outputs": [
        {
          "name": "",
          "type": "uint256"
        }
      ],
      "payable": false,
      "stateMutability": "view",
      "type": "function",
      "signature": "0xaebdfef7"
    },
    {
      "constant": false,
      "inputs": [
        {
          "name": "_rpsCore",
          "type": "address"
        }
      ],
      "name": "upgradeRockPaperScissorsCore",
      "outputs": [
        {
          "name": "",
          "type": "bool"
        }
      ],
      "payable": false,
      "stateMutability": "nonpayable",
      "type": "function",
      "signature": "0xc1ef8f60"
    },
    {
      "constant": false,
      "inputs": [
        {
          "name": "_rpsManagement",
          "type": "address"
        }
      ],
      "name": "upgradeRockPaperScissorsManagement",
      "outputs": [
        {
          "name": "",
          "type": "bool"
        }
      ],
      "payable": false,
      "stateMutability": "nonpayable",
      "type": "function",
      "signature": "0xeed6a925"
    },
    {
      "constant": true,
      "inputs": [],
      "name": "totalWinCount",
      "outputs": [
        {
          "name": "",
          "type": "uint256"
        }
      ],
      "payable": false,
      "stateMutability": "view",
      "type": "function",
      "signature": "0xf198665c"
    },
    {
      "constant": false,
      "inputs": [
        {
          "name": "newOwner",
          "type": "address"
        }
      ],
      "name": "transferOwnership",
      "outputs": [],
      "payable": false,
      "stateMutability": "nonpayable",
      "type": "function",
      "signature": "0xf2fde38b"
    },
    {
      "constant": true,
      "inputs": [],
      "name": "rpsCore",
      "outputs": [
        {
          "name": "",
          "type": "address"
        }
      ],
      "payable": false,
      "stateMutability": "view",
      "type": "function",
      "signature": "0xfab0e95e"
    },
    {
      "anonymous": false,
      "inputs": [
        {
          "indexed": false,
          "name": "upgradedFrom",
          "type": "address"
        },
        {
          "indexed": false,
          "name": "upgradedTo",
          "type": "address"
        }
      ],
      "name": "ProxyUpgraded",
      "type": "event",
      "signature": "0x3684250ce1e33b790ed973c23080f312db0adb21a6d98c61a5c9ff99e4babc17"
    },
    {
      "anonymous": false,
      "inputs": [
        {
          "indexed": true,
          "name": "previousOwner",
          "type": "address"
        },
        {
          "indexed": true,
          "name": "newOwner",
          "type": "address"
        }
      ],
      "name": "OwnershipTransferred",
      "type": "event",
      "signature": "0x8be0079c531659141344cd1fd0a4f28419497f9722a3daafe3b4186f6b6457e0"
    },
    {
      "constant": false,
      "inputs": [
        {
          "name": "_registry",
          "type": "address"
        }
      ],
      "name": "initialize",
      "outputs": [],
      "payable": false,
      "stateMutability": "nonpayable",
      "type": "function",
      "signature": "0xc4d66de8"
    },
    {
      "constant": false,
      "inputs": [],
      "name": "incrementTotalPlayCount",
      "outputs": [],
      "payable": false,
      "stateMutability": "nonpayable",
      "type": "function",
      "signature": "0xe65777ef"
    },
    {
      "constant": false,
      "inputs": [],
      "name": "incrementTotalWinCount",
      "outputs": [],
      "payable": false,
      "stateMutability": "nonpayable",
      "type": "function",
      "signature": "0xe9536a86"
    },
    {
      "constant": false,
      "inputs": [
        {
          "name": "_winAmount",
          "type": "uint256"
        }
      ],
      "name": "incrementTotalWinVolume",
      "outputs": [],
      "payable": false,
      "stateMutability": "nonpayable",
      "type": "function",
      "signature": "0x467d3eb1"
    },
    {
      "constant": false,
      "inputs": [],
      "name": "incrementTotalReferralCount",
      "outputs": [],
      "payable": false,
      "stateMutability": "nonpayable",
      "type": "function",
      "signature": "0x3e522458"
    },
    {
      "constant": false,
      "inputs": [
        {
          "name": "_incrementAmount",
          "type": "uint256"
        }
      ],
      "name": "incrementTotalReferralVolume",
      "outputs": [],
      "payable": false,
      "stateMutability": "nonpayable",
      "type": "function",
      "signature": "0x9e7cc2bf"
    }
  ],
  "bytecode": "0x6080604052336000806101000a81548173ffffffffffffffffffffffffffffffffffffffff021916908373ffffffffffffffffffffffffffffffffffffffff1602179055506000809054906101000a900473ffffffffffffffffffffffffffffffffffffffff1673ffffffffffffffffffffffffffffffffffffffff16600073ffffffffffffffffffffffffffffffffffffffff167f8be0079c531659141344cd1fd0a4f28419497f9722a3daafe3b4186f6b6457e060405160405180910390a361135a806100cf6000396000f30060806040526004361061011d576000357c0100000000000000000000000000000000000000000000000000000000900463ffffffff1680630a34928214610122578063158ef93e1461014d5780633721c9d71461017c5780633e522458146101d3578063467d3eb1146101ea57806359dfdec814610217578063715018a6146102425780637b103999146102595780638473cc3a146102b05780638da5cb5b146102db5780638f32d59b146103325780639e7cc2bf14610361578063aebdfef71461038e578063c1ef8f60146103b9578063c4d66de814610414578063e65777ef14610457578063e9536a861461046e578063eed6a92514610485578063f198665c146104e0578063f2fde38b1461050b578063fab0e95e1461054e575b600080fd5b34801561012e57600080fd5b506101376105a5565b6040518082815260200191505060405180910390f35b34801561015957600080fd5b506101626105ab565b604051808215151515815260200191505060405180910390f35b34801561018857600080fd5b506101916105be565b604051808273ffffffffffffffffffffffffffffffffffffffff1673ffffffffffffffffffffffffffffffffffffffff16815260200191505060405180910390f35b3480156101df57600080fd5b506101e86105e4565b005b3480156101f657600080fd5b5061021560048036038101908080359060200190929190505050610705565b005b34801561022357600080fd5b5061022c610826565b6040518082815260200191505060405180910390f35b34801561024e57600080fd5b5061025761082c565b005b34801561026557600080fd5b5061026e6108fe565b604051808273ffffffffffffffffffffffffffffffffffffffff1673ffffffffffffffffffffffffffffffffffffffff16815260200191505060405180910390f35b3480156102bc57600080fd5b506102c5610924565b6040518082815260200191505060405180910390f35b3480156102e757600080fd5b506102f061092a565b604051808273ffffffffffffffffffffffffffffffffffffffff1673ffffffffffffffffffffffffffffffffffffffff16815260200191505060405180910390f35b34801561033e57600080fd5b50610347610953565b604051808215151515815260200191505060405180910390f35b34801561036d57600080fd5b5061038c600480360381019080803590602001909291905050506109aa565b005b34801561039a57600080fd5b506103a3610acb565b6040518082815260200191505060405180910390f35b3480156103c557600080fd5b506103fa600480360381019080803573ffffffffffffffffffffffffffffffffffffffff169060200190929190505050610ad1565b604051808215151515815260200191505060405180910390f35b34801561042057600080fd5b50610455600480360381019080803573ffffffffffffffffffffffffffffffffffffffff169060200190929190505050610c9b565b005b34801561046357600080fd5b5061046c610da9565b005b34801561047a57600080fd5b50610483610eca565b005b34801561049157600080fd5b506104c6600480360381019080803573ffffffffffffffffffffffffffffffffffffffff169060200190929190505050610feb565b604051808215151515815260200191505060405180910390f35b3480156104ec57600080fd5b506104f56111b5565b6040518082815260200191505060405180910390f35b34801561051757600080fd5b5061054c600480360381019080803573ffffffffffffffffffffffffffffffffffffffff1690602001909291905050506111bb565b005b34801561055a57600080fd5b506105636111da565b604051808273ffffffffffffffffffffffffffffffffffffffff1673ffffffffffffffffffffffffffffffffffffffff16815260200191505060405180910390f35b60065481565b600260149054906101000a900460ff1681565b600260009054906101000a900473ffffffffffffffffffffffffffffffffffffffff1681565b600360009054906101000a900473ffffffffffffffffffffffffffffffffffffffff1673ffffffffffffffffffffffffffffffffffffffff1663c04a7d0d336040518263ffffffff167c0100000000000000000000000000000000000000000000000000000000028152600401808273ffffffffffffffffffffffffffffffffffffffff1673ffffffffffffffffffffffffffffffffffffffff168152602001915050602060405180830381600087803b1580156106a157600080fd5b505af11580156106b5573d6000803e3d6000fd5b505050506040513d60208110156106cb57600080fd5b810190808051906020019092919050505015156106e757600080fd5b6106fd600160075461120090919063ffffffff16565b600781905550565b600360009054906101000a900473ffffffffffffffffffffffffffffffffffffffff1673ffffffffffffffffffffffffffffffffffffffff1663c04a7d0d336040518263ffffffff167c0100000000000000000000000000000000000000000000000000000000028152600401808273ffffffffffffffffffffffffffffffffffffffff1673ffffffffffffffffffffffffffffffffffffffff168152602001915050602060405180830381600087803b1580156107c257600080fd5b505af11580156107d6573d6000803e3d6000fd5b505050506040513d60208110156107ec57600080fd5b8101908080519060200190929190505050151561080857600080fd5b61081d8160065461120090919063ffffffff16565b60068190555050565b60045481565b610834610953565b151561083f57600080fd5b600073ffffffffffffffffffffffffffffffffffffffff166000809054906101000a900473ffffffffffffffffffffffffffffffffffffffff1673ffffffffffffffffffffffffffffffffffffffff167f8be0079c531659141344cd1fd0a4f28419497f9722a3daafe3b4186f6b6457e060405160405180910390a360008060006101000a81548173ffffffffffffffffffffffffffffffffffffffff021916908373ffffffffffffffffffffffffffffffffffffffff160217905550565b600360009054906101000a900473ffffffffffffffffffffffffffffffffffffffff1681565b60075481565b60008060009054906101000a900473ffffffffffffffffffffffffffffffffffffffff16905090565b60008060009054906101000a900473ffffffffffffffffffffffffffffffffffffffff1673ffffffffffffffffffffffffffffffffffffffff163373ffffffffffffffffffffffffffffffffffffffff1614905090565b600360009054906101000a900473ffffffffffffffffffffffffffffffffffffffff1673ffffffffffffffffffffffffffffffffffffffff1663c04a7d0d336040518263ffffffff167c0100000000000000000000000000000000000000000000000000000000028152600401808273ffffffffffffffffffffffffffffffffffffffff1673ffffffffffffffffffffffffffffffffffffffff168152602001915050602060405180830381600087803b158015610a6757600080fd5b505af1158015610a7b573d6000803e3d6000fd5b505050506040513d6020811015610a9157600080fd5b81019080805190602001909291905050501515610aad57600080fd5b610ac28160085461120090919063ffffffff16565b60088190555050565b60085481565b600080610adc610953565b1515610ae757600080fd5b600073ffffffffffffffffffffffffffffffffffffffff168373ffffffffffffffffffffffffffffffffffffffff1614151515610b2357600080fd5b8273ffffffffffffffffffffffffffffffffffffffff16600160009054906101000a900473ffffffffffffffffffffffffffffffffffffffff1673ffffffffffffffffffffffffffffffffffffffff1614151515610b8057600080fd5b610b8983611221565b1515610b9457600080fd5b600160009054906101000a900473ffffffffffffffffffffffffffffffffffffffff16905082600160006101000a81548173ffffffffffffffffffffffffffffffffffffffff021916908373ffffffffffffffffffffffffffffffffffffffff1602179055507f3684250ce1e33b790ed973c23080f312db0adb21a6d98c61a5c9ff99e4babc178184604051808373ffffffffffffffffffffffffffffffffffffffff1673ffffffffffffffffffffffffffffffffffffffff1681526020018273ffffffffffffffffffffffffffffffffffffffff1673ffffffffffffffffffffffffffffffffffffffff1681526020019250505060405180910390a16001915050919050565b6000610ca561092a565b73ffffffffffffffffffffffffffffffffffffffff163373ffffffffffffffffffffffffffffffffffffffff16141515610cde57600080fd5b600260149054906101000a900460ff16151515610cfa57600080fd5b6001600260146101000a81548160ff021916908315150217905550600073ffffffffffffffffffffffffffffffffffffffff168273ffffffffffffffffffffffffffffffffffffffff1614151515610d5157600080fd5b813b9050600081111515610d6457600080fd5b81600360006101000a81548173ffffffffffffffffffffffffffffffffffffffff021916908373ffffffffffffffffffffffffffffffffffffffff1602179055505050565b600360009054906101000a900473ffffffffffffffffffffffffffffffffffffffff1673ffffffffffffffffffffffffffffffffffffffff1663c04a7d0d336040518263ffffffff167c0100000000000000000000000000000000000000000000000000000000028152600401808273ffffffffffffffffffffffffffffffffffffffff1673ffffffffffffffffffffffffffffffffffffffff168152602001915050602060405180830381600087803b158015610e6657600080fd5b505af1158015610e7a573d6000803e3d6000fd5b505050506040513d6020811015610e9057600080fd5b81019080805190602001909291905050501515610eac57600080fd5b610ec2600160045461120090919063ffffffff16565b600481905550565b600360009054906101000a900473ffffffffffffffffffffffffffffffffffffffff1673ffffffffffffffffffffffffffffffffffffffff1663c04a7d0d336040518263ffffffff167c0100000000000000000000000000000000000000000000000000000000028152600401808273ffffffffffffffffffffffffffffffffffffffff1673ffffffffffffffffffffffffffffffffffffffff168152602001915050602060405180830381600087803b158015610f8757600080fd5b505af1158015610f9b573d6000803e3d6000fd5b505050506040513d6020811015610fb157600080fd5b81019080805190602001909291905050501515610fcd57600080fd5b610fe3600160055461120090919063ffffffff16565b600581905550565b600080610ff6610953565b151561100157600080fd5b600073ffffffffffffffffffffffffffffffffffffffff168373ffffffffffffffffffffffffffffffffffffffff161415151561103d57600080fd5b8273ffffffffffffffffffffffffffffffffffffffff16600260009054906101000a900473ffffffffffffffffffffffffffffffffffffffff1673ffffffffffffffffffffffffffffffffffffffff161415151561109a57600080fd5b6110a383611221565b15156110ae57600080fd5b600260009054906101000a900473ffffffffffffffffffffffffffffffffffffffff16905082600260006101000a81548173ffffffffffffffffffffffffffffffffffffffff021916908373ffffffffffffffffffffffffffffffffffffffff1602179055507f3684250ce1e33b790ed973c23080f312db0adb21a6d98c61a5c9ff99e4babc178184604051808373ffffffffffffffffffffffffffffffffffffffff1673ffffffffffffffffffffffffffffffffffffffff1681526020018273ffffffffffffffffffffffffffffffffffffffff1673ffffffffffffffffffffffffffffffffffffffff1681526020019250505060405180910390a16001915050919050565b60055481565b6111c3610953565b15156111ce57600080fd5b6111d781611234565b50565b600160009054906101000a900473ffffffffffffffffffffffffffffffffffffffff1681565b600080828401905083811015151561121757600080fd5b8091505092915050565b600080823b905060008111915050919050565b600073ffffffffffffffffffffffffffffffffffffffff168173ffffffffffffffffffffffffffffffffffffffff161415151561127057600080fd5b8073ffffffffffffffffffffffffffffffffffffffff166000809054906101000a900473ffffffffffffffffffffffffffffffffffffffff1673ffffffffffffffffffffffffffffffffffffffff167f8be0079c531659141344cd1fd0a4f28419497f9722a3daafe3b4186f6b6457e060405160405180910390a3806000806101000a81548173ffffffffffffffffffffffffffffffffffffffff021916908373ffffffffffffffffffffffffffffffffffffffff160217905550505600a165627a7a72305820cb1f2a059fb198580d8068783e1cebe1b2138936f941e0f11285af3edce388b80029",
  "source": "pragma solidity ^0.4.25;\n\nimport \"./Upgradeable.sol\";\nimport \"./interfaces/IRegistry.sol\";\nimport \"openzeppelin-solidity/contracts/math/SafeMath.sol\";\n\n\ncontract Statistics is Upgradeable {\n  using SafeMath for uint256;\n\n  IRegistry public registry;\n\n  uint256 public totalPlayCount;\n  uint256 public totalWinCount;\n  uint256 public totalWinVolume;\n  uint256 public totalReferralCount;\n  uint256 public totalReferralVolume;\n\n  modifier onlyGameContract() {\n    require(registry.isGameContract(msg.sender));\n\n    _;\n  }\n\n  function initialize(\n    address _registry\n  )\n    external\n    initOneTimeOnly\n  {\n    require(_registry != address(0));\n\n    uint256 _code;\n    assembly {\n      _code := extcodesize(_registry)\n    }\n    require(_code > 0);\n\n    registry = IRegistry(_registry);\n  }\n\n  function incrementTotalPlayCount()\n    external\n    onlyGameContract\n  {\n    totalPlayCount = totalPlayCount.add(1);\n  }\n\n  function incrementTotalWinCount()\n    external\n    onlyGameContract\n  {\n    totalWinCount = totalWinCount.add(1);\n  }\n\n  function incrementTotalWinVolume(\n    uint256 _winAmount\n  )\n    external\n    onlyGameContract\n  {\n    totalWinVolume = totalWinVolume.add(_winAmount);\n  }\n\n  function incrementTotalReferralCount()\n    external\n    onlyGameContract\n  {\n    totalReferralCount = totalReferralCount.add(1);\n  }\n\n  function incrementTotalReferralVolume(\n    uint256 _incrementAmount\n  )\n    external\n    onlyGameContract\n  {\n    totalReferralVolume = totalReferralVolume.add(_incrementAmount);\n  }\n}",
  "sourcePath": "/Users/tovarishfin/dev/personal/rps/contracts/Statistics.sol",
  "compiler": {
    "name": "solc",
    "version": "0.4.25+commit.59dbf8f1.Emscripten.clang"
  },
  "schemaVersion": "3.0.0",
  "updatedAt": "2018-12-31T00:26:15.431Z",
  "devdoc": {
    "methods": {
      "isOwner()": {
        "return": "true if `msg.sender` is the owner of the contract."
      },
      "owner()": {
        "return": "the address of the owner."
      },
      "renounceOwnership()": {
        "details": "Allows the current owner to relinquish control of the contract."
      },
      "transferOwnership(address)": {
        "details": "Allows the current owner to transfer control of the contract to a newOwner.",
        "params": {
          "newOwner": "The address to transfer ownership to."
        }
      }
    }
  },
  "userdoc": {
    "methods": {
      "renounceOwnership()": {
        "notice": "Renouncing to ownership will leave the contract without an owner. It will not be possible to call the functions with the `onlyOwner` modifier anymore."
      }
    }
  }
}