{
  "contractName": "Stats",
  "abi": [
    {
      "constant": true,
      "inputs": [],
      "name": "totalWinVolume",
      "outputs": [
        {
          "name": "",
          "type": "uint256"
        }
      ],
      "payable": false,
      "stateMutability": "view",
      "type": "function"
    },
    {
      "constant": true,
      "inputs": [],
      "name": "totalPlayCount",
      "outputs": [
        {
          "name": "",
          "type": "uint256"
        }
      ],
      "payable": false,
      "stateMutability": "view",
      "type": "function"
    },
    {
      "constant": true,
      "inputs": [],
      "name": "registry",
      "outputs": [
        {
          "name": "",
          "type": "address"
        }
      ],
      "payable": false,
      "stateMutability": "view",
      "type": "function"
    },
    {
      "constant": true,
      "inputs": [],
      "name": "totalReferralCount",
      "outputs": [
        {
          "name": "",
          "type": "uint256"
        }
      ],
      "payable": false,
      "stateMutability": "view",
      "type": "function"
    },
    {
      "constant": true,
      "inputs": [],
      "name": "totalReferralVolume",
      "outputs": [
        {
          "name": "",
          "type": "uint256"
        }
      ],
      "payable": false,
      "stateMutability": "view",
      "type": "function"
    },
    {
      "constant": true,
      "inputs": [],
      "name": "totalWinCount",
      "outputs": [
        {
          "name": "",
          "type": "uint256"
        }
      ],
      "payable": false,
      "stateMutability": "view",
      "type": "function"
    },
    {
      "inputs": [
        {
          "name": "_registryAddress",
          "type": "address"
        }
      ],
      "payable": false,
      "stateMutability": "nonpayable",
      "type": "constructor"
    },
    {
      "constant": false,
      "inputs": [],
      "name": "incrementPlayCount",
      "outputs": [],
      "payable": false,
      "stateMutability": "nonpayable",
      "type": "function"
    },
    {
      "constant": false,
      "inputs": [],
      "name": "incrementWinCount",
      "outputs": [],
      "payable": false,
      "stateMutability": "nonpayable",
      "type": "function"
    },
    {
      "constant": false,
      "inputs": [
        {
          "name": "_winAmount",
          "type": "uint256"
        }
      ],
      "name": "incrementWinVolume",
      "outputs": [],
      "payable": false,
      "stateMutability": "nonpayable",
      "type": "function"
    },
    {
      "constant": false,
      "inputs": [],
      "name": "incrementReferralCount",
      "outputs": [],
      "payable": false,
      "stateMutability": "nonpayable",
      "type": "function"
    },
    {
      "constant": false,
      "inputs": [
        {
          "name": "_referralAmount",
          "type": "uint256"
        }
      ],
      "name": "incrementReferralVolume",
      "outputs": [],
      "payable": false,
      "stateMutability": "nonpayable",
      "type": "function"
    }
  ],
  "bytecode": "0x608060405234801561001057600080fd5b50604051602080610a508339810180604052810190808051906020019092919050505061004b8161009c640100000000026401000000009004565b151561005657600080fd5b806000806101000a81548173ffffffffffffffffffffffffffffffffffffffff021916908373ffffffffffffffffffffffffffffffffffffffff160217905550506100af565b600080823b905060008111915050919050565b610992806100be6000396000f3006080604052600436106100af576000357c0100000000000000000000000000000000000000000000000000000000900463ffffffff1680630a349282146100b4578063513be4af146100df57806359dfdec8146100f65780636b42ae27146101215780637b103999146101385780638473cc3a1461018f5780638c121ab7146101ba5780638f5863fa146101e7578063aebdfef714610214578063e7a2b1481461023f578063f198665c14610256575b600080fd5b3480156100c057600080fd5b506100c9610281565b6040518082815260200191505060405180910390f35b3480156100eb57600080fd5b506100f4610287565b005b34801561010257600080fd5b5061010b6103d0565b6040518082815260200191505060405180910390f35b34801561012d57600080fd5b506101366103d6565b005b34801561014457600080fd5b5061014d61051f565b604051808273ffffffffffffffffffffffffffffffffffffffff1673ffffffffffffffffffffffffffffffffffffffff16815260200191505060405180910390f35b34801561019b57600080fd5b506101a4610544565b6040518082815260200191505060405180910390f35b3480156101c657600080fd5b506101e56004803603810190808035906020019092919050505061054a565b005b3480156101f357600080fd5b506102126004803603810190808035906020019092919050505061069d565b005b34801561022057600080fd5b506102296107f0565b6040518082815260200191505060405180910390f35b34801561024b57600080fd5b506102546107f6565b005b34801561026257600080fd5b5061026b61093f565b6040518082815260200191505060405180910390f35b60035481565b6000809054906101000a900473ffffffffffffffffffffffffffffffffffffffff1673ffffffffffffffffffffffffffffffffffffffff1663b319c9e46040518163ffffffff167c01000000000000000000000000000000000000000000000000000000000281526004018080602001828103825260118152602001807f526f636b506170657253636973736f7273000000000000000000000000000000815250602001915050602060405180830381600087803b15801561034857600080fd5b505af115801561035c573d6000803e3d6000fd5b505050506040513d602081101561037257600080fd5b810190808051906020019092919050505073ffffffffffffffffffffffffffffffffffffffff163373ffffffffffffffffffffffffffffffffffffffff161415156103bc57600080fd5b600160008154809291906001019190505550565b60015481565b6000809054906101000a900473ffffffffffffffffffffffffffffffffffffffff1673ffffffffffffffffffffffffffffffffffffffff1663b319c9e46040518163ffffffff167c01000000000000000000000000000000000000000000000000000000000281526004018080602001828103825260118152602001807f526f636b506170657253636973736f7273000000000000000000000000000000815250602001915050602060405180830381600087803b15801561049757600080fd5b505af11580156104ab573d6000803e3d6000fd5b505050506040513d60208110156104c157600080fd5b810190808051906020019092919050505073ffffffffffffffffffffffffffffffffffffffff163373ffffffffffffffffffffffffffffffffffffffff1614151561050b57600080fd5b600260008154809291906001019190505550565b6000809054906101000a900473ffffffffffffffffffffffffffffffffffffffff1681565b60045481565b6000809054906101000a900473ffffffffffffffffffffffffffffffffffffffff1673ffffffffffffffffffffffffffffffffffffffff1663b319c9e46040518163ffffffff167c01000000000000000000000000000000000000000000000000000000000281526004018080602001828103825260118152602001807f526f636b506170657253636973736f7273000000000000000000000000000000815250602001915050602060405180830381600087803b15801561060b57600080fd5b505af115801561061f573d6000803e3d6000fd5b505050506040513d602081101561063557600080fd5b810190808051906020019092919050505073ffffffffffffffffffffffffffffffffffffffff163373ffffffffffffffffffffffffffffffffffffffff1614151561067f57600080fd5b6106948160055461094590919063ffffffff16565b60058190555050565b6000809054906101000a900473ffffffffffffffffffffffffffffffffffffffff1673ffffffffffffffffffffffffffffffffffffffff1663b319c9e46040518163ffffffff167c01000000000000000000000000000000000000000000000000000000000281526004018080602001828103825260118152602001807f526f636b506170657253636973736f7273000000000000000000000000000000815250602001915050602060405180830381600087803b15801561075e57600080fd5b505af1158015610772573d6000803e3d6000fd5b505050506040513d602081101561078857600080fd5b810190808051906020019092919050505073ffffffffffffffffffffffffffffffffffffffff163373ffffffffffffffffffffffffffffffffffffffff161415156107d257600080fd5b6107e78160035461094590919063ffffffff16565b60038190555050565b60055481565b6000809054906101000a900473ffffffffffffffffffffffffffffffffffffffff1673ffffffffffffffffffffffffffffffffffffffff1663b319c9e46040518163ffffffff167c01000000000000000000000000000000000000000000000000000000000281526004018080602001828103825260118152602001807f526f636b506170657253636973736f7273000000000000000000000000000000815250602001915050602060405180830381600087803b1580156108b757600080fd5b505af11580156108cb573d6000803e3d6000fd5b505050506040513d60208110156108e157600080fd5b810190808051906020019092919050505073ffffffffffffffffffffffffffffffffffffffff163373ffffffffffffffffffffffffffffffffffffffff1614151561092b57600080fd5b600460008154809291906001019190505550565b60025481565b600080828401905083811015151561095c57600080fd5b80915050929150505600a165627a7a723058205158936acda00db81002e03485874839245d439941161221d85dff5e742b63840029",
  "source": "pragma solidity ^0.4.24;\n\nimport \"./interfaces/IRegistry.sol\";\nimport \"openzeppelin-solidity/contracts/math/SafeMath.sol\";\n\n\ncontract Stats {\n  using SafeMath for uint256;\n\n  IRegistry public registry;\n\n  uint256 public totalPlayCount;\n  uint256 public totalWinCount;\n  uint256 public totalWinVolume;\n  uint256 public totalReferralCount;\n  uint256 public totalReferralVolume;\n\n  modifier onlyRps() {\n    require(msg.sender == registry.getEntry(\"RockPaperScissors\"));\n\n    _;\n  }\n\n  function isContract(\n    address _address\n  )\n    internal\n    view\n    returns (bool)\n  {\n    uint256 _size;\n    assembly { _size := extcodesize(_address) }\n    return _size > 0;\n  }\n\n  constructor(\n    address _registryAddress\n  )\n    public\n  {\n    require(isContract(_registryAddress));\n    registry = IRegistry(_registryAddress);\n  }\n\n  function incrementPlayCount()\n    external\n    onlyRps\n  {\n    totalPlayCount++;\n  }\n\n  function incrementWinCount()\n    external\n    onlyRps\n  {\n    totalWinCount++;\n  }\n\n  function incrementWinVolume(\n    uint256 _winAmount\n  )\n    external\n    onlyRps\n  {\n    totalWinVolume = totalWinVolume.add(_winAmount);\n  }\n\n  function incrementReferralCount()\n    external\n    onlyRps\n  {\n    totalReferralCount++;\n  }\n\n  function incrementReferralVolume(\n    uint256 _referralAmount\n  )\n    external\n    onlyRps\n  {\n    totalReferralVolume = totalReferralVolume.add(_referralAmount);\n  }\n}",
  "sourcePath": "/Users/tovarishfin/dev/personal/rps/contracts/Stats.sol",
  "compiler": {
    "name": "solc",
    "version": "0.4.24+commit.e67f0147.Emscripten.clang"
  },
  "schemaVersion": "2.0.1",
  "updatedAt": "2018-11-25T21:27:37.409Z"
}